{
  "address": "0x0e829C5e60e1b19A465468A30A5054b501B11b4B",
  "abi": [
    {
      "inputs": [
        {
          "internalType": "string",
          "name": "tokenBaseURI_",
          "type": "string"
        },
        {
          "internalType": "address",
          "name": "_whitelistSigner",
          "type": "address"
        }
      ],
      "stateMutability": "nonpayable",
      "type": "constructor"
    },
    {
      "anonymous": false,
      "inputs": [
        {
          "indexed": true,
          "internalType": "address",
          "name": "owner",
          "type": "address"
        },
        {
          "indexed": true,
          "internalType": "address",
          "name": "approved",
          "type": "address"
        },
        {
          "indexed": true,
          "internalType": "uint256",
          "name": "tokenId",
          "type": "uint256"
        }
      ],
      "name": "Approval",
      "type": "event"
    },
    {
      "anonymous": false,
      "inputs": [
        {
          "indexed": true,
          "internalType": "address",
          "name": "owner",
          "type": "address"
        },
        {
          "indexed": true,
          "internalType": "address",
          "name": "operator",
          "type": "address"
        },
        {
          "indexed": false,
          "internalType": "bool",
          "name": "approved",
          "type": "bool"
        }
      ],
      "name": "ApprovalForAll",
      "type": "event"
    },
    {
      "anonymous": false,
      "inputs": [
        {
          "indexed": true,
          "internalType": "address",
          "name": "previousOwner",
          "type": "address"
        },
        {
          "indexed": true,
          "internalType": "address",
          "name": "newOwner",
          "type": "address"
        }
      ],
      "name": "OwnershipTransferred",
      "type": "event"
    },
    {
      "anonymous": false,
      "inputs": [
        {
          "indexed": true,
          "internalType": "address",
          "name": "from",
          "type": "address"
        },
        {
          "indexed": true,
          "internalType": "address",
          "name": "to",
          "type": "address"
        },
        {
          "indexed": true,
          "internalType": "uint256",
          "name": "tokenId",
          "type": "uint256"
        }
      ],
      "name": "Transfer",
      "type": "event"
    },
    {
      "inputs": [],
      "name": "AVARIK_GIFT",
      "outputs": [
        {
          "internalType": "uint256",
          "name": "",
          "type": "uint256"
        }
      ],
      "stateMutability": "view",
      "type": "function"
    },
    {
      "inputs": [],
      "name": "AVARIK_MAX",
      "outputs": [
        {
          "internalType": "uint256",
          "name": "",
          "type": "uint256"
        }
      ],
      "stateMutability": "view",
      "type": "function"
    },
    {
      "inputs": [],
      "name": "AVARIK_PER_MINT",
      "outputs": [
        {
          "internalType": "uint256",
          "name": "",
          "type": "uint256"
        }
      ],
      "stateMutability": "view",
      "type": "function"
    },
    {
      "inputs": [],
      "name": "AVARIK_PRICE",
      "outputs": [
        {
          "internalType": "uint256",
          "name": "",
          "type": "uint256"
        }
      ],
      "stateMutability": "view",
      "type": "function"
    },
    {
      "inputs": [],
      "name": "AVARIK_PRIVATE",
      "outputs": [
        {
          "internalType": "uint256",
          "name": "",
          "type": "uint256"
        }
      ],
      "stateMutability": "view",
      "type": "function"
    },
    {
      "inputs": [],
      "name": "AVARIK_PUBLIC",
      "outputs": [
        {
          "internalType": "uint256",
          "name": "",
          "type": "uint256"
        }
      ],
      "stateMutability": "view",
      "type": "function"
    },
    {
      "inputs": [],
      "name": "AVARIK_PUBLIC_PER_SALER",
      "outputs": [
        {
          "internalType": "uint256",
          "name": "",
          "type": "uint256"
        }
      ],
      "stateMutability": "view",
      "type": "function"
    },
    {
      "inputs": [],
      "name": "PRESALE_TYPEHASH",
      "outputs": [
        {
          "internalType": "bytes32",
          "name": "",
          "type": "bytes32"
        }
      ],
      "stateMutability": "view",
      "type": "function"
    },
    {
      "inputs": [],
      "name": "PUBLIC_BUY_FREEZE_TIME",
      "outputs": [
        {
          "internalType": "uint256",
          "name": "",
          "type": "uint256"
        }
      ],
      "stateMutability": "view",
      "type": "function"
    },
    {
      "inputs": [
        {
          "internalType": "address",
          "name": "to",
          "type": "address"
        },
        {
          "internalType": "uint256",
          "name": "tokenId",
          "type": "uint256"
        }
      ],
      "name": "approve",
      "outputs": [],
      "stateMutability": "nonpayable",
      "type": "function"
    },
    {
      "inputs": [
        {
          "internalType": "address",
          "name": "owner",
          "type": "address"
        }
      ],
      "name": "balanceOf",
      "outputs": [
        {
          "internalType": "uint256",
          "name": "",
          "type": "uint256"
        }
      ],
      "stateMutability": "view",
      "type": "function"
    },
    {
      "inputs": [
        {
          "internalType": "uint256",
          "name": "tokenQuantity",
          "type": "uint256"
        }
      ],
      "name": "buy",
      "outputs": [],
      "stateMutability": "payable",
      "type": "function"
    },
    {
      "inputs": [],
      "name": "contractURI",
      "outputs": [
        {
          "internalType": "string",
          "name": "",
          "type": "string"
        }
      ],
      "stateMutability": "view",
      "type": "function"
    },
    {
      "inputs": [
        {
          "internalType": "uint256",
          "name": "tokenId",
          "type": "uint256"
        }
      ],
      "name": "getApproved",
      "outputs": [
        {
          "internalType": "address",
          "name": "",
          "type": "address"
        }
      ],
      "stateMutability": "view",
      "type": "function"
    },
    {
      "inputs": [
        {
          "internalType": "address[]",
          "name": "receivers",
          "type": "address[]"
        }
      ],
      "name": "gift",
      "outputs": [],
      "stateMutability": "nonpayable",
      "type": "function"
    },
    {
      "inputs": [],
      "name": "giftedAmount",
      "outputs": [
        {
          "internalType": "uint256",
          "name": "",
          "type": "uint256"
        }
      ],
      "stateMutability": "view",
      "type": "function"
    },
    {
      "inputs": [
        {
          "internalType": "address",
          "name": "owner",
          "type": "address"
        },
        {
          "internalType": "address",
          "name": "operator",
          "type": "address"
        }
      ],
      "name": "isApprovedForAll",
      "outputs": [
        {
          "internalType": "bool",
          "name": "",
          "type": "bool"
        }
      ],
      "stateMutability": "view",
      "type": "function"
    },
    {
      "inputs": [],
      "name": "isPresaleActive",
      "outputs": [
        {
          "internalType": "bool",
          "name": "",
          "type": "bool"
        }
      ],
      "stateMutability": "view",
      "type": "function"
    },
    {
      "inputs": [],
      "name": "isSaleActive",
      "outputs": [
        {
          "internalType": "bool",
          "name": "",
          "type": "bool"
        }
      ],
      "stateMutability": "view",
      "type": "function"
    },
    {
      "inputs": [],
      "name": "name",
      "outputs": [
        {
          "internalType": "string",
          "name": "",
          "type": "string"
        }
      ],
      "stateMutability": "view",
      "type": "function"
    },
    {
      "inputs": [],
      "name": "owner",
      "outputs": [
        {
          "internalType": "address",
          "name": "",
          "type": "address"
        }
      ],
      "stateMutability": "view",
      "type": "function"
    },
    {
      "inputs": [
        {
          "internalType": "uint256",
          "name": "tokenId",
          "type": "uint256"
        }
      ],
      "name": "ownerOf",
      "outputs": [
        {
          "internalType": "address",
          "name": "",
          "type": "address"
        }
      ],
      "stateMutability": "view",
      "type": "function"
    },
    {
      "inputs": [
        {
          "internalType": "uint256",
          "name": "tokenQuantity",
          "type": "uint256"
        },
        {
          "internalType": "uint256",
          "name": "maxCount",
          "type": "uint256"
        },
        {
          "internalType": "bytes",
          "name": "signature",
          "type": "bytes"
        }
      ],
      "name": "presaleBuy",
      "outputs": [],
      "stateMutability": "payable",
      "type": "function"
    },
    {
      "inputs": [],
      "name": "presaleLive",
      "outputs": [
        {
          "internalType": "bool",
          "name": "",
          "type": "bool"
        }
      ],
      "stateMutability": "view",
      "type": "function"
    },
    {
      "inputs": [
        {
          "internalType": "address",
          "name": "addr",
          "type": "address"
        }
      ],
      "name": "presalePurchasedCount",
      "outputs": [
        {
          "internalType": "uint256",
          "name": "",
          "type": "uint256"
        }
      ],
      "stateMutability": "view",
      "type": "function"
    },
    {
      "inputs": [
        {
          "internalType": "address",
          "name": "",
          "type": "address"
        }
      ],
      "name": "presalerListPurchases",
      "outputs": [
        {
          "internalType": "uint256",
          "name": "",
          "type": "uint256"
        }
      ],
      "stateMutability": "view",
      "type": "function"
    },
    {
      "inputs": [],
      "name": "privateAmountMinted",
      "outputs": [
        {
          "internalType": "uint256",
          "name": "",
          "type": "uint256"
        }
      ],
      "stateMutability": "view",
      "type": "function"
    },
    {
      "inputs": [],
      "name": "publicAmountMinted",
      "outputs": [
        {
          "internalType": "uint256",
          "name": "",
          "type": "uint256"
        }
      ],
      "stateMutability": "view",
      "type": "function"
    },
    {
      "inputs": [],
      "name": "renounceOwnership",
      "outputs": [],
      "stateMutability": "nonpayable",
      "type": "function"
    },
    {
      "inputs": [
        {
          "internalType": "address",
          "name": "from",
          "type": "address"
        },
        {
          "internalType": "address",
          "name": "to",
          "type": "address"
        },
        {
          "internalType": "uint256",
          "name": "tokenId",
          "type": "uint256"
        }
      ],
      "name": "safeTransferFrom",
      "outputs": [],
      "stateMutability": "nonpayable",
      "type": "function"
    },
    {
      "inputs": [
        {
          "internalType": "address",
          "name": "from",
          "type": "address"
        },
        {
          "internalType": "address",
          "name": "to",
          "type": "address"
        },
        {
          "internalType": "uint256",
          "name": "tokenId",
          "type": "uint256"
        },
        {
          "internalType": "bytes",
          "name": "_data",
          "type": "bytes"
        }
      ],
      "name": "safeTransferFrom",
      "outputs": [],
      "stateMutability": "nonpayable",
      "type": "function"
    },
    {
      "inputs": [],
      "name": "saleLive",
      "outputs": [
        {
          "internalType": "bool",
          "name": "",
          "type": "bool"
        }
      ],
      "stateMutability": "view",
      "type": "function"
    },
    {
      "inputs": [
        {
          "internalType": "address",
          "name": "",
          "type": "address"
        }
      ],
      "name": "salerLastPurchased",
      "outputs": [
        {
          "internalType": "uint256",
          "name": "",
          "type": "uint256"
        }
      ],
      "stateMutability": "view",
      "type": "function"
    },
    {
      "inputs": [
        {
          "internalType": "address",
          "name": "",
          "type": "address"
        }
      ],
      "name": "salerListPurchases",
      "outputs": [
        {
          "internalType": "uint256",
          "name": "",
          "type": "uint256"
        }
      ],
      "stateMutability": "view",
      "type": "function"
    },
    {
      "inputs": [
        {
          "internalType": "address",
          "name": "operator",
          "type": "address"
        },
        {
          "internalType": "bool",
          "name": "approved",
          "type": "bool"
        }
      ],
      "name": "setApprovalForAll",
      "outputs": [],
      "stateMutability": "nonpayable",
      "type": "function"
    },
    {
      "inputs": [
        {
          "internalType": "string",
          "name": "URI",
          "type": "string"
        }
      ],
      "name": "setBaseURI",
      "outputs": [],
      "stateMutability": "nonpayable",
      "type": "function"
    },
    {
      "inputs": [
        {
          "internalType": "string",
          "name": "URI",
          "type": "string"
        }
      ],
      "name": "setContractURI",
      "outputs": [],
      "stateMutability": "nonpayable",
      "type": "function"
    },
    {
      "inputs": [
        {
          "internalType": "string",
          "name": "URI",
          "type": "string"
        }
      ],
      "name": "setDefaultBaseURI",
      "outputs": [],
      "stateMutability": "nonpayable",
      "type": "function"
    },
    {
      "inputs": [
        {
          "internalType": "bytes4",
          "name": "interfaceId",
          "type": "bytes4"
        }
      ],
      "name": "supportsInterface",
      "outputs": [
        {
          "internalType": "bool",
          "name": "",
          "type": "bool"
        }
      ],
      "stateMutability": "view",
      "type": "function"
    },
    {
      "inputs": [],
      "name": "symbol",
      "outputs": [
        {
          "internalType": "string",
          "name": "",
          "type": "string"
        }
      ],
      "stateMutability": "view",
      "type": "function"
    },
    {
      "inputs": [],
      "name": "togglePresaleStatus",
      "outputs": [],
      "stateMutability": "nonpayable",
      "type": "function"
    },
    {
      "inputs": [],
      "name": "toggleSaleStatus",
      "outputs": [],
      "stateMutability": "nonpayable",
      "type": "function"
    },
    {
      "inputs": [
        {
          "internalType": "uint256",
          "name": "index",
          "type": "uint256"
        }
      ],
      "name": "tokenByIndex",
      "outputs": [
        {
          "internalType": "uint256",
          "name": "",
          "type": "uint256"
        }
      ],
      "stateMutability": "view",
      "type": "function"
    },
    {
      "inputs": [
        {
          "internalType": "address",
          "name": "owner",
          "type": "address"
        },
        {
          "internalType": "uint256",
          "name": "index",
          "type": "uint256"
        }
      ],
      "name": "tokenOfOwnerByIndex",
      "outputs": [
        {
          "internalType": "uint256",
          "name": "",
          "type": "uint256"
        }
      ],
      "stateMutability": "view",
      "type": "function"
    },
    {
      "inputs": [
        {
          "internalType": "uint256",
          "name": "tokenId",
          "type": "uint256"
        }
      ],
      "name": "tokenURI",
      "outputs": [
        {
          "internalType": "string",
          "name": "",
          "type": "string"
        }
      ],
      "stateMutability": "view",
      "type": "function"
    },
    {
      "inputs": [],
      "name": "totalSupply",
      "outputs": [
        {
          "internalType": "uint256",
          "name": "",
          "type": "uint256"
        }
      ],
      "stateMutability": "view",
      "type": "function"
    },
    {
      "inputs": [
        {
          "internalType": "address",
          "name": "from",
          "type": "address"
        },
        {
          "internalType": "address",
          "name": "to",
          "type": "address"
        },
        {
          "internalType": "uint256",
          "name": "tokenId",
          "type": "uint256"
        }
      ],
      "name": "transferFrom",
      "outputs": [],
      "stateMutability": "nonpayable",
      "type": "function"
    },
    {
      "inputs": [
        {
          "internalType": "address",
          "name": "newOwner",
          "type": "address"
        }
      ],
      "name": "transferOwnership",
      "outputs": [],
      "stateMutability": "nonpayable",
      "type": "function"
    },
    {
      "inputs": [],
      "name": "whitelistSigner",
      "outputs": [
        {
          "internalType": "address",
          "name": "",
          "type": "address"
        }
      ],
      "stateMutability": "view",
      "type": "function"
    },
    {
      "inputs": [],
      "name": "withdraw",
      "outputs": [],
      "stateMutability": "nonpayable",
      "type": "function"
    }
  ],
  "transactionHash": "0xa1a4cb912a316057ec3498aa695a1b01ee25d87100243d5b111ea716384c0b85",
  "args": [
    "https://ipfs.io/ipfs/QmVU8i23TV6MXvt3cuu9voRZVHS9SvkhW7rgsNVUJGBEuM/",
    "0x73964F6F211D5a8428322EDFbDfEc72FF76D9fCd"
  ],
  "solcInputHash": "28bf041300b5877aed88835c97e40f3c",
  "bytecode": "0x610120604052601180546001600160a01b03191673ea68212b0450a929b14726b90550933bc12ff8131790556102586016553480156200003e57600080fd5b5060405162003bf638038062003bf6833981016040819052620000619162000304565b604080518082018252600b8082526a41766172696b205361676160a81b602080840182815285518087018752600681526541564152494b60d01b81840152865180880188529485528483019384528651808801885260058152640312e302e360dc1b90840152935190922060c08181527f06c015bd22b4c69690933c1058878ebdfef31f9aaae40bbe86d8a09fe1b2972c60e08190524660a081815289517f8b73c3c69bb8fe3d512ecc4cf759cc79239f7b179b0ffacaa9a75d522b39400f818801819052818c0196909652606081019390935260808084019290925230838201528951808403909101815291909201909752865196909201959095209052610100939093528151919290916200017b9160009162000241565b5080516200019190600190602084019062000241565b505050620001ae620001a8620001eb60201b60201c565b620001ef565b8151620001c390600f90602085019062000241565b50601280546001600160a01b0319166001600160a01b03929092169190911790555062000448565b3390565b600a80546001600160a01b038381166001600160a01b0319831681179093556040519116919082907f8be0079c531659141344cd1fd0a4f28419497f9722a3daafe3b4186f6b6457e090600090a35050565b8280546200024f90620003f5565b90600052602060002090601f016020900481019282620002735760008555620002be565b82601f106200028e57805160ff1916838001178555620002be565b82800160010185558215620002be579182015b82811115620002be578251825591602001919060010190620002a1565b50620002cc929150620002d0565b5090565b5b80821115620002cc5760008155600101620002d1565b80516001600160a01b0381168114620002ff57600080fd5b919050565b600080604083850312156200031857600080fd5b82516001600160401b03808211156200033057600080fd5b818501915085601f8301126200034557600080fd5b8151818111156200035a576200035a62000432565b604051601f8201601f19908116603f0116810190838211818310171562000385576200038562000432565b81604052828152602093508884848701011115620003a257600080fd5b600091505b82821015620003c65784820184015181830185015290830190620003a7565b82821115620003d85760008484830101525b9550620003ea915050858201620002e7565b925050509250929050565b600181811c908216806200040a57607f821691505b602082108114156200042c57634e487b7160e01b600052602260045260246000fd5b50919050565b634e487b7160e01b600052604160045260246000fd5b60805160a05160c05160e051610100516137696200048d6000396000612c5401526000612ca301526000612c7e01526000612c0201526000612c2b01526137696000f3fe6080604052600436106103295760003560e01c8063694db137116101a5578063acdea118116100ec578063e051ce9711610095578063e8a3d4851161006f578063e8a3d485146108a2578063e985e9c5146108b7578063ef81b4d414610900578063f2fde38b1461092057600080fd5b8063e051ce9714610859578063e081b7811461086e578063e44c6a9a1461088d57600080fd5b8063c87b56dd116100c6578063c87b56dd146107f2578063d4ae752214610812578063d96a094a1461084657600080fd5b8063acdea11814610789578063b88d4fde146107a5578063c174c1e9146107c557600080fd5b8063938e3d7b1161014e5780639bf80316116101285780639bf8031614610726578063a22cb46514610753578063ab0923b71461077357600080fd5b8063938e3d7b146106db578063940f1ada146106fb57806395d89b411461071157600080fd5b80637bffb4ce1161017f5780637bffb4ce1461068e57806383a9e049146106a35780638da5cb5b146106bd57600080fd5b8063694db1371461064357806370a0823114610659578063715018a61461067957600080fd5b80632f745c591161027457806355f804b31161021d57806359a12ad5116101f757806359a12ad5146105bf5780635ce7af1f146105d557806360d938dc1461060b5780636352211e1461062357600080fd5b806355f804b31461056d578063564566a81461058d5780635663c108146105aa57600080fd5b80634eeeb14f1161024e5780634eeeb14f146105245780634f6ccce71461053a578063530ed6941461055a57600080fd5b80632f745c59146104cf5780633ccfd60b146104ef57806342842e0e1461050457600080fd5b8063095ea7b3116102d657806318e06839116102b057806318e06839146104845780631b57190e1461049957806323b872dd146104af57600080fd5b8063095ea7b31461042f578063163e1e611461044f57806318160ddd1461046f57600080fd5b806305af57321161030757806305af57321461039a57806306fdde03146103d5578063081812fc146103f757600080fd5b806301e669721461032e57806301ffc9a714610350578063049c5c4914610385575b600080fd5b34801561033a57600080fd5b5061034e61034936600461339a565b610940565b005b34801561035c57600080fd5b5061037061036b366004613360565b6109b0565b60405190151581526020015b60405180910390f35b34801561039157600080fd5b5061034e6109f4565b3480156103a657600080fd5b506103c76103b5366004613193565b600c6020526000908152604090205481565b60405190815260200161037c565b3480156103e157600080fd5b506103ea610a6b565b60405161037c919061358e565b34801561040357600080fd5b506104176104123660046133fa565b610afd565b6040516001600160a01b03909116815260200161037c565b34801561043b57600080fd5b5061034e61044a3660046132c1565b610b92565b34801561045b57600080fd5b5061034e61046a3660046132eb565b610cbf565b34801561047b57600080fd5b506008546103c7565b34801561049057600080fd5b506103c7605881565b3480156104a557600080fd5b506103c760135481565b3480156104bb57600080fd5b5061034e6104ca3660046131e1565b610e64565b3480156104db57600080fd5b506103c76104ea3660046132c1565b610eeb565b3480156104fb57600080fd5b5061034e610f93565b34801561051057600080fd5b5061034e61051f3660046131e1565b61106b565b34801561053057600080fd5b506103c7611f4081565b34801561054657600080fd5b506103c76105553660046133fa565b611086565b61034e610568366004613413565b61112a565b34801561057957600080fd5b5061034e61058836600461339a565b611478565b34801561059957600080fd5b50601754610100900460ff16610370565b3480156105b657600080fd5b506103c76114de565b3480156105cb57600080fd5b506103c760155481565b3480156105e157600080fd5b506103c76105f0366004613193565b6001600160a01b03166000908152600b602052604090205490565b34801561061757600080fd5b5060175460ff16610370565b34801561062f57600080fd5b5061041761063e3660046133fa565b6114fb565b34801561064f57600080fd5b506103c760165481565b34801561066557600080fd5b506103c7610674366004613193565b611586565b34801561068557600080fd5b5061034e611620565b34801561069a57600080fd5b5061034e611686565b3480156106af57600080fd5b506017546103709060ff1681565b3480156106c957600080fd5b50600a546001600160a01b0316610417565b3480156106e757600080fd5b5061034e6106f636600461339a565b6116f4565b34801561070757600080fd5b506103c760145481565b34801561071d57600080fd5b506103ea61175a565b34801561073257600080fd5b506103c7610741366004613193565b600b6020526000908152604090205481565b34801561075f57600080fd5b5061034e61076e366004613285565b611769565b34801561077f57600080fd5b506103c761032081565b34801561079557600080fd5b506103c767011c37937e08000081565b3480156107b157600080fd5b5061034e6107c036600461321d565b61182e565b3480156107d157600080fd5b506103c76107e0366004613193565b600d6020526000908152604090205481565b3480156107fe57600080fd5b506103ea61080d3660046133fa565b6118b6565b34801561081e57600080fd5b506103c77f46d572d4aba7cc8ab12e37a6c279cfd599f9f5b73872e95b4bff2a237dd40f0e81565b61034e6108543660046133fa565b6119f4565b34801561086557600080fd5b506103c7600581565b34801561087a57600080fd5b5060175461037090610100900460ff1681565b34801561089957600080fd5b506103c7600381565b3480156108ae57600080fd5b506103ea611e57565b3480156108c357600080fd5b506103706108d23660046131ae565b6001600160a01b03918216600090815260056020908152604080832093909416825291909152205460ff1690565b34801561090c57600080fd5b50601254610417906001600160a01b031681565b34801561092c57600080fd5b5061034e61093b366004613193565b611e66565b600a546001600160a01b0316331461099f5760405162461bcd60e51b815260206004820181905260248201527f4f776e61626c653a2063616c6c6572206973206e6f7420746865206f776e657260448201526064015b60405180910390fd5b6109ab60108383613051565b505050565b60006001600160e01b031982167f780e9d630000000000000000000000000000000000000000000000000000000014806109ee57506109ee82611f45565b92915050565b600a546001600160a01b03163314610a4e5760405162461bcd60e51b815260206004820181905260248201527f4f776e61626c653a2063616c6c6572206973206e6f7420746865206f776e65726044820152606401610996565b6017805461ff001981166101009182900460ff1615909102179055565b606060008054610a7a9061362f565b80601f0160208091040260200160405190810160405280929190818152602001828054610aa69061362f565b8015610af35780601f10610ac857610100808354040283529160200191610af3565b820191906000526020600020905b815481529060010190602001808311610ad657829003601f168201915b5050505050905090565b6000818152600260205260408120546001600160a01b0316610b765760405162461bcd60e51b815260206004820152602c60248201527f4552433732313a20617070726f76656420717565727920666f72206e6f6e657860448201526b34b9ba32b73a103a37b5b2b760a11b6064820152608401610996565b506000908152600460205260409020546001600160a01b031690565b6000610b9d826114fb565b9050806001600160a01b0316836001600160a01b03161415610c275760405162461bcd60e51b815260206004820152602160248201527f4552433732313a20617070726f76616c20746f2063757272656e74206f776e6560448201527f72000000000000000000000000000000000000000000000000000000000000006064820152608401610996565b336001600160a01b0382161480610c435750610c4381336108d2565b610cb55760405162461bcd60e51b815260206004820152603860248201527f4552433732313a20617070726f76652063616c6c6572206973206e6f74206f7760448201527f6e6572206e6f7220617070726f76656420666f7220616c6c00000000000000006064820152608401610996565b6109ab8383611fe0565b600a546001600160a01b03163314610d195760405162461bcd60e51b815260206004820181905260248201527f4f776e61626c653a2063616c6c6572206973206e6f7420746865206f776e65726044820152606401610996565b610320610d29611f4060586135a1565b610d3391906135a1565b81610d3d60085490565b610d4791906135a1565b1115610d955760405162461bcd60e51b815260206004820152600860248201527f4d41585f4d494e540000000000000000000000000000000000000000000000006044820152606401610996565b601354605890610da69083906135a1565b1115610df45760405162461bcd60e51b815260206004820152600b60248201527f47494654535f454d5054590000000000000000000000000000000000000000006044820152606401610996565b60005b818110156109ab5760138054906000610e0f8361366a565b9190505550610e52838383818110610e2957610e296136f1565b9050602002016020810190610e3e9190613193565b6008545b610e4d9060016135a1565b61205b565b80610e5c8161366a565b915050610df7565b610e6e3382612075565b610ee05760405162461bcd60e51b815260206004820152603160248201527f4552433732313a207472616e736665722063616c6c6572206973206e6f74206f60448201527f776e6572206e6f7220617070726f7665640000000000000000000000000000006064820152608401610996565b6109ab83838361216c565b6000610ef683611586565b8210610f6a5760405162461bcd60e51b815260206004820152602b60248201527f455243373231456e756d657261626c653a206f776e657220696e646578206f7560448201527f74206f6620626f756e64730000000000000000000000000000000000000000006064820152608401610996565b506001600160a01b03919091166000908152600660209081526040808320938352929052205490565b600a546001600160a01b03163314610fed5760405162461bcd60e51b815260206004820181905260248201527f4f776e61626c653a2063616c6c6572206973206e6f7420746865206f776e65726044820152606401610996565b6011546001600160a01b03166108fc60056110094760026135cd565b61101391906135b9565b6040518115909202916000818181858888f1935050505015801561103b573d6000803e3d6000fd5b5060405133904780156108fc02916000818181858888f19350505050158015611068573d6000803e3d6000fd5b50565b6109ab8383836040518060200160405280600081525061182e565b600061109160085490565b82106111055760405162461bcd60e51b815260206004820152602c60248201527f455243373231456e756d657261626c653a20676c6f62616c20696e646578206f60448201527f7574206f6620626f756e647300000000000000000000000000000000000000006064820152608401610996565b60088281548110611118576111186136f1565b90600052602060002001549050919050565b6012546001600160a01b03166111825760405162461bcd60e51b815260206004820152601a60248201527f5369676e65722069732064656661756c742061646472657373210000000000006044820152606401610996565b61119561118f3384612351565b826123bf565b6111e15760405162461bcd60e51b815260206004820152601960248201527f546865205369676e617475726520697320696e76616c696421000000000000006044820152606401610996565b601754610100900460ff161580156111fb575060175460ff165b6112475760405162461bcd60e51b815260206004820152601560248201527f5468652070726573616c6520697320636c6f73656400000000000000000000006044820152606401610996565b610320611257611f4060586135a1565b61126191906135a1565b600854106112b15760405162461bcd60e51b815260206004820152601660248201527f416c6c2041766172696b7320617265206d696e746564000000000000000000006044820152606401610996565b610320836015546112c291906135a1565b11156113365760405162461bcd60e51b815260206004820152602b60248201527f4d696e74696e6720776f756c6420657863656564207468652070726573616c6560448201527f20616c6c6f636174696f6e0000000000000000000000000000000000000000006064820152608401610996565b336000908152600b602052604090205482906113539085906135a1565b11156113ad5760405162461bcd60e51b8152602060048201526024808201527f596f752063616e206e6f74206d696e742065786365656473206d6178696d756d6044820152630813919560e21b6064820152608401610996565b346113c08467011c37937e0800006135cd565b111561140e5760405162461bcd60e51b815260206004820152601560248201527f496e73756666696369656e74204554482073656e7400000000000000000000006044820152606401610996565b336000908152600b60205260408120805485929061142d9084906135a1565b90915550600090505b83811015611472576015805490600061144e8361366a565b919050555061146033610e4260085490565b8061146a8161366a565b915050611436565b50505050565b600a546001600160a01b031633146114d25760405162461bcd60e51b815260206004820181905260248201527f4f776e61626c653a2063616c6c6572206973206e6f7420746865206f776e65726044820152606401610996565b6109ab600f8383613051565b6103206114ee611f4060586135a1565b6114f891906135a1565b81565b6000818152600260205260408120546001600160a01b0316806109ee5760405162461bcd60e51b815260206004820152602960248201527f4552433732313a206f776e657220717565727920666f72206e6f6e657869737460448201527f656e7420746f6b656e00000000000000000000000000000000000000000000006064820152608401610996565b60006001600160a01b0382166116045760405162461bcd60e51b815260206004820152602a60248201527f4552433732313a2062616c616e636520717565727920666f7220746865207a6560448201527f726f2061646472657373000000000000000000000000000000000000000000006064820152608401610996565b506001600160a01b031660009081526003602052604090205490565b600a546001600160a01b0316331461167a5760405162461bcd60e51b815260206004820181905260248201527f4f776e61626c653a2063616c6c6572206973206e6f7420746865206f776e65726044820152606401610996565b61168460006123e9565b565b600a546001600160a01b031633146116e05760405162461bcd60e51b815260206004820181905260248201527f4f776e61626c653a2063616c6c6572206973206e6f7420746865206f776e65726044820152606401610996565b6017805460ff19811660ff90911615179055565b600a546001600160a01b0316331461174e5760405162461bcd60e51b815260206004820181905260248201527f4f776e61626c653a2063616c6c6572206973206e6f7420746865206f776e65726044820152606401610996565b6109ab600e8383613051565b606060018054610a7a9061362f565b6001600160a01b0382163314156117c25760405162461bcd60e51b815260206004820152601960248201527f4552433732313a20617070726f766520746f2063616c6c6572000000000000006044820152606401610996565b3360008181526005602090815260408083206001600160a01b03871680855290835292819020805460ff191686151590811790915590519081529192917f17307eab39ab6107e8899845ad3d59bd9653f200f220920489ca2b5937696c31910160405180910390a35050565b6118383383612075565b6118aa5760405162461bcd60e51b815260206004820152603160248201527f4552433732313a207472616e736665722063616c6c6572206973206e6f74206f60448201527f776e6572206e6f7220617070726f7665640000000000000000000000000000006064820152608401610996565b61147284848484612448565b6000818152600260205260409020546060906001600160a01b031661191d5760405162461bcd60e51b815260206004820152601f60248201527f43616e6e6f74207175657279206e6f6e2d6578697374656e7420746f6b656e006044820152606401610996565b6000600f805461192c9061362f565b9050116119c357601080546119409061362f565b80601f016020809104026020016040519081016040528092919081815260200182805461196c9061362f565b80156119b95780601f1061198e576101008083540402835291602001916119b9565b820191906000526020600020905b81548152906001019060200180831161199c57829003601f168201915b50505050506109ee565b600f6119ce836124c6565b6040516020016119df9291906134ab565b60405160208183030381529060405292915050565b333b15611a695760405162461bcd60e51b815260206004820152602660248201527f4e6f7420616c6c6f7720746f2063616c6c2066726f6d206f7468657220636f6e60448201527f74726163747300000000000000000000000000000000000000000000000000006064820152608401610996565b336000908152600d60205260409020544211611aed5760405162461bcd60e51b815260206004820152602560248201527f4e6f7420616c6c6f7720746f20707572636861736520696e20667265657a652060448201527f74696d65210000000000000000000000000000000000000000000000000000006064820152608401610996565b601754610100900460ff16611b445760405162461bcd60e51b815260206004820152601060248201527f53616c65206973206e6f74206c697665000000000000000000000000000000006044820152606401610996565b60175460ff1615611b975760405162461bcd60e51b815260206004820152601660248201527f4f6e6c792070726573616c6572732063616e20627579000000000000000000006044820152606401610996565b610320611ba7611f4060586135a1565b611bb191906135a1565b60085410611c015760405162461bcd60e51b815260206004820152601660248201527f416c6c2041766172696b7320617265206d696e746564000000000000000000006044820152606401610996565b611f4081601454611c1291906135a1565b1115611c865760405162461bcd60e51b815260206004820152602960248201527f4d696e74696e6720776f756c642065786365656420746865206d61782070756260448201527f696320737570706c7900000000000000000000000000000000000000000000006064820152608401610996565b6003811115611cfd5760405162461bcd60e51b815260206004820152602c60248201527f596f752063616e206d696e7420757020746f20332041766172696b732070657260448201527f207472616e73616374696f6e00000000000000000000000000000000000000006064820152608401610996565b336000908152600c6020526040902054600590611d1b9083906135a1565b1115611d755760405162461bcd60e51b8152602060048201526024808201527f596f752063616e206e6f74206d696e742065786365656473206d6178696d756d6044820152630813919560e21b6064820152608401610996565b34611d888267011c37937e0800006135cd565b1115611dd65760405162461bcd60e51b815260206004820152601560248201527f496e73756666696369656e74204554482073656e7400000000000000000000006044820152606401610996565b601654611de390426135a1565b336000908152600d60205260408120919091555b81811015611e535760148054906000611e0f8361366a565b9091555050336000908152600c60205260408120805491611e2f8361366a565b9190505550611e4133610e4260085490565b80611e4b8161366a565b915050611df7565b5050565b6060600e8054610a7a9061362f565b600a546001600160a01b03163314611ec05760405162461bcd60e51b815260206004820181905260248201527f4f776e61626c653a2063616c6c6572206973206e6f7420746865206f776e65726044820152606401610996565b6001600160a01b038116611f3c5760405162461bcd60e51b815260206004820152602660248201527f4f776e61626c653a206e6577206f776e657220697320746865207a65726f206160448201527f64647265737300000000000000000000000000000000000000000000000000006064820152608401610996565b611068816123e9565b60006001600160e01b031982167f80ac58cd000000000000000000000000000000000000000000000000000000001480611fa857506001600160e01b031982167f5b5e139f00000000000000000000000000000000000000000000000000000000145b806109ee57507f01ffc9a7000000000000000000000000000000000000000000000000000000006001600160e01b03198316146109ee565b6000818152600460205260409020805473ffffffffffffffffffffffffffffffffffffffff19166001600160a01b0384169081179091558190612022826114fb565b6001600160a01b03167f8c5be1e5ebec7d5bd14f71427d1e84f3dd0314c0f7b2291e5b200ac8c7c3b92560405160405180910390a45050565b611e538282604051806020016040528060008152506125f8565b6000818152600260205260408120546001600160a01b03166120ee5760405162461bcd60e51b815260206004820152602c60248201527f4552433732313a206f70657261746f7220717565727920666f72206e6f6e657860448201526b34b9ba32b73a103a37b5b2b760a11b6064820152608401610996565b60006120f9836114fb565b9050806001600160a01b0316846001600160a01b031614806121345750836001600160a01b031661212984610afd565b6001600160a01b0316145b8061216457506001600160a01b0380821660009081526005602090815260408083209388168352929052205460ff165b949350505050565b826001600160a01b031661217f826114fb565b6001600160a01b0316146121fb5760405162461bcd60e51b815260206004820152602960248201527f4552433732313a207472616e73666572206f6620746f6b656e2074686174206960448201527f73206e6f74206f776e00000000000000000000000000000000000000000000006064820152608401610996565b6001600160a01b0382166122765760405162461bcd60e51b8152602060048201526024808201527f4552433732313a207472616e7366657220746f20746865207a65726f2061646460448201527f72657373000000000000000000000000000000000000000000000000000000006064820152608401610996565b612281838383612676565b61228c600082611fe0565b6001600160a01b03831660009081526003602052604081208054600192906122b59084906135ec565b90915550506001600160a01b03821660009081526003602052604081208054600192906122e39084906135a1565b9091555050600081815260026020526040808220805473ffffffffffffffffffffffffffffffffffffffff19166001600160a01b0386811691821790925591518493918716917fddf252ad1be2c89b69c2b068fc378daa952ba7f163c4a11628f55a4df523b3ef91a4505050565b604080517f46d572d4aba7cc8ab12e37a6c279cfd599f9f5b73872e95b4bff2a237dd40f0e60208201526001600160a01b03841691810191909152606081018290526000906123b8906080016040516020818303038152906040528051906020012061272e565b9392505050565b6012546000906001600160a01b03166123d88484612797565b6001600160a01b0316149392505050565b600a80546001600160a01b0383811673ffffffffffffffffffffffffffffffffffffffff19831681179093556040519116919082907f8be0079c531659141344cd1fd0a4f28419497f9722a3daafe3b4186f6b6457e090600090a35050565b61245384848461216c565b61245f848484846127bb565b6114725760405162461bcd60e51b815260206004820152603260248201527f4552433732313a207472616e7366657220746f206e6f6e20455243373231526560448201527131b2b4bb32b91034b6b83632b6b2b73a32b960711b6064820152608401610996565b60608161250657505060408051808201909152600181527f3000000000000000000000000000000000000000000000000000000000000000602082015290565b8160005b8115612530578061251a8161366a565b91506125299050600a836135b9565b915061250a565b60008167ffffffffffffffff81111561254b5761254b613707565b6040519080825280601f01601f191660200182016040528015612575576020820181803683370190505b5090505b84156121645761258a6001836135ec565b9150612597600a86613685565b6125a29060306135a1565b60f81b8183815181106125b7576125b76136f1565b60200101907effffffffffffffffffffffffffffffffffffffffffffffffffffffffffffff1916908160001a9053506125f1600a866135b9565b9450612579565b6126028383612913565b61260f60008484846127bb565b6109ab5760405162461bcd60e51b815260206004820152603260248201527f4552433732313a207472616e7366657220746f206e6f6e20455243373231526560448201527131b2b4bb32b91034b6b83632b6b2b73a32b960711b6064820152608401610996565b6001600160a01b0383166126d1576126cc81600880546000838152600960205260408120829055600182018355919091527ff3f7a9fe364faab93b216da50a3214154f22a0a2b415b23a84c8169e8b636ee30155565b6126f4565b816001600160a01b0316836001600160a01b0316146126f4576126f48382612a6e565b6001600160a01b03821661270b576109ab81612b0b565b826001600160a01b0316826001600160a01b0316146109ab576109ab8282612bba565b60006109ee61273b612bfe565b836040517f19010000000000000000000000000000000000000000000000000000000000006020820152602281018390526042810182905260009060620160405160208183030381529060405280519060200120905092915050565b60008060006127a68585612cf1565b915091506127b381612d61565b509392505050565b60006001600160a01b0384163b1561290857604051630a85bd0160e11b81526001600160a01b0385169063150b7a02906127ff903390899088908890600401613552565b602060405180830381600087803b15801561281957600080fd5b505af1925050508015612849575060408051601f3d908101601f191682019092526128469181019061337d565b60015b6128ee573d808015612877576040519150601f19603f3d011682016040523d82523d6000602084013e61287c565b606091505b5080516128e65760405162461bcd60e51b815260206004820152603260248201527f4552433732313a207472616e7366657220746f206e6f6e20455243373231526560448201527131b2b4bb32b91034b6b83632b6b2b73a32b960711b6064820152608401610996565b805181602001fd5b6001600160e01b031916630a85bd0160e11b149050612164565b506001949350505050565b6001600160a01b0382166129695760405162461bcd60e51b815260206004820181905260248201527f4552433732313a206d696e7420746f20746865207a65726f20616464726573736044820152606401610996565b6000818152600260205260409020546001600160a01b0316156129ce5760405162461bcd60e51b815260206004820152601c60248201527f4552433732313a20746f6b656e20616c7265616479206d696e746564000000006044820152606401610996565b6129da60008383612676565b6001600160a01b0382166000908152600360205260408120805460019290612a039084906135a1565b9091555050600081815260026020526040808220805473ffffffffffffffffffffffffffffffffffffffff19166001600160a01b03861690811790915590518392907fddf252ad1be2c89b69c2b068fc378daa952ba7f163c4a11628f55a4df523b3ef908290a45050565b60006001612a7b84611586565b612a8591906135ec565b600083815260076020526040902054909150808214612ad8576001600160a01b03841660009081526006602090815260408083208584528252808320548484528184208190558352600790915290208190555b5060009182526007602090815260408084208490556001600160a01b039094168352600681528383209183525290812055565b600854600090612b1d906001906135ec565b60008381526009602052604081205460088054939450909284908110612b4557612b456136f1565b906000526020600020015490508060088381548110612b6657612b666136f1565b6000918252602080832090910192909255828152600990915260408082208490558582528120556008805480612b9e57612b9e6136db565b6001900381819060005260206000200160009055905550505050565b6000612bc583611586565b6001600160a01b039093166000908152600660209081526040808320868452825280832085905593825260079052919091209190915550565b60007f0000000000000000000000000000000000000000000000000000000000000000461415612c4d57507f000000000000000000000000000000000000000000000000000000000000000090565b50604080517f00000000000000000000000000000000000000000000000000000000000000006020808301919091527f0000000000000000000000000000000000000000000000000000000000000000828401527f000000000000000000000000000000000000000000000000000000000000000060608301524660808301523060a0808401919091528351808403909101815260c0909201909252805191012090565b600080825160411415612d285760208301516040840151606085015160001a612d1c87828585612f1c565b94509450505050612d5a565b825160401415612d525760208301516040840151612d47868383613009565b935093505050612d5a565b506000905060025b9250929050565b6000816004811115612d7557612d756136c5565b1415612d7e5750565b6001816004811115612d9257612d926136c5565b1415612de05760405162461bcd60e51b815260206004820152601860248201527f45434453413a20696e76616c6964207369676e617475726500000000000000006044820152606401610996565b6002816004811115612df457612df46136c5565b1415612e425760405162461bcd60e51b815260206004820152601f60248201527f45434453413a20696e76616c6964207369676e6174757265206c656e677468006044820152606401610996565b6003816004811115612e5657612e566136c5565b1415612eaf5760405162461bcd60e51b815260206004820152602260248201527f45434453413a20696e76616c6964207369676e6174757265202773272076616c604482015261756560f01b6064820152608401610996565b6004816004811115612ec357612ec36136c5565b14156110685760405162461bcd60e51b815260206004820152602260248201527f45434453413a20696e76616c6964207369676e6174757265202776272076616c604482015261756560f01b6064820152608401610996565b6000807f7fffffffffffffffffffffffffffffff5d576e7357a4501ddfe92f46681b20a0831115612f535750600090506003613000565b8460ff16601b14158015612f6b57508460ff16601c14155b15612f7c5750600090506004613000565b6040805160008082526020820180845289905260ff881692820192909252606081018690526080810185905260019060a0016020604051602081039080840390855afa158015612fd0573d6000803e3d6000fd5b5050604051601f1901519150506001600160a01b038116612ff957600060019250925050613000565b9150600090505b94509492505050565b6000807f7fffffffffffffffffffffffffffffffffffffffffffffffffffffffffffffff831660ff84901c601b0161304387828885612f1c565b935093505050935093915050565b82805461305d9061362f565b90600052602060002090601f01602090048101928261307f57600085556130c5565b82601f106130985782800160ff198235161785556130c5565b828001600101855582156130c5579182015b828111156130c55782358255916020019190600101906130aa565b506130d19291506130d5565b5090565b5b808211156130d157600081556001016130d6565b80356001600160a01b038116811461310157600080fd5b919050565b600082601f83011261311757600080fd5b813567ffffffffffffffff8082111561313257613132613707565b604051601f8301601f19908116603f0116810190828211818310171561315a5761315a613707565b8160405283815286602085880101111561317357600080fd5b836020870160208301376000602085830101528094505050505092915050565b6000602082840312156131a557600080fd5b6123b8826130ea565b600080604083850312156131c157600080fd5b6131ca836130ea565b91506131d8602084016130ea565b90509250929050565b6000806000606084860312156131f657600080fd5b6131ff846130ea565b925061320d602085016130ea565b9150604084013590509250925092565b6000806000806080858703121561323357600080fd5b61323c856130ea565b935061324a602086016130ea565b925060408501359150606085013567ffffffffffffffff81111561326d57600080fd5b61327987828801613106565b91505092959194509250565b6000806040838503121561329857600080fd5b6132a1836130ea565b9150602083013580151581146132b657600080fd5b809150509250929050565b600080604083850312156132d457600080fd5b6132dd836130ea565b946020939093013593505050565b600080602083850312156132fe57600080fd5b823567ffffffffffffffff8082111561331657600080fd5b818501915085601f83011261332a57600080fd5b81358181111561333957600080fd5b8660208260051b850101111561334e57600080fd5b60209290920196919550909350505050565b60006020828403121561337257600080fd5b81356123b88161371d565b60006020828403121561338f57600080fd5b81516123b88161371d565b600080602083850312156133ad57600080fd5b823567ffffffffffffffff808211156133c557600080fd5b818501915085601f8301126133d957600080fd5b8135818111156133e857600080fd5b86602082850101111561334e57600080fd5b60006020828403121561340c57600080fd5b5035919050565b60008060006060848603121561342857600080fd5b8335925060208401359150604084013567ffffffffffffffff81111561344d57600080fd5b61345986828701613106565b9150509250925092565b6000815180845261347b816020860160208601613603565b601f01601f19169290920160200192915050565b600081516134a1818560208601613603565b9290920192915050565b600080845481600182811c9150808316806134c757607f831692505b60208084108214156134e757634e487b7160e01b86526022600452602486fd5b8180156134fb576001811461350c57613539565b60ff19861689528489019650613539565b60008b81526020902060005b868110156135315781548b820152908501908301613518565b505084890196505b505050505050613549818561348f565b95945050505050565b60006001600160a01b038087168352808616602084015250836040830152608060608301526135846080830184613463565b9695505050505050565b6020815260006123b86020830184613463565b600082198211156135b4576135b4613699565b500190565b6000826135c8576135c86136af565b500490565b60008160001904831182151516156135e7576135e7613699565b500290565b6000828210156135fe576135fe613699565b500390565b60005b8381101561361e578181015183820152602001613606565b838111156114725750506000910152565b600181811c9082168061364357607f821691505b6020821081141561366457634e487b7160e01b600052602260045260246000fd5b50919050565b600060001982141561367e5761367e613699565b5060010190565b600082613694576136946136af565b500690565b634e487b7160e01b600052601160045260246000fd5b634e487b7160e01b600052601260045260246000fd5b634e487b7160e01b600052602160045260246000fd5b634e487b7160e01b600052603160045260246000fd5b634e487b7160e01b600052603260045260246000fd5b634e487b7160e01b600052604160045260246000fd5b6001600160e01b03198116811461106857600080fdfea264697066735822122020fd745fda8dbd23d8a109670f9011038407ca2af9fde2cf1b4724d275c1217f64736f6c63430008070033",
  "devdoc": {
    "kind": "dev",
    "methods": {
      "approve(address,uint256)": {
        "details": "See {IERC721-approve}."
      },
      "balanceOf(address)": {
        "details": "See {IERC721-balanceOf}."
      },
      "getApproved(uint256)": {
        "details": "See {IERC721-getApproved}."
      },
      "isApprovedForAll(address,address)": {
        "details": "See {IERC721-isApprovedForAll}."
      },
      "name()": {
        "details": "See {IERC721Metadata-name}."
      },
      "owner()": {
        "details": "Returns the address of the current owner."
      },
      "ownerOf(uint256)": {
        "details": "See {IERC721-ownerOf}."
      },
      "renounceOwnership()": {
        "details": "Leaves the contract without owner. It will not be possible to call `onlyOwner` functions anymore. Can only be called by the current owner. NOTE: Renouncing ownership will leave the contract without an owner, thereby removing any functionality that is only available to the owner."
      },
      "safeTransferFrom(address,address,uint256)": {
        "details": "See {IERC721-safeTransferFrom}."
      },
      "safeTransferFrom(address,address,uint256,bytes)": {
        "details": "See {IERC721-safeTransferFrom}."
      },
      "setApprovalForAll(address,bool)": {
        "details": "See {IERC721-setApprovalForAll}."
      },
      "supportsInterface(bytes4)": {
        "details": "See {IERC165-supportsInterface}."
      },
      "symbol()": {
        "details": "See {IERC721Metadata-symbol}."
      },
      "tokenByIndex(uint256)": {
        "details": "See {IERC721Enumerable-tokenByIndex}."
      },
      "tokenOfOwnerByIndex(address,uint256)": {
        "details": "See {IERC721Enumerable-tokenOfOwnerByIndex}."
      },
      "tokenURI(uint256)": {
        "details": "See {IERC721Metadata-tokenURI}."
      },
      "totalSupply()": {
        "details": "See {IERC721Enumerable-totalSupply}."
      },
      "transferFrom(address,address,uint256)": {
        "details": "See {IERC721-transferFrom}."
      },
      "transferOwnership(address)": {
        "details": "Transfers ownership of the contract to a new account (`newOwner`). Can only be called by the current owner."
      }
    },
    "version": 1
  },
  "userdoc": {
    "kind": "user",
    "methods": {},
    "version": 1
  },
  "storageLayout": {
    "storage": [
      {
        "astId": 132,
        "contract": "contracts/AvarikSaga.sol:AvarikSaga",
        "label": "_name",
        "offset": 0,
        "slot": "0",
        "type": "t_string_storage"
      },
      {
        "astId": 134,
        "contract": "contracts/AvarikSaga.sol:AvarikSaga",
        "label": "_symbol",
        "offset": 0,
        "slot": "1",
        "type": "t_string_storage"
      },
      {
        "astId": 138,
        "contract": "contracts/AvarikSaga.sol:AvarikSaga",
        "label": "_owners",
        "offset": 0,
        "slot": "2",
        "type": "t_mapping(t_uint256,t_address)"
      },
      {
        "astId": 142,
        "contract": "contracts/AvarikSaga.sol:AvarikSaga",
        "label": "_balances",
        "offset": 0,
        "slot": "3",
        "type": "t_mapping(t_address,t_uint256)"
      },
      {
        "astId": 146,
        "contract": "contracts/AvarikSaga.sol:AvarikSaga",
        "label": "_tokenApprovals",
        "offset": 0,
        "slot": "4",
        "type": "t_mapping(t_uint256,t_address)"
      },
      {
        "astId": 152,
        "contract": "contracts/AvarikSaga.sol:AvarikSaga",
        "label": "_operatorApprovals",
        "offset": 0,
        "slot": "5",
        "type": "t_mapping(t_address,t_mapping(t_address,t_bool))"
      },
      {
        "astId": 1071,
        "contract": "contracts/AvarikSaga.sol:AvarikSaga",
        "label": "_ownedTokens",
        "offset": 0,
        "slot": "6",
        "type": "t_mapping(t_address,t_mapping(t_uint256,t_uint256))"
      },
      {
        "astId": 1075,
        "contract": "contracts/AvarikSaga.sol:AvarikSaga",
        "label": "_ownedTokensIndex",
        "offset": 0,
        "slot": "7",
        "type": "t_mapping(t_uint256,t_uint256)"
      },
      {
        "astId": 1078,
        "contract": "contracts/AvarikSaga.sol:AvarikSaga",
        "label": "_allTokens",
        "offset": 0,
        "slot": "8",
        "type": "t_array(t_uint256)dyn_storage"
      },
      {
        "astId": 1082,
        "contract": "contracts/AvarikSaga.sol:AvarikSaga",
        "label": "_allTokensIndex",
        "offset": 0,
        "slot": "9",
        "type": "t_mapping(t_uint256,t_uint256)"
      },
      {
        "astId": 7,
        "contract": "contracts/AvarikSaga.sol:AvarikSaga",
        "label": "_owner",
        "offset": 0,
        "slot": "10",
        "type": "t_address"
      },
      {
        "astId": 2567,
        "contract": "contracts/AvarikSaga.sol:AvarikSaga",
        "label": "presalerListPurchases",
        "offset": 0,
        "slot": "11",
        "type": "t_mapping(t_address,t_uint256)"
      },
      {
        "astId": 2571,
        "contract": "contracts/AvarikSaga.sol:AvarikSaga",
        "label": "salerListPurchases",
        "offset": 0,
        "slot": "12",
        "type": "t_mapping(t_address,t_uint256)"
      },
      {
        "astId": 2575,
        "contract": "contracts/AvarikSaga.sol:AvarikSaga",
        "label": "salerLastPurchased",
        "offset": 0,
        "slot": "13",
        "type": "t_mapping(t_address,t_uint256)"
      },
      {
        "astId": 2577,
        "contract": "contracts/AvarikSaga.sol:AvarikSaga",
        "label": "_contractURI",
        "offset": 0,
        "slot": "14",
        "type": "t_string_storage"
      },
      {
        "astId": 2579,
        "contract": "contracts/AvarikSaga.sol:AvarikSaga",
        "label": "_tokenBaseURI",
        "offset": 0,
        "slot": "15",
        "type": "t_string_storage"
      },
      {
        "astId": 2581,
        "contract": "contracts/AvarikSaga.sol:AvarikSaga",
        "label": "_defaultBaseURI",
        "offset": 0,
        "slot": "16",
        "type": "t_string_storage"
      },
      {
        "astId": 2584,
        "contract": "contracts/AvarikSaga.sol:AvarikSaga",
        "label": "_artistAddress",
        "offset": 0,
        "slot": "17",
        "type": "t_address"
      },
      {
        "astId": 2586,
        "contract": "contracts/AvarikSaga.sol:AvarikSaga",
        "label": "whitelistSigner",
        "offset": 0,
        "slot": "18",
        "type": "t_address"
      },
      {
        "astId": 2588,
        "contract": "contracts/AvarikSaga.sol:AvarikSaga",
        "label": "giftedAmount",
        "offset": 0,
        "slot": "19",
        "type": "t_uint256"
      },
      {
        "astId": 2590,
        "contract": "contracts/AvarikSaga.sol:AvarikSaga",
        "label": "publicAmountMinted",
        "offset": 0,
        "slot": "20",
        "type": "t_uint256"
      },
      {
        "astId": 2592,
        "contract": "contracts/AvarikSaga.sol:AvarikSaga",
        "label": "privateAmountMinted",
        "offset": 0,
        "slot": "21",
        "type": "t_uint256"
      },
      {
        "astId": 2595,
        "contract": "contracts/AvarikSaga.sol:AvarikSaga",
        "label": "PUBLIC_BUY_FREEZE_TIME",
        "offset": 0,
        "slot": "22",
        "type": "t_uint256"
      },
      {
        "astId": 2597,
        "contract": "contracts/AvarikSaga.sol:AvarikSaga",
        "label": "presaleLive",
        "offset": 0,
        "slot": "23",
        "type": "t_bool"
      },
      {
        "astId": 2599,
        "contract": "contracts/AvarikSaga.sol:AvarikSaga",
        "label": "saleLive",
        "offset": 1,
        "slot": "23",
        "type": "t_bool"
      }
    ],
    "types": {
      "t_address": {
        "encoding": "inplace",
        "label": "address",
        "numberOfBytes": "20"
      },
      "t_array(t_uint256)dyn_storage": {
        "base": "t_uint256",
        "encoding": "dynamic_array",
        "label": "uint256[]",
        "numberOfBytes": "32"
      },
      "t_bool": {
        "encoding": "inplace",
        "label": "bool",
        "numberOfBytes": "1"
      },
      "t_mapping(t_address,t_bool)": {
        "encoding": "mapping",
        "key": "t_address",
        "label": "mapping(address => bool)",
        "numberOfBytes": "32",
        "value": "t_bool"
      },
      "t_mapping(t_address,t_mapping(t_address,t_bool))": {
        "encoding": "mapping",
        "key": "t_address",
        "label": "mapping(address => mapping(address => bool))",
        "numberOfBytes": "32",
        "value": "t_mapping(t_address,t_bool)"
      },
      "t_mapping(t_address,t_mapping(t_uint256,t_uint256))": {
        "encoding": "mapping",
        "key": "t_address",
        "label": "mapping(address => mapping(uint256 => uint256))",
        "numberOfBytes": "32",
        "value": "t_mapping(t_uint256,t_uint256)"
      },
      "t_mapping(t_address,t_uint256)": {
        "encoding": "mapping",
        "key": "t_address",
        "label": "mapping(address => uint256)",
        "numberOfBytes": "32",
        "value": "t_uint256"
      },
      "t_mapping(t_uint256,t_address)": {
        "encoding": "mapping",
        "key": "t_uint256",
        "label": "mapping(uint256 => address)",
        "numberOfBytes": "32",
        "value": "t_address"
      },
      "t_mapping(t_uint256,t_uint256)": {
        "encoding": "mapping",
        "key": "t_uint256",
        "label": "mapping(uint256 => uint256)",
        "numberOfBytes": "32",
        "value": "t_uint256"
      },
      "t_string_storage": {
        "encoding": "bytes",
        "label": "string",
        "numberOfBytes": "32"
      },
      "t_uint256": {
        "encoding": "inplace",
        "label": "uint256",
        "numberOfBytes": "32"
      }
    }
  }
}