{
  "address": "0x7416F491fE8Ca3a67a7aF9A4280E66EbC3196abF",
  "abi": [
    {
      "inputs": [
        {
          "internalType": "string",
          "name": "tokenBaseURI_",
          "type": "string"
        }
      ],
      "stateMutability": "nonpayable",
      "type": "constructor"
    },
    {
      "anonymous": false,
      "inputs": [
        {
          "indexed": true,
          "internalType": "address",
          "name": "owner",
          "type": "address"
        },
        {
          "indexed": true,
          "internalType": "address",
          "name": "approved",
          "type": "address"
        },
        {
          "indexed": true,
          "internalType": "uint256",
          "name": "tokenId",
          "type": "uint256"
        }
      ],
      "name": "Approval",
      "type": "event"
    },
    {
      "anonymous": false,
      "inputs": [
        {
          "indexed": true,
          "internalType": "address",
          "name": "owner",
          "type": "address"
        },
        {
          "indexed": true,
          "internalType": "address",
          "name": "operator",
          "type": "address"
        },
        {
          "indexed": false,
          "internalType": "bool",
          "name": "approved",
          "type": "bool"
        }
      ],
      "name": "ApprovalForAll",
      "type": "event"
    },
    {
      "anonymous": false,
      "inputs": [
        {
          "indexed": true,
          "internalType": "address",
          "name": "previousOwner",
          "type": "address"
        },
        {
          "indexed": true,
          "internalType": "address",
          "name": "newOwner",
          "type": "address"
        }
      ],
      "name": "OwnershipTransferred",
      "type": "event"
    },
    {
      "anonymous": false,
      "inputs": [
        {
          "indexed": true,
          "internalType": "address",
          "name": "from",
          "type": "address"
        },
        {
          "indexed": true,
          "internalType": "address",
          "name": "to",
          "type": "address"
        },
        {
          "indexed": true,
          "internalType": "uint256",
          "name": "tokenId",
          "type": "uint256"
        }
      ],
      "name": "Transfer",
      "type": "event"
    },
    {
      "inputs": [],
      "name": "AVARIK_GIFT",
      "outputs": [
        {
          "internalType": "uint256",
          "name": "",
          "type": "uint256"
        }
      ],
      "stateMutability": "view",
      "type": "function"
    },
    {
      "inputs": [],
      "name": "AVARIK_MAX",
      "outputs": [
        {
          "internalType": "uint256",
          "name": "",
          "type": "uint256"
        }
      ],
      "stateMutability": "view",
      "type": "function"
    },
    {
      "inputs": [],
      "name": "AVARIK_PER_MINT",
      "outputs": [
        {
          "internalType": "uint256",
          "name": "",
          "type": "uint256"
        }
      ],
      "stateMutability": "view",
      "type": "function"
    },
    {
      "inputs": [],
      "name": "AVARIK_PRICE",
      "outputs": [
        {
          "internalType": "uint256",
          "name": "",
          "type": "uint256"
        }
      ],
      "stateMutability": "view",
      "type": "function"
    },
    {
      "inputs": [],
      "name": "AVARIK_PRIVATE",
      "outputs": [
        {
          "internalType": "uint256",
          "name": "",
          "type": "uint256"
        }
      ],
      "stateMutability": "view",
      "type": "function"
    },
    {
      "inputs": [],
      "name": "AVARIK_PUBLIC",
      "outputs": [
        {
          "internalType": "uint256",
          "name": "",
          "type": "uint256"
        }
      ],
      "stateMutability": "view",
      "type": "function"
    },
    {
      "inputs": [],
      "name": "AVARIK_PUBLIC_PER_SALER",
      "outputs": [
        {
          "internalType": "uint256",
          "name": "",
          "type": "uint256"
        }
      ],
      "stateMutability": "view",
      "type": "function"
    },
    {
      "inputs": [],
      "name": "PUBLIC_BUY_FREEZE_TIME",
      "outputs": [
        {
          "internalType": "uint256",
          "name": "",
          "type": "uint256"
        }
      ],
      "stateMutability": "view",
      "type": "function"
    },
    {
      "inputs": [
        {
          "internalType": "address[]",
          "name": "entries",
          "type": "address[]"
        },
        {
          "internalType": "uint256[]",
          "name": "maxAmounts",
          "type": "uint256[]"
        }
      ],
      "name": "addToPresaleList",
      "outputs": [],
      "stateMutability": "nonpayable",
      "type": "function"
    },
    {
      "inputs": [
        {
          "internalType": "address",
          "name": "to",
          "type": "address"
        },
        {
          "internalType": "uint256",
          "name": "tokenId",
          "type": "uint256"
        }
      ],
      "name": "approve",
      "outputs": [],
      "stateMutability": "nonpayable",
      "type": "function"
    },
    {
      "inputs": [
        {
          "internalType": "address",
          "name": "owner",
          "type": "address"
        }
      ],
      "name": "balanceOf",
      "outputs": [
        {
          "internalType": "uint256",
          "name": "",
          "type": "uint256"
        }
      ],
      "stateMutability": "view",
      "type": "function"
    },
    {
      "inputs": [
        {
          "internalType": "uint256",
          "name": "tokenQuantity",
          "type": "uint256"
        }
      ],
      "name": "buy",
      "outputs": [],
      "stateMutability": "payable",
      "type": "function"
    },
    {
      "inputs": [],
      "name": "contractURI",
      "outputs": [
        {
          "internalType": "string",
          "name": "",
          "type": "string"
        }
      ],
      "stateMutability": "view",
      "type": "function"
    },
    {
      "inputs": [
        {
          "internalType": "uint256",
          "name": "tokenId",
          "type": "uint256"
        }
      ],
      "name": "getApproved",
      "outputs": [
        {
          "internalType": "address",
          "name": "",
          "type": "address"
        }
      ],
      "stateMutability": "view",
      "type": "function"
    },
    {
      "inputs": [
        {
          "internalType": "address[]",
          "name": "receivers",
          "type": "address[]"
        }
      ],
      "name": "gift",
      "outputs": [],
      "stateMutability": "nonpayable",
      "type": "function"
    },
    {
      "inputs": [],
      "name": "giftedAmount",
      "outputs": [
        {
          "internalType": "uint256",
          "name": "",
          "type": "uint256"
        }
      ],
      "stateMutability": "view",
      "type": "function"
    },
    {
      "inputs": [
        {
          "internalType": "address",
          "name": "owner",
          "type": "address"
        },
        {
          "internalType": "address",
          "name": "operator",
          "type": "address"
        }
      ],
      "name": "isApprovedForAll",
      "outputs": [
        {
          "internalType": "bool",
          "name": "",
          "type": "bool"
        }
      ],
      "stateMutability": "view",
      "type": "function"
    },
    {
      "inputs": [],
      "name": "isPresaleActive",
      "outputs": [
        {
          "internalType": "bool",
          "name": "",
          "type": "bool"
        }
      ],
      "stateMutability": "view",
      "type": "function"
    },
    {
      "inputs": [
        {
          "internalType": "address",
          "name": "addr",
          "type": "address"
        }
      ],
      "name": "isPresaler",
      "outputs": [
        {
          "internalType": "bool",
          "name": "",
          "type": "bool"
        }
      ],
      "stateMutability": "view",
      "type": "function"
    },
    {
      "inputs": [],
      "name": "isSaleActive",
      "outputs": [
        {
          "internalType": "bool",
          "name": "",
          "type": "bool"
        }
      ],
      "stateMutability": "view",
      "type": "function"
    },
    {
      "inputs": [],
      "name": "name",
      "outputs": [
        {
          "internalType": "string",
          "name": "",
          "type": "string"
        }
      ],
      "stateMutability": "view",
      "type": "function"
    },
    {
      "inputs": [],
      "name": "owner",
      "outputs": [
        {
          "internalType": "address",
          "name": "",
          "type": "address"
        }
      ],
      "stateMutability": "view",
      "type": "function"
    },
    {
      "inputs": [
        {
          "internalType": "uint256",
          "name": "tokenId",
          "type": "uint256"
        }
      ],
      "name": "ownerOf",
      "outputs": [
        {
          "internalType": "address",
          "name": "",
          "type": "address"
        }
      ],
      "stateMutability": "view",
      "type": "function"
    },
    {
      "inputs": [
        {
          "internalType": "uint256",
          "name": "tokenQuantity",
          "type": "uint256"
        }
      ],
      "name": "presaleBuy",
      "outputs": [],
      "stateMutability": "payable",
      "type": "function"
    },
    {
      "inputs": [],
      "name": "presaleLive",
      "outputs": [
        {
          "internalType": "bool",
          "name": "",
          "type": "bool"
        }
      ],
      "stateMutability": "view",
      "type": "function"
    },
    {
      "inputs": [
        {
          "internalType": "address",
          "name": "addr",
          "type": "address"
        }
      ],
      "name": "presalePurchasedCount",
      "outputs": [
        {
          "internalType": "uint256",
          "name": "",
          "type": "uint256"
        }
      ],
      "stateMutability": "view",
      "type": "function"
    },
    {
      "inputs": [
        {
          "internalType": "address",
          "name": "",
          "type": "address"
        }
      ],
      "name": "presalerList",
      "outputs": [
        {
          "internalType": "uint256",
          "name": "",
          "type": "uint256"
        }
      ],
      "stateMutability": "view",
      "type": "function"
    },
    {
      "inputs": [
        {
          "internalType": "address",
          "name": "",
          "type": "address"
        }
      ],
      "name": "presalerListPurchases",
      "outputs": [
        {
          "internalType": "uint256",
          "name": "",
          "type": "uint256"
        }
      ],
      "stateMutability": "view",
      "type": "function"
    },
    {
      "inputs": [],
      "name": "privateAmountMinted",
      "outputs": [
        {
          "internalType": "uint256",
          "name": "",
          "type": "uint256"
        }
      ],
      "stateMutability": "view",
      "type": "function"
    },
    {
      "inputs": [],
      "name": "proof",
      "outputs": [
        {
          "internalType": "string",
          "name": "",
          "type": "string"
        }
      ],
      "stateMutability": "view",
      "type": "function"
    },
    {
      "inputs": [],
      "name": "publicAmountMinted",
      "outputs": [
        {
          "internalType": "uint256",
          "name": "",
          "type": "uint256"
        }
      ],
      "stateMutability": "view",
      "type": "function"
    },
    {
      "inputs": [
        {
          "internalType": "address[]",
          "name": "entries",
          "type": "address[]"
        }
      ],
      "name": "removeFromPresaleList",
      "outputs": [],
      "stateMutability": "nonpayable",
      "type": "function"
    },
    {
      "inputs": [],
      "name": "renounceOwnership",
      "outputs": [],
      "stateMutability": "nonpayable",
      "type": "function"
    },
    {
      "inputs": [
        {
          "internalType": "address",
          "name": "from",
          "type": "address"
        },
        {
          "internalType": "address",
          "name": "to",
          "type": "address"
        },
        {
          "internalType": "uint256",
          "name": "tokenId",
          "type": "uint256"
        }
      ],
      "name": "safeTransferFrom",
      "outputs": [],
      "stateMutability": "nonpayable",
      "type": "function"
    },
    {
      "inputs": [
        {
          "internalType": "address",
          "name": "from",
          "type": "address"
        },
        {
          "internalType": "address",
          "name": "to",
          "type": "address"
        },
        {
          "internalType": "uint256",
          "name": "tokenId",
          "type": "uint256"
        },
        {
          "internalType": "bytes",
          "name": "_data",
          "type": "bytes"
        }
      ],
      "name": "safeTransferFrom",
      "outputs": [],
      "stateMutability": "nonpayable",
      "type": "function"
    },
    {
      "inputs": [],
      "name": "saleLive",
      "outputs": [
        {
          "internalType": "bool",
          "name": "",
          "type": "bool"
        }
      ],
      "stateMutability": "view",
      "type": "function"
    },
    {
      "inputs": [
        {
          "internalType": "address",
          "name": "",
          "type": "address"
        }
      ],
      "name": "salerLastPurchased",
      "outputs": [
        {
          "internalType": "uint256",
          "name": "",
          "type": "uint256"
        }
      ],
      "stateMutability": "view",
      "type": "function"
    },
    {
      "inputs": [
        {
          "internalType": "address",
          "name": "",
          "type": "address"
        }
      ],
      "name": "salerListPurchases",
      "outputs": [
        {
          "internalType": "uint256",
          "name": "",
          "type": "uint256"
        }
      ],
      "stateMutability": "view",
      "type": "function"
    },
    {
      "inputs": [
        {
          "internalType": "address",
          "name": "operator",
          "type": "address"
        },
        {
          "internalType": "bool",
          "name": "approved",
          "type": "bool"
        }
      ],
      "name": "setApprovalForAll",
      "outputs": [],
      "stateMutability": "nonpayable",
      "type": "function"
    },
    {
      "inputs": [
        {
          "internalType": "string",
          "name": "URI",
          "type": "string"
        }
      ],
      "name": "setBaseURI",
      "outputs": [],
      "stateMutability": "nonpayable",
      "type": "function"
    },
    {
      "inputs": [
        {
          "internalType": "string",
          "name": "URI",
          "type": "string"
        }
      ],
      "name": "setContractURI",
      "outputs": [],
      "stateMutability": "nonpayable",
      "type": "function"
    },
    {
      "inputs": [
        {
          "internalType": "string",
          "name": "URI",
          "type": "string"
        }
      ],
      "name": "setDefaultBaseURI",
      "outputs": [],
      "stateMutability": "nonpayable",
      "type": "function"
    },
    {
      "inputs": [
        {
          "internalType": "string",
          "name": "hash",
          "type": "string"
        }
      ],
      "name": "setProvenanceHash",
      "outputs": [],
      "stateMutability": "nonpayable",
      "type": "function"
    },
    {
      "inputs": [
        {
          "internalType": "bytes4",
          "name": "interfaceId",
          "type": "bytes4"
        }
      ],
      "name": "supportsInterface",
      "outputs": [
        {
          "internalType": "bool",
          "name": "",
          "type": "bool"
        }
      ],
      "stateMutability": "view",
      "type": "function"
    },
    {
      "inputs": [],
      "name": "symbol",
      "outputs": [
        {
          "internalType": "string",
          "name": "",
          "type": "string"
        }
      ],
      "stateMutability": "view",
      "type": "function"
    },
    {
      "inputs": [],
      "name": "togglePresaleStatus",
      "outputs": [],
      "stateMutability": "nonpayable",
      "type": "function"
    },
    {
      "inputs": [],
      "name": "toggleSaleStatus",
      "outputs": [],
      "stateMutability": "nonpayable",
      "type": "function"
    },
    {
      "inputs": [
        {
          "internalType": "uint256",
          "name": "index",
          "type": "uint256"
        }
      ],
      "name": "tokenByIndex",
      "outputs": [
        {
          "internalType": "uint256",
          "name": "",
          "type": "uint256"
        }
      ],
      "stateMutability": "view",
      "type": "function"
    },
    {
      "inputs": [
        {
          "internalType": "address",
          "name": "owner",
          "type": "address"
        },
        {
          "internalType": "uint256",
          "name": "index",
          "type": "uint256"
        }
      ],
      "name": "tokenOfOwnerByIndex",
      "outputs": [
        {
          "internalType": "uint256",
          "name": "",
          "type": "uint256"
        }
      ],
      "stateMutability": "view",
      "type": "function"
    },
    {
      "inputs": [
        {
          "internalType": "uint256",
          "name": "tokenId",
          "type": "uint256"
        }
      ],
      "name": "tokenURI",
      "outputs": [
        {
          "internalType": "string",
          "name": "",
          "type": "string"
        }
      ],
      "stateMutability": "view",
      "type": "function"
    },
    {
      "inputs": [],
      "name": "totalSupply",
      "outputs": [
        {
          "internalType": "uint256",
          "name": "",
          "type": "uint256"
        }
      ],
      "stateMutability": "view",
      "type": "function"
    },
    {
      "inputs": [
        {
          "internalType": "address",
          "name": "from",
          "type": "address"
        },
        {
          "internalType": "address",
          "name": "to",
          "type": "address"
        },
        {
          "internalType": "uint256",
          "name": "tokenId",
          "type": "uint256"
        }
      ],
      "name": "transferFrom",
      "outputs": [],
      "stateMutability": "nonpayable",
      "type": "function"
    },
    {
      "inputs": [
        {
          "internalType": "address",
          "name": "newOwner",
          "type": "address"
        }
      ],
      "name": "transferOwnership",
      "outputs": [],
      "stateMutability": "nonpayable",
      "type": "function"
    },
    {
      "inputs": [],
      "name": "withdraw",
      "outputs": [],
      "stateMutability": "nonpayable",
      "type": "function"
    }
  ],
  "transactionHash": "0x2d59b958b9e64865b0b3d1f3461c4413f43be75d00522b10cbf6414174ad0e9f",
  "args": [
    "https://ipfs.io/ipfs/QmVU8i23TV6MXvt3cuu9voRZVHS9SvkhW7rgsNVUJGBEuM/"
  ],
  "solcInputHash": "f4a271735dee6e3901108424e828dfad",
  "bytecode": "0x6080604052601280546001600160a01b03191673ea68212b0450a929b14726b90550933bc12ff8131790556102586017553480156200003d57600080fd5b506040516200387f3803806200387f8339810160408190526200006091620001fd565b604080518082018252600b81526a41766172696b205361676160a81b60208083019182528351808501909452600684526541564152494b60d01b908401528151919291620000b19160009162000157565b508051620000c790600190602084019062000157565b505050620000e4620000de6200010160201b60201c565b62000105565b8051620000f990601090602084019062000157565b50506200032c565b3390565b600a80546001600160a01b038381166001600160a01b0319831681179093556040519116919082907f8be0079c531659141344cd1fd0a4f28419497f9722a3daafe3b4186f6b6457e090600090a35050565b8280546200016590620002d9565b90600052602060002090601f016020900481019282620001895760008555620001d4565b82601f10620001a457805160ff1916838001178555620001d4565b82800160010185558215620001d4579182015b82811115620001d4578251825591602001919060010190620001b7565b50620001e2929150620001e6565b5090565b5b80821115620001e25760008155600101620001e7565b600060208083850312156200021157600080fd5b82516001600160401b03808211156200022957600080fd5b818501915085601f8301126200023e57600080fd5b81518181111562000253576200025362000316565b604051601f8201601f19908116603f011681019083821181831017156200027e576200027e62000316565b8160405282815288868487010111156200029757600080fd5b600093505b82841015620002bb57848401860151818501870152928501926200029c565b82841115620002cd5760008684830101525b98975050505050505050565b600181811c90821680620002ee57607f821691505b602082108114156200031057634e487b7160e01b600052602260045260246000fd5b50919050565b634e487b7160e01b600052604160045260246000fd5b613543806200033c6000396000f3fe6080604052600436106103555760003560e01c806370a08231116101bb578063ab0923b7116100f7578063e051ce9711610095578063e8a3d4851161006f578063e8a3d4851461095f578063e985e9c514610974578063f2fde38b146109bd578063faf924cf146109dd57600080fd5b8063e051ce9714610916578063e081b7811461092b578063e44c6a9a1461094a57600080fd5b8063b88d4fde116100d1578063b88d4fde14610896578063c174c1e9146108b6578063c87b56dd146108e3578063d96a094a1461090357600080fd5b8063ab0923b714610844578063acdea1181461085a578063b179e0601461087657600080fd5b8063938e3d7b116101645780639bf803161161013e5780639bf80316146107925780639cf2e8d6146107bf5780639e273b2f146107ec578063a22cb4651461082457600080fd5b8063938e3d7b14610747578063940f1ada1461076757806395d89b411461077d57600080fd5b8063815f7bbd11610195578063815f7bbd146106fc57806383a9e0491461070f5780638da5cb5b1461072957600080fd5b806370a08231146106b2578063715018a6146106d25780637bffb4ce146106e757600080fd5b80632f745c59116102955780635663c108116102335780635e3910901161020d5780635e3910901461064457806360d938dc146106645780636352211e1461067c578063694db1371461069c57600080fd5b80635663c108146105e357806359a12ad5146105f85780635ce7af1f1461060e57600080fd5b80634eeeb14f1161026f5780634eeeb14f146105705780634f6ccce71461058657806355f804b3146105a6578063564566a8146105c657600080fd5b80632f745c591461051b5780633ccfd60b1461053b57806342842e0e1461055057600080fd5b8063095ea7b31161030257806318160ddd116102dc57806318160ddd146104bb57806318e06839146104d05780631b57190e146104e557806323b872dd146104fb57600080fd5b8063095ea7b31461045b578063109695231461047b578063163e1e611461049b57600080fd5b806305af57321161033357806305af5732146103c657806306fdde0314610401578063081812fc1461042357600080fd5b806301e669721461035a57806301ffc9a71461037c578063049c5c49146103b1575b600080fd5b34801561036657600080fd5b5061037a6103753660046131a8565b6109f2565b005b34801561038857600080fd5b5061039c61039736600461316e565b610a50565b60405190151581526020015b60405180910390f35b3480156103bd57600080fd5b5061037a610a94565b3480156103d257600080fd5b506103f36103e1366004612eed565b600d6020526000908152604090205481565b6040519081526020016103a8565b34801561040d57600080fd5b50610416610af9565b6040516103a8919061335e565b34801561042f57600080fd5b5061044361043e36600461321a565b610b8b565b6040516001600160a01b0390911681526020016103a8565b34801561046757600080fd5b5061037a610476366004613096565b610c20565b34801561048757600080fd5b5061037a6104963660046131a8565b610d4d565b3480156104a757600080fd5b5061037a6104b63660046130c0565b610da1565b3480156104c757600080fd5b506008546103f3565b3480156104dc57600080fd5b506103f3605881565b3480156104f157600080fd5b506103f360145481565b34801561050757600080fd5b5061037a610516366004612f42565b610f34565b34801561052757600080fd5b506103f3610536366004613096565b610fbb565b34801561054757600080fd5b5061037a611063565b34801561055c57600080fd5b5061037a61056b366004612f42565b611129565b34801561057c57600080fd5b506103f3611f4081565b34801561059257600080fd5b506103f36105a136600461321a565b611144565b3480156105b257600080fd5b5061037a6105c13660046131a8565b6111e8565b3480156105d257600080fd5b50601854610100900460ff1661039c565b3480156105ef57600080fd5b506103f361123c565b34801561060457600080fd5b506103f360165481565b34801561061a57600080fd5b506103f3610629366004612eed565b6001600160a01b03166000908152600c602052604090205490565b34801561065057600080fd5b5061037a61065f366004613102565b611259565b34801561067057600080fd5b5060185460ff1661039c565b34801561068857600080fd5b5061044361069736600461321a565b6113bd565b3480156106a857600080fd5b506103f360175481565b3480156106be57600080fd5b506103f36106cd366004612eed565b611448565b3480156106de57600080fd5b5061037a6114e2565b3480156106f357600080fd5b5061037a611536565b61037a61070a36600461321a565b611592565b34801561071b57600080fd5b5060185461039c9060ff1681565b34801561073557600080fd5b50600a546001600160a01b0316610443565b34801561075357600080fd5b5061037a6107623660046131a8565b6118ae565b34801561077357600080fd5b506103f360155481565b34801561078957600080fd5b50610416611902565b34801561079e57600080fd5b506103f36107ad366004612eed565b600c6020526000908152604090205481565b3480156107cb57600080fd5b506103f36107da366004612eed565b600b6020526000908152604090205481565b3480156107f857600080fd5b5061039c610807366004612eed565b6001600160a01b03166000908152600b6020526040902054151590565b34801561083057600080fd5b5061037a61083f36600461305a565b611911565b34801561085057600080fd5b506103f361032081565b34801561086657600080fd5b506103f367011c37937e08000081565b34801561088257600080fd5b5061037a6108913660046130c0565b6119d6565b3480156108a257600080fd5b5061037a6108b1366004612f7e565b611ac3565b3480156108c257600080fd5b506103f36108d1366004612eed565b600e6020526000908152604090205481565b3480156108ef57600080fd5b506104166108fe36600461321a565b611b51565b61037a61091136600461321a565b611c8f565b34801561092257600080fd5b506103f3600581565b34801561093757600080fd5b5060185461039c90610100900460ff1681565b34801561095657600080fd5b506103f3600381565b34801561096b57600080fd5b506104166120ee565b34801561098057600080fd5b5061039c61098f366004612f0f565b6001600160a01b03918216600090815260056020908152604080832093909416825291909152205460ff1690565b3480156109c957600080fd5b5061037a6109d8366004612eed565b6120fd565b3480156109e957600080fd5b506104166121ca565b600a546001600160a01b03163314610a3f5760405162461bcd60e51b815260206004820181905260248201526000805160206134ee83398151915260448201526064015b60405180910390fd5b610a4b60118383612dec565b505050565b60006001600160e01b031982167f780e9d63000000000000000000000000000000000000000000000000000000001480610a8e5750610a8e82612258565b92915050565b600a546001600160a01b03163314610adc5760405162461bcd60e51b815260206004820181905260248201526000805160206134ee8339815191526044820152606401610a36565b6018805461ff001981166101009182900460ff1615909102179055565b606060008054610b08906133ff565b80601f0160208091040260200160405190810160405280929190818152602001828054610b34906133ff565b8015610b815780601f10610b5657610100808354040283529160200191610b81565b820191906000526020600020905b815481529060010190602001808311610b6457829003601f168201915b5050505050905090565b6000818152600260205260408120546001600160a01b0316610c045760405162461bcd60e51b815260206004820152602c60248201527f4552433732313a20617070726f76656420717565727920666f72206e6f6e657860448201526b34b9ba32b73a103a37b5b2b760a11b6064820152608401610a36565b506000908152600460205260409020546001600160a01b031690565b6000610c2b826113bd565b9050806001600160a01b0316836001600160a01b03161415610cb55760405162461bcd60e51b815260206004820152602160248201527f4552433732313a20617070726f76616c20746f2063757272656e74206f776e6560448201527f72000000000000000000000000000000000000000000000000000000000000006064820152608401610a36565b336001600160a01b0382161480610cd15750610cd1813361098f565b610d435760405162461bcd60e51b815260206004820152603860248201527f4552433732313a20617070726f76652063616c6c6572206973206e6f74206f7760448201527f6e6572206e6f7220617070726f76656420666f7220616c6c00000000000000006064820152608401610a36565b610a4b83836122f3565b600a546001600160a01b03163314610d955760405162461bcd60e51b815260206004820181905260248201526000805160206134ee8339815191526044820152606401610a36565b610a4b60138383612dec565b600a546001600160a01b03163314610de95760405162461bcd60e51b815260206004820181905260248201526000805160206134ee8339815191526044820152606401610a36565b610320610df9611f406058613371565b610e039190613371565b81610e0d60085490565b610e179190613371565b1115610e655760405162461bcd60e51b815260206004820152600860248201527f4d41585f4d494e540000000000000000000000000000000000000000000000006044820152606401610a36565b601454605890610e76908390613371565b1115610ec45760405162461bcd60e51b815260206004820152600b60248201527f47494654535f454d5054590000000000000000000000000000000000000000006044820152606401610a36565b60005b81811015610a4b5760148054906000610edf8361343a565b9190505550610f22838383818110610ef957610ef96134ab565b9050602002016020810190610f0e9190612eed565b6008545b610f1d906001613371565b61236e565b80610f2c8161343a565b915050610ec7565b610f3e3382612388565b610fb05760405162461bcd60e51b815260206004820152603160248201527f4552433732313a207472616e736665722063616c6c6572206973206e6f74206f60448201527f776e6572206e6f7220617070726f7665640000000000000000000000000000006064820152608401610a36565b610a4b83838361247f565b6000610fc683611448565b821061103a5760405162461bcd60e51b815260206004820152602b60248201527f455243373231456e756d657261626c653a206f776e657220696e646578206f7560448201527f74206f6620626f756e64730000000000000000000000000000000000000000006064820152608401610a36565b506001600160a01b03919091166000908152600660209081526040808320938352929052205490565b600a546001600160a01b031633146110ab5760405162461bcd60e51b815260206004820181905260248201526000805160206134ee8339815191526044820152606401610a36565b6012546001600160a01b03166108fc60056110c747600261339d565b6110d19190613389565b6040518115909202916000818181858888f193505050501580156110f9573d6000803e3d6000fd5b5060405133904780156108fc02916000818181858888f19350505050158015611126573d6000803e3d6000fd5b50565b610a4b83838360405180602001604052806000815250611ac3565b600061114f60085490565b82106111c35760405162461bcd60e51b815260206004820152602c60248201527f455243373231456e756d657261626c653a20676c6f62616c20696e646578206f60448201527f7574206f6620626f756e647300000000000000000000000000000000000000006064820152608401610a36565b600882815481106111d6576111d66134ab565b90600052602060002001549050919050565b600a546001600160a01b031633146112305760405162461bcd60e51b815260206004820181905260248201526000805160206134ee8339815191526044820152606401610a36565b610a4b60108383612dec565b61032061124c611f406058613371565b6112569190613371565b81565b600a546001600160a01b031633146112a15760405162461bcd60e51b815260206004820181905260248201526000805160206134ee8339815191526044820152606401610a36565b8281146112f05760405162461bcd60e51b815260206004820152600e60248201527f444946464552454e545f53495a450000000000000000000000000000000000006044820152606401610a36565b60005b838110156113b657600085858381811061130f5761130f6134ab565b90506020020160208101906113249190612eed565b90506001600160a01b03811661136b5760405162461bcd60e51b815260206004820152600c60248201526b4e554c4c5f4144445245535360a01b6044820152606401610a36565b83838381811061137d5761137d6134ab565b6001600160a01b039093166000908152600b602090815260409091209302919091013590915550806113ae8161343a565b9150506112f3565b5050505050565b6000818152600260205260408120546001600160a01b031680610a8e5760405162461bcd60e51b815260206004820152602960248201527f4552433732313a206f776e657220717565727920666f72206e6f6e657869737460448201527f656e7420746f6b656e00000000000000000000000000000000000000000000006064820152608401610a36565b60006001600160a01b0382166114c65760405162461bcd60e51b815260206004820152602a60248201527f4552433732313a2062616c616e636520717565727920666f7220746865207a6560448201527f726f2061646472657373000000000000000000000000000000000000000000006064820152608401610a36565b506001600160a01b031660009081526003602052604090205490565b600a546001600160a01b0316331461152a5760405162461bcd60e51b815260206004820181905260248201526000805160206134ee8339815191526044820152606401610a36565b6115346000612664565b565b600a546001600160a01b0316331461157e5760405162461bcd60e51b815260206004820181905260248201526000805160206134ee8339815191526044820152606401610a36565b6018805460ff19811660ff90911615179055565b601854610100900460ff161580156115ac575060185460ff165b6115f85760405162461bcd60e51b815260206004820152601560248201527f5468652070726573616c6520697320636c6f73656400000000000000000000006044820152606401610a36565b336000908152600b602052604090205461167a5760405162461bcd60e51b815260206004820152602560248201527f596f7520617265206e6f74207175616c696669656420666f722074686520707260448201527f6573616c650000000000000000000000000000000000000000000000000000006064820152608401610a36565b61032061168a611f406058613371565b6116949190613371565b600854106116e45760405162461bcd60e51b815260206004820152601660248201527f416c6c2041766172696b7320617265206d696e746564000000000000000000006044820152606401610a36565b610320816016546116f59190613371565b11156117695760405162461bcd60e51b815260206004820152602b60248201527f4d696e74696e6720776f756c6420657863656564207468652070726573616c6560448201527f20616c6c6f636174696f6e0000000000000000000000000000000000000000006064820152608401610a36565b336000908152600b6020908152604080832054600c90925290912054611790908390613371565b11156117ea5760405162461bcd60e51b8152602060048201526024808201527f596f752063616e206e6f74206d696e742065786365656473206d6178696d756d6044820152630813919560e21b6064820152608401610a36565b346117fd8267011c37937e08000061339d565b111561184b5760405162461bcd60e51b815260206004820152601560248201527f496e73756666696369656e74204554482073656e7400000000000000000000006044820152606401610a36565b60005b818110156118aa57601680549060006118668361343a565b9091555050336000908152600c602052604081208054916118868361343a565b919050555061189833610f1260085490565b806118a28161343a565b91505061184e565b5050565b600a546001600160a01b031633146118f65760405162461bcd60e51b815260206004820181905260248201526000805160206134ee8339815191526044820152606401610a36565b610a4b600f8383612dec565b606060018054610b08906133ff565b6001600160a01b03821633141561196a5760405162461bcd60e51b815260206004820152601960248201527f4552433732313a20617070726f766520746f2063616c6c6572000000000000006044820152606401610a36565b3360008181526005602090815260408083206001600160a01b03871680855290835292819020805460ff191686151590811790915590519081529192917f17307eab39ab6107e8899845ad3d59bd9653f200f220920489ca2b5937696c31910160405180910390a35050565b600a546001600160a01b03163314611a1e5760405162461bcd60e51b815260206004820181905260248201526000805160206134ee8339815191526044820152606401610a36565b60005b81811015610a4b576000838383818110611a3d57611a3d6134ab565b9050602002016020810190611a529190612eed565b90506001600160a01b038116611a995760405162461bcd60e51b815260206004820152600c60248201526b4e554c4c5f4144445245535360a01b6044820152606401610a36565b6001600160a01b03166000908152600b602052604081205580611abb8161343a565b915050611a21565b611acd3383612388565b611b3f5760405162461bcd60e51b815260206004820152603160248201527f4552433732313a207472616e736665722063616c6c6572206973206e6f74206f60448201527f776e6572206e6f7220617070726f7665640000000000000000000000000000006064820152608401610a36565b611b4b848484846126c3565b50505050565b6000818152600260205260409020546060906001600160a01b0316611bb85760405162461bcd60e51b815260206004820152601f60248201527f43616e6e6f74207175657279206e6f6e2d6578697374656e7420746f6b656e006044820152606401610a36565b600060108054611bc7906133ff565b905011611c5e5760118054611bdb906133ff565b80601f0160208091040260200160405190810160405280929190818152602001828054611c07906133ff565b8015611c545780601f10611c2957610100808354040283529160200191611c54565b820191906000526020600020905b815481529060010190602001808311611c3757829003601f168201915b5050505050610a8e565b6010611c6983612741565b604051602001611c7a92919061327b565b60405160208183030381529060405292915050565b333b15611d045760405162461bcd60e51b815260206004820152602660248201527f4e6f7420616c6c6f7720746f2063616c6c2066726f6d206f7468657220636f6e60448201527f74726163747300000000000000000000000000000000000000000000000000006064820152608401610a36565b336000908152600e60205260409020544211611d885760405162461bcd60e51b815260206004820152602560248201527f4e6f7420616c6c6f7720746f20707572636861736520696e20667265657a652060448201527f74696d65210000000000000000000000000000000000000000000000000000006064820152608401610a36565b601854610100900460ff16611ddf5760405162461bcd60e51b815260206004820152601060248201527f53616c65206973206e6f74206c697665000000000000000000000000000000006044820152606401610a36565b60185460ff1615611e325760405162461bcd60e51b815260206004820152601660248201527f4f6e6c792070726573616c6572732063616e20627579000000000000000000006044820152606401610a36565b610320611e42611f406058613371565b611e4c9190613371565b60085410611e9c5760405162461bcd60e51b815260206004820152601660248201527f416c6c2041766172696b7320617265206d696e746564000000000000000000006044820152606401610a36565b611f4081601554611ead9190613371565b1115611f215760405162461bcd60e51b815260206004820152602960248201527f4d696e74696e6720776f756c642065786365656420746865206d61782070756260448201527f696320737570706c7900000000000000000000000000000000000000000000006064820152608401610a36565b6003811115611f985760405162461bcd60e51b815260206004820152602c60248201527f596f752063616e206d696e7420757020746f20332041766172696b732070657260448201527f207472616e73616374696f6e00000000000000000000000000000000000000006064820152608401610a36565b336000908152600d6020526040902054600590611fb6908390613371565b11156120105760405162461bcd60e51b8152602060048201526024808201527f596f752063616e206e6f74206d696e742065786365656473206d6178696d756d6044820152630813919560e21b6064820152608401610a36565b346120238267011c37937e08000061339d565b11156120715760405162461bcd60e51b815260206004820152601560248201527f496e73756666696369656e74204554482073656e7400000000000000000000006044820152606401610a36565b60175461207e9042613371565b336000908152600e60205260408120919091555b818110156118aa57601580549060006120aa8361343a565b9091555050336000908152600d602052604081208054916120ca8361343a565b91905055506120dc33610f1260085490565b806120e68161343a565b915050612092565b6060600f8054610b08906133ff565b600a546001600160a01b031633146121455760405162461bcd60e51b815260206004820181905260248201526000805160206134ee8339815191526044820152606401610a36565b6001600160a01b0381166121c15760405162461bcd60e51b815260206004820152602660248201527f4f776e61626c653a206e6577206f776e657220697320746865207a65726f206160448201527f64647265737300000000000000000000000000000000000000000000000000006064820152608401610a36565b61112681612664565b601380546121d7906133ff565b80601f0160208091040260200160405190810160405280929190818152602001828054612203906133ff565b80156122505780601f1061222557610100808354040283529160200191612250565b820191906000526020600020905b81548152906001019060200180831161223357829003601f168201915b505050505081565b60006001600160e01b031982167f80ac58cd0000000000000000000000000000000000000000000000000000000014806122bb57506001600160e01b031982167f5b5e139f00000000000000000000000000000000000000000000000000000000145b80610a8e57507f01ffc9a7000000000000000000000000000000000000000000000000000000006001600160e01b0319831614610a8e565b6000818152600460205260409020805473ffffffffffffffffffffffffffffffffffffffff19166001600160a01b0384169081179091558190612335826113bd565b6001600160a01b03167f8c5be1e5ebec7d5bd14f71427d1e84f3dd0314c0f7b2291e5b200ac8c7c3b92560405160405180910390a45050565b6118aa828260405180602001604052806000815250612873565b6000818152600260205260408120546001600160a01b03166124015760405162461bcd60e51b815260206004820152602c60248201527f4552433732313a206f70657261746f7220717565727920666f72206e6f6e657860448201526b34b9ba32b73a103a37b5b2b760a11b6064820152608401610a36565b600061240c836113bd565b9050806001600160a01b0316846001600160a01b031614806124475750836001600160a01b031661243c84610b8b565b6001600160a01b0316145b8061247757506001600160a01b0380821660009081526005602090815260408083209388168352929052205460ff165b949350505050565b826001600160a01b0316612492826113bd565b6001600160a01b03161461250e5760405162461bcd60e51b815260206004820152602960248201527f4552433732313a207472616e73666572206f6620746f6b656e2074686174206960448201527f73206e6f74206f776e00000000000000000000000000000000000000000000006064820152608401610a36565b6001600160a01b0382166125895760405162461bcd60e51b8152602060048201526024808201527f4552433732313a207472616e7366657220746f20746865207a65726f2061646460448201527f72657373000000000000000000000000000000000000000000000000000000006064820152608401610a36565b6125948383836128f1565b61259f6000826122f3565b6001600160a01b03831660009081526003602052604081208054600192906125c89084906133bc565b90915550506001600160a01b03821660009081526003602052604081208054600192906125f6908490613371565b9091555050600081815260026020526040808220805473ffffffffffffffffffffffffffffffffffffffff19166001600160a01b0386811691821790925591518493918716917fddf252ad1be2c89b69c2b068fc378daa952ba7f163c4a11628f55a4df523b3ef91a4505050565b600a80546001600160a01b0383811673ffffffffffffffffffffffffffffffffffffffff19831681179093556040519116919082907f8be0079c531659141344cd1fd0a4f28419497f9722a3daafe3b4186f6b6457e090600090a35050565b6126ce84848461247f565b6126da848484846129a9565b611b4b5760405162461bcd60e51b815260206004820152603260248201527f4552433732313a207472616e7366657220746f206e6f6e20455243373231526560448201527131b2b4bb32b91034b6b83632b6b2b73a32b960711b6064820152608401610a36565b60608161278157505060408051808201909152600181527f3000000000000000000000000000000000000000000000000000000000000000602082015290565b8160005b81156127ab57806127958161343a565b91506127a49050600a83613389565b9150612785565b60008167ffffffffffffffff8111156127c6576127c66134c1565b6040519080825280601f01601f1916602001820160405280156127f0576020820181803683370190505b5090505b8415612477576128056001836133bc565b9150612812600a86613455565b61281d906030613371565b60f81b818381518110612832576128326134ab565b60200101907effffffffffffffffffffffffffffffffffffffffffffffffffffffffffffff1916908160001a90535061286c600a86613389565b94506127f4565b61287d8383612b01565b61288a60008484846129a9565b610a4b5760405162461bcd60e51b815260206004820152603260248201527f4552433732313a207472616e7366657220746f206e6f6e20455243373231526560448201527131b2b4bb32b91034b6b83632b6b2b73a32b960711b6064820152608401610a36565b6001600160a01b03831661294c5761294781600880546000838152600960205260408120829055600182018355919091527ff3f7a9fe364faab93b216da50a3214154f22a0a2b415b23a84c8169e8b636ee30155565b61296f565b816001600160a01b0316836001600160a01b03161461296f5761296f8382612c5c565b6001600160a01b03821661298657610a4b81612cf9565b826001600160a01b0316826001600160a01b031614610a4b57610a4b8282612da8565b60006001600160a01b0384163b15612af657604051630a85bd0160e11b81526001600160a01b0385169063150b7a02906129ed903390899088908890600401613322565b602060405180830381600087803b158015612a0757600080fd5b505af1925050508015612a37575060408051601f3d908101601f19168201909252612a349181019061318b565b60015b612adc573d808015612a65576040519150601f19603f3d011682016040523d82523d6000602084013e612a6a565b606091505b508051612ad45760405162461bcd60e51b815260206004820152603260248201527f4552433732313a207472616e7366657220746f206e6f6e20455243373231526560448201527131b2b4bb32b91034b6b83632b6b2b73a32b960711b6064820152608401610a36565b805181602001fd5b6001600160e01b031916630a85bd0160e11b149050612477565b506001949350505050565b6001600160a01b038216612b575760405162461bcd60e51b815260206004820181905260248201527f4552433732313a206d696e7420746f20746865207a65726f20616464726573736044820152606401610a36565b6000818152600260205260409020546001600160a01b031615612bbc5760405162461bcd60e51b815260206004820152601c60248201527f4552433732313a20746f6b656e20616c7265616479206d696e746564000000006044820152606401610a36565b612bc8600083836128f1565b6001600160a01b0382166000908152600360205260408120805460019290612bf1908490613371565b9091555050600081815260026020526040808220805473ffffffffffffffffffffffffffffffffffffffff19166001600160a01b03861690811790915590518392907fddf252ad1be2c89b69c2b068fc378daa952ba7f163c4a11628f55a4df523b3ef908290a45050565b60006001612c6984611448565b612c7391906133bc565b600083815260076020526040902054909150808214612cc6576001600160a01b03841660009081526006602090815260408083208584528252808320548484528184208190558352600790915290208190555b5060009182526007602090815260408084208490556001600160a01b039094168352600681528383209183525290812055565b600854600090612d0b906001906133bc565b60008381526009602052604081205460088054939450909284908110612d3357612d336134ab565b906000526020600020015490508060088381548110612d5457612d546134ab565b6000918252602080832090910192909255828152600990915260408082208490558582528120556008805480612d8c57612d8c613495565b6001900381819060005260206000200160009055905550505050565b6000612db383611448565b6001600160a01b039093166000908152600660209081526040808320868452825280832085905593825260079052919091209190915550565b828054612df8906133ff565b90600052602060002090601f016020900481019282612e1a5760008555612e60565b82601f10612e335782800160ff19823516178555612e60565b82800160010185558215612e60579182015b82811115612e60578235825591602001919060010190612e45565b50612e6c929150612e70565b5090565b5b80821115612e6c5760008155600101612e71565b80356001600160a01b0381168114612e9c57600080fd5b919050565b60008083601f840112612eb357600080fd5b50813567ffffffffffffffff811115612ecb57600080fd5b6020830191508360208260051b8501011115612ee657600080fd5b9250929050565b600060208284031215612eff57600080fd5b612f0882612e85565b9392505050565b60008060408385031215612f2257600080fd5b612f2b83612e85565b9150612f3960208401612e85565b90509250929050565b600080600060608486031215612f5757600080fd5b612f6084612e85565b9250612f6e60208501612e85565b9150604084013590509250925092565b60008060008060808587031215612f9457600080fd5b612f9d85612e85565b9350612fab60208601612e85565b925060408501359150606085013567ffffffffffffffff80821115612fcf57600080fd5b818701915087601f830112612fe357600080fd5b813581811115612ff557612ff56134c1565b604051601f8201601f19908116603f0116810190838211818310171561301d5761301d6134c1565b816040528281528a602084870101111561303657600080fd5b82602086016020830137600060208483010152809550505050505092959194509250565b6000806040838503121561306d57600080fd5b61307683612e85565b91506020830135801515811461308b57600080fd5b809150509250929050565b600080604083850312156130a957600080fd5b6130b283612e85565b946020939093013593505050565b600080602083850312156130d357600080fd5b823567ffffffffffffffff8111156130ea57600080fd5b6130f685828601612ea1565b90969095509350505050565b6000806000806040858703121561311857600080fd5b843567ffffffffffffffff8082111561313057600080fd5b61313c88838901612ea1565b9096509450602087013591508082111561315557600080fd5b5061316287828801612ea1565b95989497509550505050565b60006020828403121561318057600080fd5b8135612f08816134d7565b60006020828403121561319d57600080fd5b8151612f08816134d7565b600080602083850312156131bb57600080fd5b823567ffffffffffffffff808211156131d357600080fd5b818501915085601f8301126131e757600080fd5b8135818111156131f657600080fd5b86602082850101111561320857600080fd5b60209290920196919550909350505050565b60006020828403121561322c57600080fd5b5035919050565b6000815180845261324b8160208601602086016133d3565b601f01601f19169290920160200192915050565b600081516132718185602086016133d3565b9290920192915050565b600080845481600182811c91508083168061329757607f831692505b60208084108214156132b757634e487b7160e01b86526022600452602486fd5b8180156132cb57600181146132dc57613309565b60ff19861689528489019650613309565b60008b81526020902060005b868110156133015781548b8201529085019083016132e8565b505084890196505b505050505050613319818561325f565b95945050505050565b60006001600160a01b038087168352808616602084015250836040830152608060608301526133546080830184613233565b9695505050505050565b602081526000612f086020830184613233565b6000821982111561338457613384613469565b500190565b6000826133985761339861347f565b500490565b60008160001904831182151516156133b7576133b7613469565b500290565b6000828210156133ce576133ce613469565b500390565b60005b838110156133ee5781810151838201526020016133d6565b83811115611b4b5750506000910152565b600181811c9082168061341357607f821691505b6020821081141561343457634e487b7160e01b600052602260045260246000fd5b50919050565b600060001982141561344e5761344e613469565b5060010190565b6000826134645761346461347f565b500690565b634e487b7160e01b600052601160045260246000fd5b634e487b7160e01b600052601260045260246000fd5b634e487b7160e01b600052603160045260246000fd5b634e487b7160e01b600052603260045260246000fd5b634e487b7160e01b600052604160045260246000fd5b6001600160e01b03198116811461112657600080fdfe4f776e61626c653a2063616c6c6572206973206e6f7420746865206f776e6572a2646970667358221220c1927aae7508fff7e64fddff2b4761bed018732c8bd6a7914ec369ed726b3a2664736f6c63430008070033",
  "devdoc": {
    "kind": "dev",
    "methods": {
      "approve(address,uint256)": {
        "details": "See {IERC721-approve}."
      },
      "balanceOf(address)": {
        "details": "See {IERC721-balanceOf}."
      },
      "getApproved(uint256)": {
        "details": "See {IERC721-getApproved}."
      },
      "isApprovedForAll(address,address)": {
        "details": "See {IERC721-isApprovedForAll}."
      },
      "name()": {
        "details": "See {IERC721Metadata-name}."
      },
      "owner()": {
        "details": "Returns the address of the current owner."
      },
      "ownerOf(uint256)": {
        "details": "See {IERC721-ownerOf}."
      },
      "renounceOwnership()": {
        "details": "Leaves the contract without owner. It will not be possible to call `onlyOwner` functions anymore. Can only be called by the current owner. NOTE: Renouncing ownership will leave the contract without an owner, thereby removing any functionality that is only available to the owner."
      },
      "safeTransferFrom(address,address,uint256)": {
        "details": "See {IERC721-safeTransferFrom}."
      },
      "safeTransferFrom(address,address,uint256,bytes)": {
        "details": "See {IERC721-safeTransferFrom}."
      },
      "setApprovalForAll(address,bool)": {
        "details": "See {IERC721-setApprovalForAll}."
      },
      "supportsInterface(bytes4)": {
        "details": "See {IERC165-supportsInterface}."
      },
      "symbol()": {
        "details": "See {IERC721Metadata-symbol}."
      },
      "tokenByIndex(uint256)": {
        "details": "See {IERC721Enumerable-tokenByIndex}."
      },
      "tokenOfOwnerByIndex(address,uint256)": {
        "details": "See {IERC721Enumerable-tokenOfOwnerByIndex}."
      },
      "tokenURI(uint256)": {
        "details": "See {IERC721Metadata-tokenURI}."
      },
      "totalSupply()": {
        "details": "See {IERC721Enumerable-totalSupply}."
      },
      "transferFrom(address,address,uint256)": {
        "details": "See {IERC721-transferFrom}."
      },
      "transferOwnership(address)": {
        "details": "Transfers ownership of the contract to a new account (`newOwner`). Can only be called by the current owner."
      }
    },
    "version": 1
  },
  "userdoc": {
    "kind": "user",
    "methods": {},
    "version": 1
  },
  "storageLayout": {
    "storage": [
      {
        "astId": 132,
        "contract": "contracts/AvarikSaga.sol:AvarikSaga",
        "label": "_name",
        "offset": 0,
        "slot": "0",
        "type": "t_string_storage"
      },
      {
        "astId": 134,
        "contract": "contracts/AvarikSaga.sol:AvarikSaga",
        "label": "_symbol",
        "offset": 0,
        "slot": "1",
        "type": "t_string_storage"
      },
      {
        "astId": 138,
        "contract": "contracts/AvarikSaga.sol:AvarikSaga",
        "label": "_owners",
        "offset": 0,
        "slot": "2",
        "type": "t_mapping(t_uint256,t_address)"
      },
      {
        "astId": 142,
        "contract": "contracts/AvarikSaga.sol:AvarikSaga",
        "label": "_balances",
        "offset": 0,
        "slot": "3",
        "type": "t_mapping(t_address,t_uint256)"
      },
      {
        "astId": 146,
        "contract": "contracts/AvarikSaga.sol:AvarikSaga",
        "label": "_tokenApprovals",
        "offset": 0,
        "slot": "4",
        "type": "t_mapping(t_uint256,t_address)"
      },
      {
        "astId": 152,
        "contract": "contracts/AvarikSaga.sol:AvarikSaga",
        "label": "_operatorApprovals",
        "offset": 0,
        "slot": "5",
        "type": "t_mapping(t_address,t_mapping(t_address,t_bool))"
      },
      {
        "astId": 1071,
        "contract": "contracts/AvarikSaga.sol:AvarikSaga",
        "label": "_ownedTokens",
        "offset": 0,
        "slot": "6",
        "type": "t_mapping(t_address,t_mapping(t_uint256,t_uint256))"
      },
      {
        "astId": 1075,
        "contract": "contracts/AvarikSaga.sol:AvarikSaga",
        "label": "_ownedTokensIndex",
        "offset": 0,
        "slot": "7",
        "type": "t_mapping(t_uint256,t_uint256)"
      },
      {
        "astId": 1078,
        "contract": "contracts/AvarikSaga.sol:AvarikSaga",
        "label": "_allTokens",
        "offset": 0,
        "slot": "8",
        "type": "t_array(t_uint256)dyn_storage"
      },
      {
        "astId": 1082,
        "contract": "contracts/AvarikSaga.sol:AvarikSaga",
        "label": "_allTokensIndex",
        "offset": 0,
        "slot": "9",
        "type": "t_mapping(t_uint256,t_uint256)"
      },
      {
        "astId": 7,
        "contract": "contracts/AvarikSaga.sol:AvarikSaga",
        "label": "_owner",
        "offset": 0,
        "slot": "10",
        "type": "t_address"
      },
      {
        "astId": 2052,
        "contract": "contracts/AvarikSaga.sol:AvarikSaga",
        "label": "presalerList",
        "offset": 0,
        "slot": "11",
        "type": "t_mapping(t_address,t_uint256)"
      },
      {
        "astId": 2056,
        "contract": "contracts/AvarikSaga.sol:AvarikSaga",
        "label": "presalerListPurchases",
        "offset": 0,
        "slot": "12",
        "type": "t_mapping(t_address,t_uint256)"
      },
      {
        "astId": 2060,
        "contract": "contracts/AvarikSaga.sol:AvarikSaga",
        "label": "salerListPurchases",
        "offset": 0,
        "slot": "13",
        "type": "t_mapping(t_address,t_uint256)"
      },
      {
        "astId": 2064,
        "contract": "contracts/AvarikSaga.sol:AvarikSaga",
        "label": "salerLastPurchased",
        "offset": 0,
        "slot": "14",
        "type": "t_mapping(t_address,t_uint256)"
      },
      {
        "astId": 2066,
        "contract": "contracts/AvarikSaga.sol:AvarikSaga",
        "label": "_contractURI",
        "offset": 0,
        "slot": "15",
        "type": "t_string_storage"
      },
      {
        "astId": 2068,
        "contract": "contracts/AvarikSaga.sol:AvarikSaga",
        "label": "_tokenBaseURI",
        "offset": 0,
        "slot": "16",
        "type": "t_string_storage"
      },
      {
        "astId": 2070,
        "contract": "contracts/AvarikSaga.sol:AvarikSaga",
        "label": "_defaultBaseURI",
        "offset": 0,
        "slot": "17",
        "type": "t_string_storage"
      },
      {
        "astId": 2073,
        "contract": "contracts/AvarikSaga.sol:AvarikSaga",
        "label": "_artistAddress",
        "offset": 0,
        "slot": "18",
        "type": "t_address"
      },
      {
        "astId": 2075,
        "contract": "contracts/AvarikSaga.sol:AvarikSaga",
        "label": "proof",
        "offset": 0,
        "slot": "19",
        "type": "t_string_storage"
      },
      {
        "astId": 2077,
        "contract": "contracts/AvarikSaga.sol:AvarikSaga",
        "label": "giftedAmount",
        "offset": 0,
        "slot": "20",
        "type": "t_uint256"
      },
      {
        "astId": 2079,
        "contract": "contracts/AvarikSaga.sol:AvarikSaga",
        "label": "publicAmountMinted",
        "offset": 0,
        "slot": "21",
        "type": "t_uint256"
      },
      {
        "astId": 2081,
        "contract": "contracts/AvarikSaga.sol:AvarikSaga",
        "label": "privateAmountMinted",
        "offset": 0,
        "slot": "22",
        "type": "t_uint256"
      },
      {
        "astId": 2084,
        "contract": "contracts/AvarikSaga.sol:AvarikSaga",
        "label": "PUBLIC_BUY_FREEZE_TIME",
        "offset": 0,
        "slot": "23",
        "type": "t_uint256"
      },
      {
        "astId": 2086,
        "contract": "contracts/AvarikSaga.sol:AvarikSaga",
        "label": "presaleLive",
        "offset": 0,
        "slot": "24",
        "type": "t_bool"
      },
      {
        "astId": 2088,
        "contract": "contracts/AvarikSaga.sol:AvarikSaga",
        "label": "saleLive",
        "offset": 1,
        "slot": "24",
        "type": "t_bool"
      }
    ],
    "types": {
      "t_address": {
        "encoding": "inplace",
        "label": "address",
        "numberOfBytes": "20"
      },
      "t_array(t_uint256)dyn_storage": {
        "base": "t_uint256",
        "encoding": "dynamic_array",
        "label": "uint256[]",
        "numberOfBytes": "32"
      },
      "t_bool": {
        "encoding": "inplace",
        "label": "bool",
        "numberOfBytes": "1"
      },
      "t_mapping(t_address,t_bool)": {
        "encoding": "mapping",
        "key": "t_address",
        "label": "mapping(address => bool)",
        "numberOfBytes": "32",
        "value": "t_bool"
      },
      "t_mapping(t_address,t_mapping(t_address,t_bool))": {
        "encoding": "mapping",
        "key": "t_address",
        "label": "mapping(address => mapping(address => bool))",
        "numberOfBytes": "32",
        "value": "t_mapping(t_address,t_bool)"
      },
      "t_mapping(t_address,t_mapping(t_uint256,t_uint256))": {
        "encoding": "mapping",
        "key": "t_address",
        "label": "mapping(address => mapping(uint256 => uint256))",
        "numberOfBytes": "32",
        "value": "t_mapping(t_uint256,t_uint256)"
      },
      "t_mapping(t_address,t_uint256)": {
        "encoding": "mapping",
        "key": "t_address",
        "label": "mapping(address => uint256)",
        "numberOfBytes": "32",
        "value": "t_uint256"
      },
      "t_mapping(t_uint256,t_address)": {
        "encoding": "mapping",
        "key": "t_uint256",
        "label": "mapping(uint256 => address)",
        "numberOfBytes": "32",
        "value": "t_address"
      },
      "t_mapping(t_uint256,t_uint256)": {
        "encoding": "mapping",
        "key": "t_uint256",
        "label": "mapping(uint256 => uint256)",
        "numberOfBytes": "32",
        "value": "t_uint256"
      },
      "t_string_storage": {
        "encoding": "bytes",
        "label": "string",
        "numberOfBytes": "32"
      },
      "t_uint256": {
        "encoding": "inplace",
        "label": "uint256",
        "numberOfBytes": "32"
      }
    }
  }
}