{
  "address": "0x2a66D89c08E6DA9E824dCB0c9326dc383a065BE6",
  "abi": [
    {
      "inputs": [
        {
          "internalType": "string",
          "name": "defaultBaseURI_",
          "type": "string"
        }
      ],
      "stateMutability": "nonpayable",
      "type": "constructor"
    },
    {
      "anonymous": false,
      "inputs": [
        {
          "indexed": true,
          "internalType": "address",
          "name": "owner",
          "type": "address"
        },
        {
          "indexed": true,
          "internalType": "address",
          "name": "approved",
          "type": "address"
        },
        {
          "indexed": true,
          "internalType": "uint256",
          "name": "tokenId",
          "type": "uint256"
        }
      ],
      "name": "Approval",
      "type": "event"
    },
    {
      "anonymous": false,
      "inputs": [
        {
          "indexed": true,
          "internalType": "address",
          "name": "owner",
          "type": "address"
        },
        {
          "indexed": true,
          "internalType": "address",
          "name": "operator",
          "type": "address"
        },
        {
          "indexed": false,
          "internalType": "bool",
          "name": "approved",
          "type": "bool"
        }
      ],
      "name": "ApprovalForAll",
      "type": "event"
    },
    {
      "anonymous": false,
      "inputs": [
        {
          "indexed": true,
          "internalType": "address",
          "name": "previousOwner",
          "type": "address"
        },
        {
          "indexed": true,
          "internalType": "address",
          "name": "newOwner",
          "type": "address"
        }
      ],
      "name": "OwnershipTransferred",
      "type": "event"
    },
    {
      "anonymous": false,
      "inputs": [
        {
          "indexed": true,
          "internalType": "address",
          "name": "from",
          "type": "address"
        },
        {
          "indexed": true,
          "internalType": "address",
          "name": "to",
          "type": "address"
        },
        {
          "indexed": true,
          "internalType": "uint256",
          "name": "tokenId",
          "type": "uint256"
        }
      ],
      "name": "Transfer",
      "type": "event"
    },
    {
      "inputs": [],
      "name": "AVARIK_GIFT",
      "outputs": [
        {
          "internalType": "uint256",
          "name": "",
          "type": "uint256"
        }
      ],
      "stateMutability": "view",
      "type": "function"
    },
    {
      "inputs": [],
      "name": "AVARIK_MAX",
      "outputs": [
        {
          "internalType": "uint256",
          "name": "",
          "type": "uint256"
        }
      ],
      "stateMutability": "view",
      "type": "function"
    },
    {
      "inputs": [],
      "name": "AVARIK_PER_MINT",
      "outputs": [
        {
          "internalType": "uint256",
          "name": "",
          "type": "uint256"
        }
      ],
      "stateMutability": "view",
      "type": "function"
    },
    {
      "inputs": [],
      "name": "AVARIK_PRICE",
      "outputs": [
        {
          "internalType": "uint256",
          "name": "",
          "type": "uint256"
        }
      ],
      "stateMutability": "view",
      "type": "function"
    },
    {
      "inputs": [],
      "name": "AVARIK_PRIVATE",
      "outputs": [
        {
          "internalType": "uint256",
          "name": "",
          "type": "uint256"
        }
      ],
      "stateMutability": "view",
      "type": "function"
    },
    {
      "inputs": [],
      "name": "AVARIK_PUBLIC",
      "outputs": [
        {
          "internalType": "uint256",
          "name": "",
          "type": "uint256"
        }
      ],
      "stateMutability": "view",
      "type": "function"
    },
    {
      "inputs": [],
      "name": "AVARIK_PUBLIC_PER_SALER",
      "outputs": [
        {
          "internalType": "uint256",
          "name": "",
          "type": "uint256"
        }
      ],
      "stateMutability": "view",
      "type": "function"
    },
    {
      "inputs": [
        {
          "internalType": "address[]",
          "name": "entries",
          "type": "address[]"
        },
        {
          "internalType": "uint256[]",
          "name": "maxAmounts",
          "type": "uint256[]"
        }
      ],
      "name": "addToPresaleList",
      "outputs": [],
      "stateMutability": "nonpayable",
      "type": "function"
    },
    {
      "inputs": [
        {
          "internalType": "address",
          "name": "to",
          "type": "address"
        },
        {
          "internalType": "uint256",
          "name": "tokenId",
          "type": "uint256"
        }
      ],
      "name": "approve",
      "outputs": [],
      "stateMutability": "nonpayable",
      "type": "function"
    },
    {
      "inputs": [
        {
          "internalType": "address",
          "name": "owner",
          "type": "address"
        }
      ],
      "name": "balanceOf",
      "outputs": [
        {
          "internalType": "uint256",
          "name": "",
          "type": "uint256"
        }
      ],
      "stateMutability": "view",
      "type": "function"
    },
    {
      "inputs": [
        {
          "internalType": "uint256",
          "name": "tokenQuantity",
          "type": "uint256"
        }
      ],
      "name": "buy",
      "outputs": [],
      "stateMutability": "payable",
      "type": "function"
    },
    {
      "inputs": [],
      "name": "contractURI",
      "outputs": [
        {
          "internalType": "string",
          "name": "",
          "type": "string"
        }
      ],
      "stateMutability": "view",
      "type": "function"
    },
    {
      "inputs": [
        {
          "internalType": "uint256",
          "name": "tokenId",
          "type": "uint256"
        }
      ],
      "name": "getApproved",
      "outputs": [
        {
          "internalType": "address",
          "name": "",
          "type": "address"
        }
      ],
      "stateMutability": "view",
      "type": "function"
    },
    {
      "inputs": [
        {
          "internalType": "address[]",
          "name": "receivers",
          "type": "address[]"
        }
      ],
      "name": "gift",
      "outputs": [],
      "stateMutability": "nonpayable",
      "type": "function"
    },
    {
      "inputs": [],
      "name": "giftedAmount",
      "outputs": [
        {
          "internalType": "uint256",
          "name": "",
          "type": "uint256"
        }
      ],
      "stateMutability": "view",
      "type": "function"
    },
    {
      "inputs": [
        {
          "internalType": "address",
          "name": "owner",
          "type": "address"
        },
        {
          "internalType": "address",
          "name": "operator",
          "type": "address"
        }
      ],
      "name": "isApprovedForAll",
      "outputs": [
        {
          "internalType": "bool",
          "name": "",
          "type": "bool"
        }
      ],
      "stateMutability": "view",
      "type": "function"
    },
    {
      "inputs": [],
      "name": "isPresaleActive",
      "outputs": [
        {
          "internalType": "bool",
          "name": "",
          "type": "bool"
        }
      ],
      "stateMutability": "view",
      "type": "function"
    },
    {
      "inputs": [
        {
          "internalType": "address",
          "name": "addr",
          "type": "address"
        }
      ],
      "name": "isPresaler",
      "outputs": [
        {
          "internalType": "bool",
          "name": "",
          "type": "bool"
        }
      ],
      "stateMutability": "view",
      "type": "function"
    },
    {
      "inputs": [],
      "name": "isSaleActive",
      "outputs": [
        {
          "internalType": "bool",
          "name": "",
          "type": "bool"
        }
      ],
      "stateMutability": "view",
      "type": "function"
    },
    {
      "inputs": [],
      "name": "name",
      "outputs": [
        {
          "internalType": "string",
          "name": "",
          "type": "string"
        }
      ],
      "stateMutability": "view",
      "type": "function"
    },
    {
      "inputs": [],
      "name": "owner",
      "outputs": [
        {
          "internalType": "address",
          "name": "",
          "type": "address"
        }
      ],
      "stateMutability": "view",
      "type": "function"
    },
    {
      "inputs": [
        {
          "internalType": "uint256",
          "name": "tokenId",
          "type": "uint256"
        }
      ],
      "name": "ownerOf",
      "outputs": [
        {
          "internalType": "address",
          "name": "",
          "type": "address"
        }
      ],
      "stateMutability": "view",
      "type": "function"
    },
    {
      "inputs": [
        {
          "internalType": "uint256",
          "name": "tokenQuantity",
          "type": "uint256"
        }
      ],
      "name": "presaleBuy",
      "outputs": [],
      "stateMutability": "payable",
      "type": "function"
    },
    {
      "inputs": [],
      "name": "presaleLive",
      "outputs": [
        {
          "internalType": "bool",
          "name": "",
          "type": "bool"
        }
      ],
      "stateMutability": "view",
      "type": "function"
    },
    {
      "inputs": [
        {
          "internalType": "address",
          "name": "addr",
          "type": "address"
        }
      ],
      "name": "presalePurchasedCount",
      "outputs": [
        {
          "internalType": "uint256",
          "name": "",
          "type": "uint256"
        }
      ],
      "stateMutability": "view",
      "type": "function"
    },
    {
      "inputs": [
        {
          "internalType": "address",
          "name": "",
          "type": "address"
        }
      ],
      "name": "presalerList",
      "outputs": [
        {
          "internalType": "uint256",
          "name": "",
          "type": "uint256"
        }
      ],
      "stateMutability": "view",
      "type": "function"
    },
    {
      "inputs": [
        {
          "internalType": "address",
          "name": "",
          "type": "address"
        }
      ],
      "name": "presalerListPurchases",
      "outputs": [
        {
          "internalType": "uint256",
          "name": "",
          "type": "uint256"
        }
      ],
      "stateMutability": "view",
      "type": "function"
    },
    {
      "inputs": [],
      "name": "privateAmountMinted",
      "outputs": [
        {
          "internalType": "uint256",
          "name": "",
          "type": "uint256"
        }
      ],
      "stateMutability": "view",
      "type": "function"
    },
    {
      "inputs": [],
      "name": "proof",
      "outputs": [
        {
          "internalType": "string",
          "name": "",
          "type": "string"
        }
      ],
      "stateMutability": "view",
      "type": "function"
    },
    {
      "inputs": [],
      "name": "publicAmountMinted",
      "outputs": [
        {
          "internalType": "uint256",
          "name": "",
          "type": "uint256"
        }
      ],
      "stateMutability": "view",
      "type": "function"
    },
    {
      "inputs": [
        {
          "internalType": "address[]",
          "name": "entries",
          "type": "address[]"
        }
      ],
      "name": "removeFromPresaleList",
      "outputs": [],
      "stateMutability": "nonpayable",
      "type": "function"
    },
    {
      "inputs": [],
      "name": "renounceOwnership",
      "outputs": [],
      "stateMutability": "nonpayable",
      "type": "function"
    },
    {
      "inputs": [
        {
          "internalType": "address",
          "name": "from",
          "type": "address"
        },
        {
          "internalType": "address",
          "name": "to",
          "type": "address"
        },
        {
          "internalType": "uint256",
          "name": "tokenId",
          "type": "uint256"
        }
      ],
      "name": "safeTransferFrom",
      "outputs": [],
      "stateMutability": "nonpayable",
      "type": "function"
    },
    {
      "inputs": [
        {
          "internalType": "address",
          "name": "from",
          "type": "address"
        },
        {
          "internalType": "address",
          "name": "to",
          "type": "address"
        },
        {
          "internalType": "uint256",
          "name": "tokenId",
          "type": "uint256"
        },
        {
          "internalType": "bytes",
          "name": "_data",
          "type": "bytes"
        }
      ],
      "name": "safeTransferFrom",
      "outputs": [],
      "stateMutability": "nonpayable",
      "type": "function"
    },
    {
      "inputs": [],
      "name": "saleLive",
      "outputs": [
        {
          "internalType": "bool",
          "name": "",
          "type": "bool"
        }
      ],
      "stateMutability": "view",
      "type": "function"
    },
    {
      "inputs": [
        {
          "internalType": "address",
          "name": "",
          "type": "address"
        }
      ],
      "name": "salerListPurchases",
      "outputs": [
        {
          "internalType": "uint256",
          "name": "",
          "type": "uint256"
        }
      ],
      "stateMutability": "view",
      "type": "function"
    },
    {
      "inputs": [
        {
          "internalType": "address",
          "name": "operator",
          "type": "address"
        },
        {
          "internalType": "bool",
          "name": "approved",
          "type": "bool"
        }
      ],
      "name": "setApprovalForAll",
      "outputs": [],
      "stateMutability": "nonpayable",
      "type": "function"
    },
    {
      "inputs": [
        {
          "internalType": "string",
          "name": "URI",
          "type": "string"
        }
      ],
      "name": "setBaseURI",
      "outputs": [],
      "stateMutability": "nonpayable",
      "type": "function"
    },
    {
      "inputs": [
        {
          "internalType": "string",
          "name": "URI",
          "type": "string"
        }
      ],
      "name": "setContractURI",
      "outputs": [],
      "stateMutability": "nonpayable",
      "type": "function"
    },
    {
      "inputs": [
        {
          "internalType": "string",
          "name": "URI",
          "type": "string"
        }
      ],
      "name": "setDefaultBaseURI",
      "outputs": [],
      "stateMutability": "nonpayable",
      "type": "function"
    },
    {
      "inputs": [
        {
          "internalType": "string",
          "name": "hash",
          "type": "string"
        }
      ],
      "name": "setProvenanceHash",
      "outputs": [],
      "stateMutability": "nonpayable",
      "type": "function"
    },
    {
      "inputs": [
        {
          "internalType": "bytes4",
          "name": "interfaceId",
          "type": "bytes4"
        }
      ],
      "name": "supportsInterface",
      "outputs": [
        {
          "internalType": "bool",
          "name": "",
          "type": "bool"
        }
      ],
      "stateMutability": "view",
      "type": "function"
    },
    {
      "inputs": [],
      "name": "symbol",
      "outputs": [
        {
          "internalType": "string",
          "name": "",
          "type": "string"
        }
      ],
      "stateMutability": "view",
      "type": "function"
    },
    {
      "inputs": [],
      "name": "togglePresaleStatus",
      "outputs": [],
      "stateMutability": "nonpayable",
      "type": "function"
    },
    {
      "inputs": [],
      "name": "toggleSaleStatus",
      "outputs": [],
      "stateMutability": "nonpayable",
      "type": "function"
    },
    {
      "inputs": [
        {
          "internalType": "uint256",
          "name": "index",
          "type": "uint256"
        }
      ],
      "name": "tokenByIndex",
      "outputs": [
        {
          "internalType": "uint256",
          "name": "",
          "type": "uint256"
        }
      ],
      "stateMutability": "view",
      "type": "function"
    },
    {
      "inputs": [
        {
          "internalType": "address",
          "name": "owner",
          "type": "address"
        },
        {
          "internalType": "uint256",
          "name": "index",
          "type": "uint256"
        }
      ],
      "name": "tokenOfOwnerByIndex",
      "outputs": [
        {
          "internalType": "uint256",
          "name": "",
          "type": "uint256"
        }
      ],
      "stateMutability": "view",
      "type": "function"
    },
    {
      "inputs": [
        {
          "internalType": "uint256",
          "name": "tokenId",
          "type": "uint256"
        }
      ],
      "name": "tokenURI",
      "outputs": [
        {
          "internalType": "string",
          "name": "",
          "type": "string"
        }
      ],
      "stateMutability": "view",
      "type": "function"
    },
    {
      "inputs": [],
      "name": "totalSupply",
      "outputs": [
        {
          "internalType": "uint256",
          "name": "",
          "type": "uint256"
        }
      ],
      "stateMutability": "view",
      "type": "function"
    },
    {
      "inputs": [
        {
          "internalType": "address",
          "name": "from",
          "type": "address"
        },
        {
          "internalType": "address",
          "name": "to",
          "type": "address"
        },
        {
          "internalType": "uint256",
          "name": "tokenId",
          "type": "uint256"
        }
      ],
      "name": "transferFrom",
      "outputs": [],
      "stateMutability": "nonpayable",
      "type": "function"
    },
    {
      "inputs": [
        {
          "internalType": "address",
          "name": "newOwner",
          "type": "address"
        }
      ],
      "name": "transferOwnership",
      "outputs": [],
      "stateMutability": "nonpayable",
      "type": "function"
    },
    {
      "inputs": [],
      "name": "withdraw",
      "outputs": [],
      "stateMutability": "nonpayable",
      "type": "function"
    }
  ],
  "transactionHash": "0x8abcbf57c463f1d91b1f5968cd272037f0736e7b767d39dfc2149f28ee7840f8",
  "args": [
    "https://ipfs.io/ipfs/QmVU8i23TV6MXvt3cuu9voRZVHS9SvkhW7rgsNVUJGBEuM/"
  ],
  "solcInputHash": "6f9ca6785426986cd6a51d92f2e8570f",
  "bytecode": "0x6080604052601180546001600160a01b03191673ea68212b0450a929b14726b90550933bc12ff8131790553480156200003757600080fd5b5060405162003709380380620037098339810160408190526200005a91620001f7565b604080518082018252600b81526a41766172696b205361676160a81b60208083019182528351808501909452600684526541564152494b60d01b908401528151919291620000ab9160009162000151565b508051620000c190600190602084019062000151565b505050620000de620000d8620000fb60201b60201c565b620000ff565b8051620000f390601090602084019062000151565b505062000326565b3390565b600a80546001600160a01b038381166001600160a01b0319831681179093556040519116919082907f8be0079c531659141344cd1fd0a4f28419497f9722a3daafe3b4186f6b6457e090600090a35050565b8280546200015f90620002d3565b90600052602060002090601f016020900481019282620001835760008555620001ce565b82601f106200019e57805160ff1916838001178555620001ce565b82800160010185558215620001ce579182015b82811115620001ce578251825591602001919060010190620001b1565b50620001dc929150620001e0565b5090565b5b80821115620001dc5760008155600101620001e1565b600060208083850312156200020b57600080fd5b82516001600160401b03808211156200022357600080fd5b818501915085601f8301126200023857600080fd5b8151818111156200024d576200024d62000310565b604051601f8201601f19908116603f0116810190838211818310171562000278576200027862000310565b8160405282815288868487010111156200029157600080fd5b600093505b82841015620002b5578484018601518185018701529285019262000296565b82841115620002c75760008684830101525b98975050505050505050565b600181811c90821680620002e857607f821691505b602082108114156200030a57634e487b7160e01b600052602260045260246000fd5b50919050565b634e487b7160e01b600052604160045260246000fd5b6133d380620003366000396000f3fe60806040526004361061033f5760003560e01c806370a08231116101b0578063ab0923b7116100ec578063e051ce9711610095578063e8a3d4851161006f578063e8a3d48514610906578063e985e9c51461091b578063f2fde38b14610964578063faf924cf1461098457600080fd5b8063e051ce97146108bd578063e081b781146108d2578063e44c6a9a146108f157600080fd5b8063b88d4fde116100c6578063b88d4fde1461086a578063c87b56dd1461088a578063d96a094a146108aa57600080fd5b8063ab0923b714610818578063acdea1181461082e578063b179e0601461084a57600080fd5b8063938e3d7b116101595780639bf80316116101335780639bf80316146107665780639cf2e8d6146107935780639e273b2f146107c0578063a22cb465146107f857600080fd5b8063938e3d7b1461071b578063940f1ada1461073b57806395d89b411461075157600080fd5b8063815f7bbd1161018a578063815f7bbd146106d057806383a9e049146106e35780638da5cb5b146106fd57600080fd5b806370a0823114610686578063715018a6146106a65780637bffb4ce146106bb57600080fd5b80632f745c591161027f578063564566a8116102285780635ce7af1f116102025780635ce7af1f146105f85780635e3910901461062e57806360d938dc1461064e5780636352211e1461066657600080fd5b8063564566a8146105b05780635663c108146105cd57806359a12ad5146105e257600080fd5b80634eeeb14f116102595780634eeeb14f1461055a5780634f6ccce71461057057806355f804b31461059057600080fd5b80632f745c59146105055780633ccfd60b1461052557806342842e0e1461053a57600080fd5b8063095ea7b3116102ec57806318160ddd116102c657806318160ddd146104a557806318e06839146104ba5780631b57190e146104cf57806323b872dd146104e557600080fd5b8063095ea7b3146104455780631096952314610465578063163e1e611461048557600080fd5b806305af57321161031d57806305af5732146103b057806306fdde03146103eb578063081812fc1461040d57600080fd5b806301e669721461034457806301ffc9a714610366578063049c5c491461039b575b600080fd5b34801561035057600080fd5b5061036461035f366004613038565b610999565b005b34801561037257600080fd5b50610386610381366004612ffe565b6109f7565b60405190151581526020015b60405180910390f35b3480156103a757600080fd5b50610364610a3b565b3480156103bc57600080fd5b506103dd6103cb366004612d7d565b600d6020526000908152604090205481565b604051908152602001610392565b3480156103f757600080fd5b50610400610aa0565b60405161039291906131ee565b34801561041957600080fd5b5061042d6104283660046130aa565b610b32565b6040516001600160a01b039091168152602001610392565b34801561045157600080fd5b50610364610460366004612f26565b610bc7565b34801561047157600080fd5b50610364610480366004613038565b610cf4565b34801561049157600080fd5b506103646104a0366004612f50565b610d48565b3480156104b157600080fd5b506008546103dd565b3480156104c657600080fd5b506103dd605881565b3480156104db57600080fd5b506103dd60135481565b3480156104f157600080fd5b50610364610500366004612dd2565b610edb565b34801561051157600080fd5b506103dd610520366004612f26565b610f62565b34801561053157600080fd5b5061036461100a565b34801561054657600080fd5b50610364610555366004612dd2565b6110d0565b34801561056657600080fd5b506103dd611f4081565b34801561057c57600080fd5b506103dd61058b3660046130aa565b6110eb565b34801561059c57600080fd5b506103646105ab366004613038565b61118f565b3480156105bc57600080fd5b50601654610100900460ff16610386565b3480156105d957600080fd5b506103dd6111e3565b3480156105ee57600080fd5b506103dd60155481565b34801561060457600080fd5b506103dd610613366004612d7d565b6001600160a01b03166000908152600c602052604090205490565b34801561063a57600080fd5b50610364610649366004612f92565b611200565b34801561065a57600080fd5b5060165460ff16610386565b34801561067257600080fd5b5061042d6106813660046130aa565b611364565b34801561069257600080fd5b506103dd6106a1366004612d7d565b6113ef565b3480156106b257600080fd5b50610364611489565b3480156106c757600080fd5b506103646114dd565b6103646106de3660046130aa565b611539565b3480156106ef57600080fd5b506016546103869060ff1681565b34801561070957600080fd5b50600a546001600160a01b031661042d565b34801561072757600080fd5b50610364610736366004613038565b611855565b34801561074757600080fd5b506103dd60145481565b34801561075d57600080fd5b506104006118a9565b34801561077257600080fd5b506103dd610781366004612d7d565b600c6020526000908152604090205481565b34801561079f57600080fd5b506103dd6107ae366004612d7d565b600b6020526000908152604090205481565b3480156107cc57600080fd5b506103866107db366004612d7d565b6001600160a01b03166000908152600b6020526040902054151590565b34801561080457600080fd5b50610364610813366004612eea565b6118b8565b34801561082457600080fd5b506103dd61032081565b34801561083a57600080fd5b506103dd67011c37937e08000081565b34801561085657600080fd5b50610364610865366004612f50565b61197d565b34801561087657600080fd5b50610364610885366004612e0e565b611a6a565b34801561089657600080fd5b506104006108a53660046130aa565b611af8565b6103646108b83660046130aa565b611c36565b3480156108c957600080fd5b506103dd600581565b3480156108de57600080fd5b5060165461038690610100900460ff1681565b3480156108fd57600080fd5b506103dd600381565b34801561091257600080fd5b50610400611f7e565b34801561092757600080fd5b50610386610936366004612d9f565b6001600160a01b03918216600090815260056020908152604080832093909416825291909152205460ff1690565b34801561097057600080fd5b5061036461097f366004612d7d565b611f8d565b34801561099057600080fd5b5061040061205a565b600a546001600160a01b031633146109e65760405162461bcd60e51b8152602060048201819052602482015260008051602061337e83398151915260448201526064015b60405180910390fd5b6109f260108383612c7c565b505050565b60006001600160e01b031982167f780e9d63000000000000000000000000000000000000000000000000000000001480610a355750610a35826120e8565b92915050565b600a546001600160a01b03163314610a835760405162461bcd60e51b8152602060048201819052602482015260008051602061337e83398151915260448201526064016109dd565b6016805461ff001981166101009182900460ff1615909102179055565b606060008054610aaf9061328f565b80601f0160208091040260200160405190810160405280929190818152602001828054610adb9061328f565b8015610b285780601f10610afd57610100808354040283529160200191610b28565b820191906000526020600020905b815481529060010190602001808311610b0b57829003601f168201915b5050505050905090565b6000818152600260205260408120546001600160a01b0316610bab5760405162461bcd60e51b815260206004820152602c60248201527f4552433732313a20617070726f76656420717565727920666f72206e6f6e657860448201526b34b9ba32b73a103a37b5b2b760a11b60648201526084016109dd565b506000908152600460205260409020546001600160a01b031690565b6000610bd282611364565b9050806001600160a01b0316836001600160a01b03161415610c5c5760405162461bcd60e51b815260206004820152602160248201527f4552433732313a20617070726f76616c20746f2063757272656e74206f776e6560448201527f720000000000000000000000000000000000000000000000000000000000000060648201526084016109dd565b336001600160a01b0382161480610c785750610c788133610936565b610cea5760405162461bcd60e51b815260206004820152603860248201527f4552433732313a20617070726f76652063616c6c6572206973206e6f74206f7760448201527f6e6572206e6f7220617070726f76656420666f7220616c6c000000000000000060648201526084016109dd565b6109f28383612183565b600a546001600160a01b03163314610d3c5760405162461bcd60e51b8152602060048201819052602482015260008051602061337e83398151915260448201526064016109dd565b6109f260128383612c7c565b600a546001600160a01b03163314610d905760405162461bcd60e51b8152602060048201819052602482015260008051602061337e83398151915260448201526064016109dd565b610320610da0611f406058613201565b610daa9190613201565b81610db460085490565b610dbe9190613201565b1115610e0c5760405162461bcd60e51b815260206004820152600860248201527f4d41585f4d494e5400000000000000000000000000000000000000000000000060448201526064016109dd565b601354605890610e1d908390613201565b1115610e6b5760405162461bcd60e51b815260206004820152600b60248201527f47494654535f454d50545900000000000000000000000000000000000000000060448201526064016109dd565b60005b818110156109f25760138054906000610e86836132ca565b9190505550610ec9838383818110610ea057610ea061333b565b9050602002016020810190610eb59190612d7d565b6008545b610ec4906001613201565b6121fe565b80610ed3816132ca565b915050610e6e565b610ee53382612218565b610f575760405162461bcd60e51b815260206004820152603160248201527f4552433732313a207472616e736665722063616c6c6572206973206e6f74206f60448201527f776e6572206e6f7220617070726f76656400000000000000000000000000000060648201526084016109dd565b6109f283838361230f565b6000610f6d836113ef565b8210610fe15760405162461bcd60e51b815260206004820152602b60248201527f455243373231456e756d657261626c653a206f776e657220696e646578206f7560448201527f74206f6620626f756e647300000000000000000000000000000000000000000060648201526084016109dd565b506001600160a01b03919091166000908152600660209081526040808320938352929052205490565b600a546001600160a01b031633146110525760405162461bcd60e51b8152602060048201819052602482015260008051602061337e83398151915260448201526064016109dd565b6011546001600160a01b03166108fc600561106e47600261322d565b6110789190613219565b6040518115909202916000818181858888f193505050501580156110a0573d6000803e3d6000fd5b5060405133904780156108fc02916000818181858888f193505050501580156110cd573d6000803e3d6000fd5b50565b6109f283838360405180602001604052806000815250611a6a565b60006110f660085490565b821061116a5760405162461bcd60e51b815260206004820152602c60248201527f455243373231456e756d657261626c653a20676c6f62616c20696e646578206f60448201527f7574206f6620626f756e6473000000000000000000000000000000000000000060648201526084016109dd565b6008828154811061117d5761117d61333b565b90600052602060002001549050919050565b600a546001600160a01b031633146111d75760405162461bcd60e51b8152602060048201819052602482015260008051602061337e83398151915260448201526064016109dd565b6109f2600f8383612c7c565b6103206111f3611f406058613201565b6111fd9190613201565b81565b600a546001600160a01b031633146112485760405162461bcd60e51b8152602060048201819052602482015260008051602061337e83398151915260448201526064016109dd565b8281146112975760405162461bcd60e51b815260206004820152600e60248201527f444946464552454e545f53495a4500000000000000000000000000000000000060448201526064016109dd565b60005b8381101561135d5760008585838181106112b6576112b661333b565b90506020020160208101906112cb9190612d7d565b90506001600160a01b0381166113125760405162461bcd60e51b815260206004820152600c60248201526b4e554c4c5f4144445245535360a01b60448201526064016109dd565b8383838181106113245761132461333b565b6001600160a01b039093166000908152600b60209081526040909120930291909101359091555080611355816132ca565b91505061129a565b5050505050565b6000818152600260205260408120546001600160a01b031680610a355760405162461bcd60e51b815260206004820152602960248201527f4552433732313a206f776e657220717565727920666f72206e6f6e657869737460448201527f656e7420746f6b656e000000000000000000000000000000000000000000000060648201526084016109dd565b60006001600160a01b03821661146d5760405162461bcd60e51b815260206004820152602a60248201527f4552433732313a2062616c616e636520717565727920666f7220746865207a6560448201527f726f20616464726573730000000000000000000000000000000000000000000060648201526084016109dd565b506001600160a01b031660009081526003602052604090205490565b600a546001600160a01b031633146114d15760405162461bcd60e51b8152602060048201819052602482015260008051602061337e83398151915260448201526064016109dd565b6114db60006124f4565b565b600a546001600160a01b031633146115255760405162461bcd60e51b8152602060048201819052602482015260008051602061337e83398151915260448201526064016109dd565b6016805460ff19811660ff90911615179055565b601654610100900460ff16158015611553575060165460ff165b61159f5760405162461bcd60e51b815260206004820152601560248201527f5468652070726573616c6520697320636c6f736564000000000000000000000060448201526064016109dd565b336000908152600b60205260409020546116215760405162461bcd60e51b815260206004820152602560248201527f596f7520617265206e6f74207175616c696669656420666f722074686520707260448201527f6573616c6500000000000000000000000000000000000000000000000000000060648201526084016109dd565b610320611631611f406058613201565b61163b9190613201565b6008541061168b5760405162461bcd60e51b815260206004820152601660248201527f416c6c2041766172696b7320617265206d696e7465640000000000000000000060448201526064016109dd565b6103208160155461169c9190613201565b11156117105760405162461bcd60e51b815260206004820152602b60248201527f4d696e74696e6720776f756c6420657863656564207468652070726573616c6560448201527f20616c6c6f636174696f6e00000000000000000000000000000000000000000060648201526084016109dd565b336000908152600b6020908152604080832054600c90925290912054611737908390613201565b11156117915760405162461bcd60e51b8152602060048201526024808201527f596f752063616e206e6f74206d696e742065786365656473206d6178696d756d6044820152630813919560e21b60648201526084016109dd565b346117a48267011c37937e08000061322d565b11156117f25760405162461bcd60e51b815260206004820152601560248201527f496e73756666696369656e74204554482073656e74000000000000000000000060448201526064016109dd565b60005b81811015611851576015805490600061180d836132ca565b9091555050336000908152600c6020526040812080549161182d836132ca565b919050555061183f33610eb960085490565b80611849816132ca565b9150506117f5565b5050565b600a546001600160a01b0316331461189d5760405162461bcd60e51b8152602060048201819052602482015260008051602061337e83398151915260448201526064016109dd565b6109f2600e8383612c7c565b606060018054610aaf9061328f565b6001600160a01b0382163314156119115760405162461bcd60e51b815260206004820152601960248201527f4552433732313a20617070726f766520746f2063616c6c65720000000000000060448201526064016109dd565b3360008181526005602090815260408083206001600160a01b03871680855290835292819020805460ff191686151590811790915590519081529192917f17307eab39ab6107e8899845ad3d59bd9653f200f220920489ca2b5937696c31910160405180910390a35050565b600a546001600160a01b031633146119c55760405162461bcd60e51b8152602060048201819052602482015260008051602061337e83398151915260448201526064016109dd565b60005b818110156109f25760008383838181106119e4576119e461333b565b90506020020160208101906119f99190612d7d565b90506001600160a01b038116611a405760405162461bcd60e51b815260206004820152600c60248201526b4e554c4c5f4144445245535360a01b60448201526064016109dd565b6001600160a01b03166000908152600b602052604081205580611a62816132ca565b9150506119c8565b611a743383612218565b611ae65760405162461bcd60e51b815260206004820152603160248201527f4552433732313a207472616e736665722063616c6c6572206973206e6f74206f60448201527f776e6572206e6f7220617070726f76656400000000000000000000000000000060648201526084016109dd565b611af284848484612553565b50505050565b6000818152600260205260409020546060906001600160a01b0316611b5f5760405162461bcd60e51b815260206004820152601f60248201527f43616e6e6f74207175657279206e6f6e2d6578697374656e7420746f6b656e0060448201526064016109dd565b6000600f8054611b6e9061328f565b905011611c055760108054611b829061328f565b80601f0160208091040260200160405190810160405280929190818152602001828054611bae9061328f565b8015611bfb5780601f10611bd057610100808354040283529160200191611bfb565b820191906000526020600020905b815481529060010190602001808311611bde57829003601f168201915b5050505050610a35565b600f611c10836125d1565b604051602001611c2192919061310b565b60405160208183030381529060405292915050565b601654610100900460ff16611c8d5760405162461bcd60e51b815260206004820152601060248201527f53616c65206973206e6f74206c6976650000000000000000000000000000000060448201526064016109dd565b60165460ff1615611ce05760405162461bcd60e51b815260206004820152601660248201527f4f6e6c792070726573616c6572732063616e206275790000000000000000000060448201526064016109dd565b610320611cf0611f406058613201565b611cfa9190613201565b60085410611d4a5760405162461bcd60e51b815260206004820152601660248201527f416c6c2041766172696b7320617265206d696e7465640000000000000000000060448201526064016109dd565b611f4081601454611d5b9190613201565b1115611dcf5760405162461bcd60e51b815260206004820152602960248201527f4d696e74696e6720776f756c642065786365656420746865206d61782070756260448201527f696320737570706c79000000000000000000000000000000000000000000000060648201526084016109dd565b6003811115611e465760405162461bcd60e51b815260206004820152602c60248201527f596f752063616e206d696e7420757020746f20332041766172696b732070657260448201527f207472616e73616374696f6e000000000000000000000000000000000000000060648201526084016109dd565b336000908152600d6020526040902054600590611e64908390613201565b1115611ebe5760405162461bcd60e51b8152602060048201526024808201527f596f752063616e206e6f74206d696e742065786365656473206d6178696d756d6044820152630813919560e21b60648201526084016109dd565b34611ed18267011c37937e08000061322d565b1115611f1f5760405162461bcd60e51b815260206004820152601560248201527f496e73756666696369656e74204554482073656e74000000000000000000000060448201526064016109dd565b60005b818110156118515760148054906000611f3a836132ca565b9091555050336000908152600d60205260408120805491611f5a836132ca565b9190505550611f6c33610eb960085490565b80611f76816132ca565b915050611f22565b6060600e8054610aaf9061328f565b600a546001600160a01b03163314611fd55760405162461bcd60e51b8152602060048201819052602482015260008051602061337e83398151915260448201526064016109dd565b6001600160a01b0381166120515760405162461bcd60e51b815260206004820152602660248201527f4f776e61626c653a206e6577206f776e657220697320746865207a65726f206160448201527f646472657373000000000000000000000000000000000000000000000000000060648201526084016109dd565b6110cd816124f4565b601280546120679061328f565b80601f01602080910402602001604051908101604052809291908181526020018280546120939061328f565b80156120e05780601f106120b5576101008083540402835291602001916120e0565b820191906000526020600020905b8154815290600101906020018083116120c357829003601f168201915b505050505081565b60006001600160e01b031982167f80ac58cd00000000000000000000000000000000000000000000000000000000148061214b57506001600160e01b031982167f5b5e139f00000000000000000000000000000000000000000000000000000000145b80610a3557507f01ffc9a7000000000000000000000000000000000000000000000000000000006001600160e01b0319831614610a35565b6000818152600460205260409020805473ffffffffffffffffffffffffffffffffffffffff19166001600160a01b03841690811790915581906121c582611364565b6001600160a01b03167f8c5be1e5ebec7d5bd14f71427d1e84f3dd0314c0f7b2291e5b200ac8c7c3b92560405160405180910390a45050565b611851828260405180602001604052806000815250612703565b6000818152600260205260408120546001600160a01b03166122915760405162461bcd60e51b815260206004820152602c60248201527f4552433732313a206f70657261746f7220717565727920666f72206e6f6e657860448201526b34b9ba32b73a103a37b5b2b760a11b60648201526084016109dd565b600061229c83611364565b9050806001600160a01b0316846001600160a01b031614806122d75750836001600160a01b03166122cc84610b32565b6001600160a01b0316145b8061230757506001600160a01b0380821660009081526005602090815260408083209388168352929052205460ff165b949350505050565b826001600160a01b031661232282611364565b6001600160a01b03161461239e5760405162461bcd60e51b815260206004820152602960248201527f4552433732313a207472616e73666572206f6620746f6b656e2074686174206960448201527f73206e6f74206f776e000000000000000000000000000000000000000000000060648201526084016109dd565b6001600160a01b0382166124195760405162461bcd60e51b8152602060048201526024808201527f4552433732313a207472616e7366657220746f20746865207a65726f2061646460448201527f726573730000000000000000000000000000000000000000000000000000000060648201526084016109dd565b612424838383612781565b61242f600082612183565b6001600160a01b038316600090815260036020526040812080546001929061245890849061324c565b90915550506001600160a01b0382166000908152600360205260408120805460019290612486908490613201565b9091555050600081815260026020526040808220805473ffffffffffffffffffffffffffffffffffffffff19166001600160a01b0386811691821790925591518493918716917fddf252ad1be2c89b69c2b068fc378daa952ba7f163c4a11628f55a4df523b3ef91a4505050565b600a80546001600160a01b0383811673ffffffffffffffffffffffffffffffffffffffff19831681179093556040519116919082907f8be0079c531659141344cd1fd0a4f28419497f9722a3daafe3b4186f6b6457e090600090a35050565b61255e84848461230f565b61256a84848484612839565b611af25760405162461bcd60e51b815260206004820152603260248201527f4552433732313a207472616e7366657220746f206e6f6e20455243373231526560448201527131b2b4bb32b91034b6b83632b6b2b73a32b960711b60648201526084016109dd565b60608161261157505060408051808201909152600181527f3000000000000000000000000000000000000000000000000000000000000000602082015290565b8160005b811561263b5780612625816132ca565b91506126349050600a83613219565b9150612615565b60008167ffffffffffffffff81111561265657612656613351565b6040519080825280601f01601f191660200182016040528015612680576020820181803683370190505b5090505b84156123075761269560018361324c565b91506126a2600a866132e5565b6126ad906030613201565b60f81b8183815181106126c2576126c261333b565b60200101907effffffffffffffffffffffffffffffffffffffffffffffffffffffffffffff1916908160001a9053506126fc600a86613219565b9450612684565b61270d8383612991565b61271a6000848484612839565b6109f25760405162461bcd60e51b815260206004820152603260248201527f4552433732313a207472616e7366657220746f206e6f6e20455243373231526560448201527131b2b4bb32b91034b6b83632b6b2b73a32b960711b60648201526084016109dd565b6001600160a01b0383166127dc576127d781600880546000838152600960205260408120829055600182018355919091527ff3f7a9fe364faab93b216da50a3214154f22a0a2b415b23a84c8169e8b636ee30155565b6127ff565b816001600160a01b0316836001600160a01b0316146127ff576127ff8382612aec565b6001600160a01b038216612816576109f281612b89565b826001600160a01b0316826001600160a01b0316146109f2576109f28282612c38565b60006001600160a01b0384163b1561298657604051630a85bd0160e11b81526001600160a01b0385169063150b7a029061287d9033908990889088906004016131b2565b602060405180830381600087803b15801561289757600080fd5b505af19250505080156128c7575060408051601f3d908101601f191682019092526128c49181019061301b565b60015b61296c573d8080156128f5576040519150601f19603f3d011682016040523d82523d6000602084013e6128fa565b606091505b5080516129645760405162461bcd60e51b815260206004820152603260248201527f4552433732313a207472616e7366657220746f206e6f6e20455243373231526560448201527131b2b4bb32b91034b6b83632b6b2b73a32b960711b60648201526084016109dd565b805181602001fd5b6001600160e01b031916630a85bd0160e11b149050612307565b506001949350505050565b6001600160a01b0382166129e75760405162461bcd60e51b815260206004820181905260248201527f4552433732313a206d696e7420746f20746865207a65726f206164647265737360448201526064016109dd565b6000818152600260205260409020546001600160a01b031615612a4c5760405162461bcd60e51b815260206004820152601c60248201527f4552433732313a20746f6b656e20616c7265616479206d696e7465640000000060448201526064016109dd565b612a5860008383612781565b6001600160a01b0382166000908152600360205260408120805460019290612a81908490613201565b9091555050600081815260026020526040808220805473ffffffffffffffffffffffffffffffffffffffff19166001600160a01b03861690811790915590518392907fddf252ad1be2c89b69c2b068fc378daa952ba7f163c4a11628f55a4df523b3ef908290a45050565b60006001612af9846113ef565b612b03919061324c565b600083815260076020526040902054909150808214612b56576001600160a01b03841660009081526006602090815260408083208584528252808320548484528184208190558352600790915290208190555b5060009182526007602090815260408084208490556001600160a01b039094168352600681528383209183525290812055565b600854600090612b9b9060019061324c565b60008381526009602052604081205460088054939450909284908110612bc357612bc361333b565b906000526020600020015490508060088381548110612be457612be461333b565b6000918252602080832090910192909255828152600990915260408082208490558582528120556008805480612c1c57612c1c613325565b6001900381819060005260206000200160009055905550505050565b6000612c43836113ef565b6001600160a01b039093166000908152600660209081526040808320868452825280832085905593825260079052919091209190915550565b828054612c889061328f565b90600052602060002090601f016020900481019282612caa5760008555612cf0565b82601f10612cc35782800160ff19823516178555612cf0565b82800160010185558215612cf0579182015b82811115612cf0578235825591602001919060010190612cd5565b50612cfc929150612d00565b5090565b5b80821115612cfc5760008155600101612d01565b80356001600160a01b0381168114612d2c57600080fd5b919050565b60008083601f840112612d4357600080fd5b50813567ffffffffffffffff811115612d5b57600080fd5b6020830191508360208260051b8501011115612d7657600080fd5b9250929050565b600060208284031215612d8f57600080fd5b612d9882612d15565b9392505050565b60008060408385031215612db257600080fd5b612dbb83612d15565b9150612dc960208401612d15565b90509250929050565b600080600060608486031215612de757600080fd5b612df084612d15565b9250612dfe60208501612d15565b9150604084013590509250925092565b60008060008060808587031215612e2457600080fd5b612e2d85612d15565b9350612e3b60208601612d15565b925060408501359150606085013567ffffffffffffffff80821115612e5f57600080fd5b818701915087601f830112612e7357600080fd5b813581811115612e8557612e85613351565b604051601f8201601f19908116603f01168101908382118183101715612ead57612ead613351565b816040528281528a6020848701011115612ec657600080fd5b82602086016020830137600060208483010152809550505050505092959194509250565b60008060408385031215612efd57600080fd5b612f0683612d15565b915060208301358015158114612f1b57600080fd5b809150509250929050565b60008060408385031215612f3957600080fd5b612f4283612d15565b946020939093013593505050565b60008060208385031215612f6357600080fd5b823567ffffffffffffffff811115612f7a57600080fd5b612f8685828601612d31565b90969095509350505050565b60008060008060408587031215612fa857600080fd5b843567ffffffffffffffff80821115612fc057600080fd5b612fcc88838901612d31565b90965094506020870135915080821115612fe557600080fd5b50612ff287828801612d31565b95989497509550505050565b60006020828403121561301057600080fd5b8135612d9881613367565b60006020828403121561302d57600080fd5b8151612d9881613367565b6000806020838503121561304b57600080fd5b823567ffffffffffffffff8082111561306357600080fd5b818501915085601f83011261307757600080fd5b81358181111561308657600080fd5b86602082850101111561309857600080fd5b60209290920196919550909350505050565b6000602082840312156130bc57600080fd5b5035919050565b600081518084526130db816020860160208601613263565b601f01601f19169290920160200192915050565b60008151613101818560208601613263565b9290920192915050565b600080845481600182811c91508083168061312757607f831692505b602080841082141561314757634e487b7160e01b86526022600452602486fd5b81801561315b576001811461316c57613199565b60ff19861689528489019650613199565b60008b81526020902060005b868110156131915781548b820152908501908301613178565b505084890196505b5050505050506131a981856130ef565b95945050505050565b60006001600160a01b038087168352808616602084015250836040830152608060608301526131e460808301846130c3565b9695505050505050565b602081526000612d9860208301846130c3565b60008219821115613214576132146132f9565b500190565b6000826132285761322861330f565b500490565b6000816000190483118215151615613247576132476132f9565b500290565b60008282101561325e5761325e6132f9565b500390565b60005b8381101561327e578181015183820152602001613266565b83811115611af25750506000910152565b600181811c908216806132a357607f821691505b602082108114156132c457634e487b7160e01b600052602260045260246000fd5b50919050565b60006000198214156132de576132de6132f9565b5060010190565b6000826132f4576132f461330f565b500690565b634e487b7160e01b600052601160045260246000fd5b634e487b7160e01b600052601260045260246000fd5b634e487b7160e01b600052603160045260246000fd5b634e487b7160e01b600052603260045260246000fd5b634e487b7160e01b600052604160045260246000fd5b6001600160e01b0319811681146110cd57600080fdfe4f776e61626c653a2063616c6c6572206973206e6f7420746865206f776e6572a2646970667358221220d23e1b533d88b23f7c6dd674d223a2f2a6a19a4faac1cbba2d3a5bd77a555b4364736f6c63430008070033",
  "devdoc": {
    "kind": "dev",
    "methods": {
      "approve(address,uint256)": {
        "details": "See {IERC721-approve}."
      },
      "balanceOf(address)": {
        "details": "See {IERC721-balanceOf}."
      },
      "getApproved(uint256)": {
        "details": "See {IERC721-getApproved}."
      },
      "isApprovedForAll(address,address)": {
        "details": "See {IERC721-isApprovedForAll}."
      },
      "name()": {
        "details": "See {IERC721Metadata-name}."
      },
      "owner()": {
        "details": "Returns the address of the current owner."
      },
      "ownerOf(uint256)": {
        "details": "See {IERC721-ownerOf}."
      },
      "renounceOwnership()": {
        "details": "Leaves the contract without owner. It will not be possible to call `onlyOwner` functions anymore. Can only be called by the current owner. NOTE: Renouncing ownership will leave the contract without an owner, thereby removing any functionality that is only available to the owner."
      },
      "safeTransferFrom(address,address,uint256)": {
        "details": "See {IERC721-safeTransferFrom}."
      },
      "safeTransferFrom(address,address,uint256,bytes)": {
        "details": "See {IERC721-safeTransferFrom}."
      },
      "setApprovalForAll(address,bool)": {
        "details": "See {IERC721-setApprovalForAll}."
      },
      "supportsInterface(bytes4)": {
        "details": "See {IERC165-supportsInterface}."
      },
      "symbol()": {
        "details": "See {IERC721Metadata-symbol}."
      },
      "tokenByIndex(uint256)": {
        "details": "See {IERC721Enumerable-tokenByIndex}."
      },
      "tokenOfOwnerByIndex(address,uint256)": {
        "details": "See {IERC721Enumerable-tokenOfOwnerByIndex}."
      },
      "tokenURI(uint256)": {
        "details": "See {IERC721Metadata-tokenURI}."
      },
      "totalSupply()": {
        "details": "See {IERC721Enumerable-totalSupply}."
      },
      "transferFrom(address,address,uint256)": {
        "details": "See {IERC721-transferFrom}."
      },
      "transferOwnership(address)": {
        "details": "Transfers ownership of the contract to a new account (`newOwner`). Can only be called by the current owner."
      }
    },
    "version": 1
  },
  "userdoc": {
    "kind": "user",
    "methods": {},
    "version": 1
  },
  "storageLayout": {
    "storage": [
      {
        "astId": 129,
        "contract": "contracts/AvarikSaga.sol:AvarikSaga",
        "label": "_name",
        "offset": 0,
        "slot": "0",
        "type": "t_string_storage"
      },
      {
        "astId": 131,
        "contract": "contracts/AvarikSaga.sol:AvarikSaga",
        "label": "_symbol",
        "offset": 0,
        "slot": "1",
        "type": "t_string_storage"
      },
      {
        "astId": 135,
        "contract": "contracts/AvarikSaga.sol:AvarikSaga",
        "label": "_owners",
        "offset": 0,
        "slot": "2",
        "type": "t_mapping(t_uint256,t_address)"
      },
      {
        "astId": 139,
        "contract": "contracts/AvarikSaga.sol:AvarikSaga",
        "label": "_balances",
        "offset": 0,
        "slot": "3",
        "type": "t_mapping(t_address,t_uint256)"
      },
      {
        "astId": 143,
        "contract": "contracts/AvarikSaga.sol:AvarikSaga",
        "label": "_tokenApprovals",
        "offset": 0,
        "slot": "4",
        "type": "t_mapping(t_uint256,t_address)"
      },
      {
        "astId": 149,
        "contract": "contracts/AvarikSaga.sol:AvarikSaga",
        "label": "_operatorApprovals",
        "offset": 0,
        "slot": "5",
        "type": "t_mapping(t_address,t_mapping(t_address,t_bool))"
      },
      {
        "astId": 1068,
        "contract": "contracts/AvarikSaga.sol:AvarikSaga",
        "label": "_ownedTokens",
        "offset": 0,
        "slot": "6",
        "type": "t_mapping(t_address,t_mapping(t_uint256,t_uint256))"
      },
      {
        "astId": 1072,
        "contract": "contracts/AvarikSaga.sol:AvarikSaga",
        "label": "_ownedTokensIndex",
        "offset": 0,
        "slot": "7",
        "type": "t_mapping(t_uint256,t_uint256)"
      },
      {
        "astId": 1075,
        "contract": "contracts/AvarikSaga.sol:AvarikSaga",
        "label": "_allTokens",
        "offset": 0,
        "slot": "8",
        "type": "t_array(t_uint256)dyn_storage"
      },
      {
        "astId": 1079,
        "contract": "contracts/AvarikSaga.sol:AvarikSaga",
        "label": "_allTokensIndex",
        "offset": 0,
        "slot": "9",
        "type": "t_mapping(t_uint256,t_uint256)"
      },
      {
        "astId": 7,
        "contract": "contracts/AvarikSaga.sol:AvarikSaga",
        "label": "_owner",
        "offset": 0,
        "slot": "10",
        "type": "t_address"
      },
      {
        "astId": 2048,
        "contract": "contracts/AvarikSaga.sol:AvarikSaga",
        "label": "presalerList",
        "offset": 0,
        "slot": "11",
        "type": "t_mapping(t_address,t_uint256)"
      },
      {
        "astId": 2052,
        "contract": "contracts/AvarikSaga.sol:AvarikSaga",
        "label": "presalerListPurchases",
        "offset": 0,
        "slot": "12",
        "type": "t_mapping(t_address,t_uint256)"
      },
      {
        "astId": 2056,
        "contract": "contracts/AvarikSaga.sol:AvarikSaga",
        "label": "salerListPurchases",
        "offset": 0,
        "slot": "13",
        "type": "t_mapping(t_address,t_uint256)"
      },
      {
        "astId": 2058,
        "contract": "contracts/AvarikSaga.sol:AvarikSaga",
        "label": "_contractURI",
        "offset": 0,
        "slot": "14",
        "type": "t_string_storage"
      },
      {
        "astId": 2060,
        "contract": "contracts/AvarikSaga.sol:AvarikSaga",
        "label": "_tokenBaseURI",
        "offset": 0,
        "slot": "15",
        "type": "t_string_storage"
      },
      {
        "astId": 2062,
        "contract": "contracts/AvarikSaga.sol:AvarikSaga",
        "label": "_defaultBaseURI",
        "offset": 0,
        "slot": "16",
        "type": "t_string_storage"
      },
      {
        "astId": 2065,
        "contract": "contracts/AvarikSaga.sol:AvarikSaga",
        "label": "_artistAddress",
        "offset": 0,
        "slot": "17",
        "type": "t_address"
      },
      {
        "astId": 2067,
        "contract": "contracts/AvarikSaga.sol:AvarikSaga",
        "label": "proof",
        "offset": 0,
        "slot": "18",
        "type": "t_string_storage"
      },
      {
        "astId": 2069,
        "contract": "contracts/AvarikSaga.sol:AvarikSaga",
        "label": "giftedAmount",
        "offset": 0,
        "slot": "19",
        "type": "t_uint256"
      },
      {
        "astId": 2071,
        "contract": "contracts/AvarikSaga.sol:AvarikSaga",
        "label": "publicAmountMinted",
        "offset": 0,
        "slot": "20",
        "type": "t_uint256"
      },
      {
        "astId": 2073,
        "contract": "contracts/AvarikSaga.sol:AvarikSaga",
        "label": "privateAmountMinted",
        "offset": 0,
        "slot": "21",
        "type": "t_uint256"
      },
      {
        "astId": 2075,
        "contract": "contracts/AvarikSaga.sol:AvarikSaga",
        "label": "presaleLive",
        "offset": 0,
        "slot": "22",
        "type": "t_bool"
      },
      {
        "astId": 2077,
        "contract": "contracts/AvarikSaga.sol:AvarikSaga",
        "label": "saleLive",
        "offset": 1,
        "slot": "22",
        "type": "t_bool"
      }
    ],
    "types": {
      "t_address": {
        "encoding": "inplace",
        "label": "address",
        "numberOfBytes": "20"
      },
      "t_array(t_uint256)dyn_storage": {
        "base": "t_uint256",
        "encoding": "dynamic_array",
        "label": "uint256[]",
        "numberOfBytes": "32"
      },
      "t_bool": {
        "encoding": "inplace",
        "label": "bool",
        "numberOfBytes": "1"
      },
      "t_mapping(t_address,t_bool)": {
        "encoding": "mapping",
        "key": "t_address",
        "label": "mapping(address => bool)",
        "numberOfBytes": "32",
        "value": "t_bool"
      },
      "t_mapping(t_address,t_mapping(t_address,t_bool))": {
        "encoding": "mapping",
        "key": "t_address",
        "label": "mapping(address => mapping(address => bool))",
        "numberOfBytes": "32",
        "value": "t_mapping(t_address,t_bool)"
      },
      "t_mapping(t_address,t_mapping(t_uint256,t_uint256))": {
        "encoding": "mapping",
        "key": "t_address",
        "label": "mapping(address => mapping(uint256 => uint256))",
        "numberOfBytes": "32",
        "value": "t_mapping(t_uint256,t_uint256)"
      },
      "t_mapping(t_address,t_uint256)": {
        "encoding": "mapping",
        "key": "t_address",
        "label": "mapping(address => uint256)",
        "numberOfBytes": "32",
        "value": "t_uint256"
      },
      "t_mapping(t_uint256,t_address)": {
        "encoding": "mapping",
        "key": "t_uint256",
        "label": "mapping(uint256 => address)",
        "numberOfBytes": "32",
        "value": "t_address"
      },
      "t_mapping(t_uint256,t_uint256)": {
        "encoding": "mapping",
        "key": "t_uint256",
        "label": "mapping(uint256 => uint256)",
        "numberOfBytes": "32",
        "value": "t_uint256"
      },
      "t_string_storage": {
        "encoding": "bytes",
        "label": "string",
        "numberOfBytes": "32"
      },
      "t_uint256": {
        "encoding": "inplace",
        "label": "uint256",
        "numberOfBytes": "32"
      }
    }
  }
}