{
  "address": "0x4FCB448B3d8eA3131041A10B8420bB20FFF3E35F",
  "abi": [
    {
      "inputs": [],
      "stateMutability": "nonpayable",
      "type": "constructor"
    },
    {
      "anonymous": false,
      "inputs": [
        {
          "indexed": true,
          "internalType": "address",
          "name": "owner",
          "type": "address"
        },
        {
          "indexed": true,
          "internalType": "address",
          "name": "approved",
          "type": "address"
        },
        {
          "indexed": true,
          "internalType": "uint256",
          "name": "tokenId",
          "type": "uint256"
        }
      ],
      "name": "Approval",
      "type": "event"
    },
    {
      "anonymous": false,
      "inputs": [
        {
          "indexed": true,
          "internalType": "address",
          "name": "owner",
          "type": "address"
        },
        {
          "indexed": true,
          "internalType": "address",
          "name": "operator",
          "type": "address"
        },
        {
          "indexed": false,
          "internalType": "bool",
          "name": "approved",
          "type": "bool"
        }
      ],
      "name": "ApprovalForAll",
      "type": "event"
    },
    {
      "anonymous": false,
      "inputs": [
        {
          "indexed": true,
          "internalType": "address",
          "name": "previousOwner",
          "type": "address"
        },
        {
          "indexed": true,
          "internalType": "address",
          "name": "newOwner",
          "type": "address"
        }
      ],
      "name": "OwnershipTransferred",
      "type": "event"
    },
    {
      "anonymous": false,
      "inputs": [
        {
          "indexed": true,
          "internalType": "address",
          "name": "from",
          "type": "address"
        },
        {
          "indexed": true,
          "internalType": "address",
          "name": "to",
          "type": "address"
        },
        {
          "indexed": true,
          "internalType": "uint256",
          "name": "tokenId",
          "type": "uint256"
        }
      ],
      "name": "Transfer",
      "type": "event"
    },
    {
      "inputs": [],
      "name": "SVS_GIFT",
      "outputs": [
        {
          "internalType": "uint256",
          "name": "",
          "type": "uint256"
        }
      ],
      "stateMutability": "view",
      "type": "function"
    },
    {
      "inputs": [],
      "name": "SVS_MAX",
      "outputs": [
        {
          "internalType": "uint256",
          "name": "",
          "type": "uint256"
        }
      ],
      "stateMutability": "view",
      "type": "function"
    },
    {
      "inputs": [],
      "name": "SVS_PER_MINT",
      "outputs": [
        {
          "internalType": "uint256",
          "name": "",
          "type": "uint256"
        }
      ],
      "stateMutability": "view",
      "type": "function"
    },
    {
      "inputs": [],
      "name": "SVS_PRICE",
      "outputs": [
        {
          "internalType": "uint256",
          "name": "",
          "type": "uint256"
        }
      ],
      "stateMutability": "view",
      "type": "function"
    },
    {
      "inputs": [],
      "name": "SVS_PRIVATE",
      "outputs": [
        {
          "internalType": "uint256",
          "name": "",
          "type": "uint256"
        }
      ],
      "stateMutability": "view",
      "type": "function"
    },
    {
      "inputs": [],
      "name": "SVS_PUBLIC",
      "outputs": [
        {
          "internalType": "uint256",
          "name": "",
          "type": "uint256"
        }
      ],
      "stateMutability": "view",
      "type": "function"
    },
    {
      "inputs": [
        {
          "internalType": "address[]",
          "name": "entries",
          "type": "address[]"
        }
      ],
      "name": "addToPresaleList",
      "outputs": [],
      "stateMutability": "nonpayable",
      "type": "function"
    },
    {
      "inputs": [
        {
          "internalType": "address",
          "name": "to",
          "type": "address"
        },
        {
          "internalType": "uint256",
          "name": "tokenId",
          "type": "uint256"
        }
      ],
      "name": "approve",
      "outputs": [],
      "stateMutability": "nonpayable",
      "type": "function"
    },
    {
      "inputs": [
        {
          "internalType": "address",
          "name": "owner",
          "type": "address"
        }
      ],
      "name": "balanceOf",
      "outputs": [
        {
          "internalType": "uint256",
          "name": "",
          "type": "uint256"
        }
      ],
      "stateMutability": "view",
      "type": "function"
    },
    {
      "inputs": [
        {
          "internalType": "uint256",
          "name": "tokenQuantity",
          "type": "uint256"
        }
      ],
      "name": "buy",
      "outputs": [],
      "stateMutability": "payable",
      "type": "function"
    },
    {
      "inputs": [],
      "name": "contractURI",
      "outputs": [
        {
          "internalType": "string",
          "name": "",
          "type": "string"
        }
      ],
      "stateMutability": "view",
      "type": "function"
    },
    {
      "inputs": [
        {
          "internalType": "uint256",
          "name": "tokenId",
          "type": "uint256"
        }
      ],
      "name": "getApproved",
      "outputs": [
        {
          "internalType": "address",
          "name": "",
          "type": "address"
        }
      ],
      "stateMutability": "view",
      "type": "function"
    },
    {
      "inputs": [
        {
          "internalType": "address[]",
          "name": "receivers",
          "type": "address[]"
        }
      ],
      "name": "gift",
      "outputs": [],
      "stateMutability": "nonpayable",
      "type": "function"
    },
    {
      "inputs": [],
      "name": "giftedAmount",
      "outputs": [
        {
          "internalType": "uint256",
          "name": "",
          "type": "uint256"
        }
      ],
      "stateMutability": "view",
      "type": "function"
    },
    {
      "inputs": [
        {
          "internalType": "address",
          "name": "owner",
          "type": "address"
        },
        {
          "internalType": "address",
          "name": "operator",
          "type": "address"
        }
      ],
      "name": "isApprovedForAll",
      "outputs": [
        {
          "internalType": "bool",
          "name": "",
          "type": "bool"
        }
      ],
      "stateMutability": "view",
      "type": "function"
    },
    {
      "inputs": [],
      "name": "isPresaleActive",
      "outputs": [
        {
          "internalType": "bool",
          "name": "",
          "type": "bool"
        }
      ],
      "stateMutability": "view",
      "type": "function"
    },
    {
      "inputs": [
        {
          "internalType": "address",
          "name": "addr",
          "type": "address"
        }
      ],
      "name": "isPresaler",
      "outputs": [
        {
          "internalType": "bool",
          "name": "",
          "type": "bool"
        }
      ],
      "stateMutability": "view",
      "type": "function"
    },
    {
      "inputs": [],
      "name": "isSaleActive",
      "outputs": [
        {
          "internalType": "bool",
          "name": "",
          "type": "bool"
        }
      ],
      "stateMutability": "view",
      "type": "function"
    },
    {
      "inputs": [],
      "name": "name",
      "outputs": [
        {
          "internalType": "string",
          "name": "",
          "type": "string"
        }
      ],
      "stateMutability": "view",
      "type": "function"
    },
    {
      "inputs": [],
      "name": "owner",
      "outputs": [
        {
          "internalType": "address",
          "name": "",
          "type": "address"
        }
      ],
      "stateMutability": "view",
      "type": "function"
    },
    {
      "inputs": [
        {
          "internalType": "uint256",
          "name": "tokenId",
          "type": "uint256"
        }
      ],
      "name": "ownerOf",
      "outputs": [
        {
          "internalType": "address",
          "name": "",
          "type": "address"
        }
      ],
      "stateMutability": "view",
      "type": "function"
    },
    {
      "inputs": [
        {
          "internalType": "uint256",
          "name": "tokenQuantity",
          "type": "uint256"
        }
      ],
      "name": "presaleBuy",
      "outputs": [],
      "stateMutability": "payable",
      "type": "function"
    },
    {
      "inputs": [],
      "name": "presaleLive",
      "outputs": [
        {
          "internalType": "bool",
          "name": "",
          "type": "bool"
        }
      ],
      "stateMutability": "view",
      "type": "function"
    },
    {
      "inputs": [],
      "name": "presalePurchaseLimit",
      "outputs": [
        {
          "internalType": "uint256",
          "name": "",
          "type": "uint256"
        }
      ],
      "stateMutability": "view",
      "type": "function"
    },
    {
      "inputs": [
        {
          "internalType": "address",
          "name": "addr",
          "type": "address"
        }
      ],
      "name": "presalePurchasedCount",
      "outputs": [
        {
          "internalType": "uint256",
          "name": "",
          "type": "uint256"
        }
      ],
      "stateMutability": "view",
      "type": "function"
    },
    {
      "inputs": [
        {
          "internalType": "address",
          "name": "",
          "type": "address"
        }
      ],
      "name": "presalerList",
      "outputs": [
        {
          "internalType": "bool",
          "name": "",
          "type": "bool"
        }
      ],
      "stateMutability": "view",
      "type": "function"
    },
    {
      "inputs": [
        {
          "internalType": "address",
          "name": "",
          "type": "address"
        }
      ],
      "name": "presalerListPurchases",
      "outputs": [
        {
          "internalType": "uint256",
          "name": "",
          "type": "uint256"
        }
      ],
      "stateMutability": "view",
      "type": "function"
    },
    {
      "inputs": [],
      "name": "privateAmountMinted",
      "outputs": [
        {
          "internalType": "uint256",
          "name": "",
          "type": "uint256"
        }
      ],
      "stateMutability": "view",
      "type": "function"
    },
    {
      "inputs": [],
      "name": "proof",
      "outputs": [
        {
          "internalType": "string",
          "name": "",
          "type": "string"
        }
      ],
      "stateMutability": "view",
      "type": "function"
    },
    {
      "inputs": [],
      "name": "publicAmountMinted",
      "outputs": [
        {
          "internalType": "uint256",
          "name": "",
          "type": "uint256"
        }
      ],
      "stateMutability": "view",
      "type": "function"
    },
    {
      "inputs": [
        {
          "internalType": "address[]",
          "name": "entries",
          "type": "address[]"
        }
      ],
      "name": "removeFromPresaleList",
      "outputs": [],
      "stateMutability": "nonpayable",
      "type": "function"
    },
    {
      "inputs": [],
      "name": "renounceOwnership",
      "outputs": [],
      "stateMutability": "nonpayable",
      "type": "function"
    },
    {
      "inputs": [
        {
          "internalType": "address",
          "name": "from",
          "type": "address"
        },
        {
          "internalType": "address",
          "name": "to",
          "type": "address"
        },
        {
          "internalType": "uint256",
          "name": "tokenId",
          "type": "uint256"
        }
      ],
      "name": "safeTransferFrom",
      "outputs": [],
      "stateMutability": "nonpayable",
      "type": "function"
    },
    {
      "inputs": [
        {
          "internalType": "address",
          "name": "from",
          "type": "address"
        },
        {
          "internalType": "address",
          "name": "to",
          "type": "address"
        },
        {
          "internalType": "uint256",
          "name": "tokenId",
          "type": "uint256"
        },
        {
          "internalType": "bytes",
          "name": "_data",
          "type": "bytes"
        }
      ],
      "name": "safeTransferFrom",
      "outputs": [],
      "stateMutability": "nonpayable",
      "type": "function"
    },
    {
      "inputs": [],
      "name": "saleLive",
      "outputs": [
        {
          "internalType": "bool",
          "name": "",
          "type": "bool"
        }
      ],
      "stateMutability": "view",
      "type": "function"
    },
    {
      "inputs": [
        {
          "internalType": "address",
          "name": "operator",
          "type": "address"
        },
        {
          "internalType": "bool",
          "name": "approved",
          "type": "bool"
        }
      ],
      "name": "setApprovalForAll",
      "outputs": [],
      "stateMutability": "nonpayable",
      "type": "function"
    },
    {
      "inputs": [
        {
          "internalType": "string",
          "name": "URI",
          "type": "string"
        }
      ],
      "name": "setBaseURI",
      "outputs": [],
      "stateMutability": "nonpayable",
      "type": "function"
    },
    {
      "inputs": [
        {
          "internalType": "string",
          "name": "URI",
          "type": "string"
        }
      ],
      "name": "setContractURI",
      "outputs": [],
      "stateMutability": "nonpayable",
      "type": "function"
    },
    {
      "inputs": [
        {
          "internalType": "string",
          "name": "URI",
          "type": "string"
        }
      ],
      "name": "setDefaultBaseURI",
      "outputs": [],
      "stateMutability": "nonpayable",
      "type": "function"
    },
    {
      "inputs": [
        {
          "internalType": "string",
          "name": "hash",
          "type": "string"
        }
      ],
      "name": "setProvenanceHash",
      "outputs": [],
      "stateMutability": "nonpayable",
      "type": "function"
    },
    {
      "inputs": [
        {
          "internalType": "bytes4",
          "name": "interfaceId",
          "type": "bytes4"
        }
      ],
      "name": "supportsInterface",
      "outputs": [
        {
          "internalType": "bool",
          "name": "",
          "type": "bool"
        }
      ],
      "stateMutability": "view",
      "type": "function"
    },
    {
      "inputs": [],
      "name": "symbol",
      "outputs": [
        {
          "internalType": "string",
          "name": "",
          "type": "string"
        }
      ],
      "stateMutability": "view",
      "type": "function"
    },
    {
      "inputs": [],
      "name": "togglePresaleStatus",
      "outputs": [],
      "stateMutability": "nonpayable",
      "type": "function"
    },
    {
      "inputs": [],
      "name": "toggleSaleStatus",
      "outputs": [],
      "stateMutability": "nonpayable",
      "type": "function"
    },
    {
      "inputs": [
        {
          "internalType": "uint256",
          "name": "index",
          "type": "uint256"
        }
      ],
      "name": "tokenByIndex",
      "outputs": [
        {
          "internalType": "uint256",
          "name": "",
          "type": "uint256"
        }
      ],
      "stateMutability": "view",
      "type": "function"
    },
    {
      "inputs": [
        {
          "internalType": "address",
          "name": "owner",
          "type": "address"
        },
        {
          "internalType": "uint256",
          "name": "index",
          "type": "uint256"
        }
      ],
      "name": "tokenOfOwnerByIndex",
      "outputs": [
        {
          "internalType": "uint256",
          "name": "",
          "type": "uint256"
        }
      ],
      "stateMutability": "view",
      "type": "function"
    },
    {
      "inputs": [
        {
          "internalType": "uint256",
          "name": "tokenId",
          "type": "uint256"
        }
      ],
      "name": "tokenURI",
      "outputs": [
        {
          "internalType": "string",
          "name": "",
          "type": "string"
        }
      ],
      "stateMutability": "view",
      "type": "function"
    },
    {
      "inputs": [],
      "name": "totalSupply",
      "outputs": [
        {
          "internalType": "uint256",
          "name": "",
          "type": "uint256"
        }
      ],
      "stateMutability": "view",
      "type": "function"
    },
    {
      "inputs": [
        {
          "internalType": "address",
          "name": "from",
          "type": "address"
        },
        {
          "internalType": "address",
          "name": "to",
          "type": "address"
        },
        {
          "internalType": "uint256",
          "name": "tokenId",
          "type": "uint256"
        }
      ],
      "name": "transferFrom",
      "outputs": [],
      "stateMutability": "nonpayable",
      "type": "function"
    },
    {
      "inputs": [
        {
          "internalType": "address",
          "name": "newOwner",
          "type": "address"
        }
      ],
      "name": "transferOwnership",
      "outputs": [],
      "stateMutability": "nonpayable",
      "type": "function"
    },
    {
      "inputs": [],
      "name": "withdraw",
      "outputs": [],
      "stateMutability": "nonpayable",
      "type": "function"
    }
  ],
  "transactionHash": "0x81abdb413b2e10bf8f102a20610d39f192cef0277b82c8ff6c0b859f57ad760d",
  "args": [],
  "solcInputHash": "940fb915f4ae2a5930a92c06c4df683c",
  "bytecode": "0x6080604052601080546001600160a01b03191673ea68212b0450a929b14726b90550933bc12ff81317905560026015553480156200003c57600080fd5b50604080518082018252601881527f536e65616b792056616d706972652053796e646963617465000000000000000060208083019182528351808501909452600384526253565360e81b9084015281519192916200009d916000916200012c565b508051620000b39060019060208401906200012c565b505050620000d0620000ca620000d660201b60201c565b620000da565b6200020f565b3390565b600a80546001600160a01b038381166001600160a01b0319831681179093556040519116919082907f8be0079c531659141344cd1fd0a4f28419497f9722a3daafe3b4186f6b6457e090600090a35050565b8280546200013a90620001d2565b90600052602060002090601f0160209004810192826200015e5760008555620001a9565b82601f106200017957805160ff1916838001178555620001a9565b82800160010185558215620001a9579182015b82811115620001a95782518255916020019190600101906200018c565b50620001b7929150620001bb565b5090565b5b80821115620001b75760008155600101620001bc565b600181811c90821680620001e757607f821691505b602082108114156200020957634e487b7160e01b600052602260045260246000fd5b50919050565b613288806200021f6000396000f3fe6080604052600436106103345760003560e01c8063730f8c65116101b0578063a29714da116100ec578063e081b78111610095578063f2fde38b1161006f578063f2fde38b14610906578063f474307014610926578063fac2e3c11461093c578063faf924cf1461095157600080fd5b8063e081b78114610889578063e8a3d485146108a8578063e985e9c5146108bd57600080fd5b8063c87b56dd116100c6578063c87b56dd14610841578063d96a094a14610861578063dbf314cc1461087457600080fd5b8063a29714da146107eb578063b179e06014610801578063b88d4fde1461082157600080fd5b8063938e3d7b116101595780639bf80316116101335780639bf80316146107355780639cf2e8d6146107625780639e273b2f14610792578063a22cb465146107cb57600080fd5b8063938e3d7b146106ea578063940f1ada1461070a57806395d89b411461072057600080fd5b8063815f7bbd1161018a578063815f7bbd1461069f57806383a9e049146106b25780638da5cb5b146106cc57600080fd5b8063730f8c651461065f5780637bffb4ce146106745780637ed32dad1461068957600080fd5b80632f745c591161027f57806359a12ad5116102285780636352211e116102025780636352211e146105ea57806370a082311461060a578063715018a61461062a5780637204a3c91461063f57600080fd5b806359a12ad5146105865780635ce7af1f1461059c57806360d938dc146105d257600080fd5b80634f6ccce7116102595780634f6ccce71461052957806355f804b314610549578063564566a81461056957600080fd5b80632f745c59146104d45780633ccfd60b146104f457806342842e0e1461050957600080fd5b8063095ea7b3116102e157806318160ddd116102bb57806318160ddd146104895780631b57190e1461049e57806323b872dd146104b457600080fd5b8063095ea7b3146104295780631096952314610449578063163e1e611461046957600080fd5b806306fdde031161031257806306fdde03146103a5578063081812fc146103c757806308333598146103ff57600080fd5b806301e669721461033957806301ffc9a71461035b578063049c5c4914610390575b600080fd5b34801561034557600080fd5b50610359610354366004612eff565b610966565b005b34801561036757600080fd5b5061037b610376366004612ec5565b6109c4565b60405190151581526020015b60405180910390f35b34801561039c57600080fd5b50610359610a08565b3480156103b157600080fd5b506103ba610a6d565b60405161038791906130a3565b3480156103d357600080fd5b506103e76103e2366004612f5f565b610aff565b6040516001600160a01b039091168152602001610387565b34801561040b57600080fd5b5061041b67011c37937e08000081565b604051908152602001610387565b34801561043557600080fd5b50610359610444366004612e26565b610b94565b34801561045557600080fd5b50610359610464366004612eff565b610cc1565b34801561047557600080fd5b50610359610484366004612e50565b610d15565b34801561049557600080fd5b5060085461041b565b3480156104aa57600080fd5b5061041b60125481565b3480156104c057600080fd5b506103596104cf366004612cd2565b610ea8565b3480156104e057600080fd5b5061041b6104ef366004612e26565b610f2f565b34801561050057600080fd5b50610359610fd7565b34801561051557600080fd5b50610359610524366004612cd2565b61109d565b34801561053557600080fd5b5061041b610544366004612f5f565b6110b8565b34801561055557600080fd5b50610359610564366004612eff565b61115c565b34801561057557600080fd5b50601654610100900460ff1661037b565b34801561059257600080fd5b5061041b60145481565b3480156105a857600080fd5b5061041b6105b7366004612c7d565b6001600160a01b03166000908152600c602052604090205490565b3480156105de57600080fd5b5060165460ff1661037b565b3480156105f657600080fd5b506103e7610605366004612f5f565b6111b0565b34801561061657600080fd5b5061041b610625366004612c7d565b61123b565b34801561063657600080fd5b506103596112d5565b34801561064b57600080fd5b5061035961065a366004612e50565b611329565b34801561066b57600080fd5b5061041b600a81565b34801561068057600080fd5b50610359611489565b34801561069557600080fd5b5061041b611f4081565b6103596106ad366004612f5f565b6114e5565b3480156106be57600080fd5b5060165461037b9060ff1681565b3480156106d857600080fd5b50600a546001600160a01b03166103e7565b3480156106f657600080fd5b50610359610705366004612eff565b611815565b34801561071657600080fd5b5061041b60135481565b34801561072c57600080fd5b506103ba611869565b34801561074157600080fd5b5061041b610750366004612c7d565b600c6020526000908152604090205481565b34801561076e57600080fd5b5061037b61077d366004612c7d565b600b6020526000908152604090205460ff1681565b34801561079e57600080fd5b5061037b6107ad366004612c7d565b6001600160a01b03166000908152600b602052604090205460ff1690565b3480156107d757600080fd5b506103596107e6366004612dea565b611878565b3480156107f757600080fd5b5061041b61032081565b34801561080d57600080fd5b5061035961081c366004612e50565b61193d565b34801561082d57600080fd5b5061035961083c366004612d0e565b611a31565b34801561084d57600080fd5b506103ba61085c366004612f5f565b611abf565b61035961086f366004612f5f565b611bfd565b34801561088057600080fd5b5061041b611ead565b34801561089557600080fd5b5060165461037b90610100900460ff1681565b3480156108b457600080fd5b506103ba611eca565b3480156108c957600080fd5b5061037b6108d8366004612c9f565b6001600160a01b03918216600090815260056020908152604080832093909416825291909152205460ff1690565b34801561091257600080fd5b50610359610921366004612c7d565b611ed9565b34801561093257600080fd5b5061041b60155481565b34801561094857600080fd5b5061041b605881565b34801561095d57600080fd5b506103ba611fa6565b600a546001600160a01b031633146109b35760405162461bcd60e51b8152602060048201819052602482015260008051602061323383398151915260448201526064015b60405180910390fd5b6109bf600f8383612bc8565b505050565b60006001600160e01b031982167f780e9d63000000000000000000000000000000000000000000000000000000001480610a025750610a0282612034565b92915050565b600a546001600160a01b03163314610a505760405162461bcd60e51b8152602060048201819052602482015260008051602061323383398151915260448201526064016109aa565b6016805461ff001981166101009182900460ff1615909102179055565b606060008054610a7c90613144565b80601f0160208091040260200160405190810160405280929190818152602001828054610aa890613144565b8015610af55780601f10610aca57610100808354040283529160200191610af5565b820191906000526020600020905b815481529060010190602001808311610ad857829003601f168201915b5050505050905090565b6000818152600260205260408120546001600160a01b0316610b785760405162461bcd60e51b815260206004820152602c60248201527f4552433732313a20617070726f76656420717565727920666f72206e6f6e657860448201526b34b9ba32b73a103a37b5b2b760a11b60648201526084016109aa565b506000908152600460205260409020546001600160a01b031690565b6000610b9f826111b0565b9050806001600160a01b0316836001600160a01b03161415610c295760405162461bcd60e51b815260206004820152602160248201527f4552433732313a20617070726f76616c20746f2063757272656e74206f776e6560448201527f720000000000000000000000000000000000000000000000000000000000000060648201526084016109aa565b336001600160a01b0382161480610c455750610c4581336108d8565b610cb75760405162461bcd60e51b815260206004820152603860248201527f4552433732313a20617070726f76652063616c6c6572206973206e6f74206f7760448201527f6e6572206e6f7220617070726f76656420666f7220616c6c000000000000000060648201526084016109aa565b6109bf83836120cf565b600a546001600160a01b03163314610d095760405162461bcd60e51b8152602060048201819052602482015260008051602061323383398151915260448201526064016109aa565b6109bf60118383612bc8565b600a546001600160a01b03163314610d5d5760405162461bcd60e51b8152602060048201819052602482015260008051602061323383398151915260448201526064016109aa565b611f40610d6d61032060586130b6565b610d7791906130b6565b81610d8160085490565b610d8b91906130b6565b1115610dd95760405162461bcd60e51b815260206004820152600860248201527f4d41585f4d494e5400000000000000000000000000000000000000000000000060448201526064016109aa565b601254605890610dea9083906130b6565b1115610e385760405162461bcd60e51b815260206004820152600b60248201527f47494654535f454d50545900000000000000000000000000000000000000000060448201526064016109aa565b60005b818110156109bf5760128054906000610e538361317f565b9190505550610e96838383818110610e6d57610e6d6131f0565b9050602002016020810190610e829190612c7d565b6008545b610e919060016130b6565b61214a565b80610ea08161317f565b915050610e3b565b610eb23382612164565b610f245760405162461bcd60e51b815260206004820152603160248201527f4552433732313a207472616e736665722063616c6c6572206973206e6f74206f60448201527f776e6572206e6f7220617070726f76656400000000000000000000000000000060648201526084016109aa565b6109bf83838361225b565b6000610f3a8361123b565b8210610fae5760405162461bcd60e51b815260206004820152602b60248201527f455243373231456e756d657261626c653a206f776e657220696e646578206f7560448201527f74206f6620626f756e647300000000000000000000000000000000000000000060648201526084016109aa565b506001600160a01b03919091166000908152600660209081526040808320938352929052205490565b600a546001600160a01b0316331461101f5760405162461bcd60e51b8152602060048201819052602482015260008051602061323383398151915260448201526064016109aa565b6010546001600160a01b03166108fc600561103b4760026130e2565b61104591906130ce565b6040518115909202916000818181858888f1935050505015801561106d573d6000803e3d6000fd5b5060405133904780156108fc02916000818181858888f1935050505015801561109a573d6000803e3d6000fd5b50565b6109bf83838360405180602001604052806000815250611a31565b60006110c360085490565b82106111375760405162461bcd60e51b815260206004820152602c60248201527f455243373231456e756d657261626c653a20676c6f62616c20696e646578206f60448201527f7574206f6620626f756e6473000000000000000000000000000000000000000060648201526084016109aa565b6008828154811061114a5761114a6131f0565b90600052602060002001549050919050565b600a546001600160a01b031633146111a45760405162461bcd60e51b8152602060048201819052602482015260008051602061323383398151915260448201526064016109aa565b6109bf600e8383612bc8565b6000818152600260205260408120546001600160a01b031680610a025760405162461bcd60e51b815260206004820152602960248201527f4552433732313a206f776e657220717565727920666f72206e6f6e657869737460448201527f656e7420746f6b656e000000000000000000000000000000000000000000000060648201526084016109aa565b60006001600160a01b0382166112b95760405162461bcd60e51b815260206004820152602a60248201527f4552433732313a2062616c616e636520717565727920666f7220746865207a6560448201527f726f20616464726573730000000000000000000000000000000000000000000060648201526084016109aa565b506001600160a01b031660009081526003602052604090205490565b600a546001600160a01b0316331461131d5760405162461bcd60e51b8152602060048201819052602482015260008051602061323383398151915260448201526064016109aa565b6113276000612440565b565b600a546001600160a01b031633146113715760405162461bcd60e51b8152602060048201819052602482015260008051602061323383398151915260448201526064016109aa565b60005b818110156109bf576000838383818110611390576113906131f0565b90506020020160208101906113a59190612c7d565b90506001600160a01b0381166113ec5760405162461bcd60e51b815260206004820152600c60248201526b4e554c4c5f4144445245535360a01b60448201526064016109aa565b6001600160a01b0381166000908152600b602052604090205460ff16156114555760405162461bcd60e51b815260206004820152600f60248201527f4455504c49434154455f454e545259000000000000000000000000000000000060448201526064016109aa565b6001600160a01b03166000908152600b60205260409020805460ff19166001179055806114818161317f565b915050611374565b600a546001600160a01b031633146114d15760405162461bcd60e51b8152602060048201819052602482015260008051602061323383398151915260448201526064016109aa565b6016805460ff19811660ff90911615179055565b601654610100900460ff161580156114ff575060165460ff165b61154b5760405162461bcd60e51b815260206004820152601560248201527f5468652070726573616c6520697320636c6f736564000000000000000000000060448201526064016109aa565b336000908152600b602052604090205460ff166115d05760405162461bcd60e51b815260206004820152602560248201527f596f7520617265206e6f74207175616c696669656420666f722074686520707260448201527f6573616c6500000000000000000000000000000000000000000000000000000060648201526084016109aa565b611f406115e061032060586130b6565b6115ea91906130b6565b6008541061163a5760405162461bcd60e51b815260206004820152601760248201527f416c6c2056616d706972657320617265206d696e74656400000000000000000060448201526064016109aa565b6103208160145461164b91906130b6565b11156116bf5760405162461bcd60e51b815260206004820152602b60248201527f4d696e74696e6720776f756c6420657863656564207468652070726573616c6560448201527f20616c6c6f636174696f6e00000000000000000000000000000000000000000060648201526084016109aa565b601554336000908152600c60205260409020546116dd9083906130b6565b11156117515760405162461bcd60e51b815260206004820152602c60248201527f596f752063616e206d696e7420757020746f20322056616d706972657320696e60448201527f207468652070726573616c65000000000000000000000000000000000000000060648201526084016109aa565b346117648267011c37937e0800006130e2565b11156117b25760405162461bcd60e51b815260206004820152601560248201527f496e73756666696369656e74204554482073656e74000000000000000000000060448201526064016109aa565b60005b8181101561181157601480549060006117cd8361317f565b9091555050336000908152600c602052604081208054916117ed8361317f565b91905055506117ff33610e8660085490565b806118098161317f565b9150506117b5565b5050565b600a546001600160a01b0316331461185d5760405162461bcd60e51b8152602060048201819052602482015260008051602061323383398151915260448201526064016109aa565b6109bf600d8383612bc8565b606060018054610a7c90613144565b6001600160a01b0382163314156118d15760405162461bcd60e51b815260206004820152601960248201527f4552433732313a20617070726f766520746f2063616c6c65720000000000000060448201526064016109aa565b3360008181526005602090815260408083206001600160a01b03871680855290835292819020805460ff191686151590811790915590519081529192917f17307eab39ab6107e8899845ad3d59bd9653f200f220920489ca2b5937696c31910160405180910390a35050565b600a546001600160a01b031633146119855760405162461bcd60e51b8152602060048201819052602482015260008051602061323383398151915260448201526064016109aa565b60005b818110156109bf5760008383838181106119a4576119a46131f0565b90506020020160208101906119b99190612c7d565b90506001600160a01b038116611a005760405162461bcd60e51b815260206004820152600c60248201526b4e554c4c5f4144445245535360a01b60448201526064016109aa565b6001600160a01b03166000908152600b60205260409020805460ff1916905580611a298161317f565b915050611988565b611a3b3383612164565b611aad5760405162461bcd60e51b815260206004820152603160248201527f4552433732313a207472616e736665722063616c6c6572206973206e6f74206f60448201527f776e6572206e6f7220617070726f76656400000000000000000000000000000060648201526084016109aa565b611ab98484848461249f565b50505050565b6000818152600260205260409020546060906001600160a01b0316611b265760405162461bcd60e51b815260206004820152601f60248201527f43616e6e6f74207175657279206e6f6e2d6578697374656e7420746f6b656e0060448201526064016109aa565b6000600e8054611b3590613144565b905011611bcc57600f8054611b4990613144565b80601f0160208091040260200160405190810160405280929190818152602001828054611b7590613144565b8015611bc25780601f10611b9757610100808354040283529160200191611bc2565b820191906000526020600020905b815481529060010190602001808311611ba557829003601f168201915b5050505050610a02565b600e611bd78361251d565b604051602001611be8929190612fc0565b60405160208183030381529060405292915050565b601654610100900460ff16611c545760405162461bcd60e51b815260206004820152601060248201527f53616c65206973206e6f74206c6976650000000000000000000000000000000060448201526064016109aa565b60165460ff1615611ca75760405162461bcd60e51b815260206004820152601660248201527f4f6e6c792070726573616c6572732063616e206275790000000000000000000060448201526064016109aa565b611f40611cb761032060586130b6565b611cc191906130b6565b60085410611d115760405162461bcd60e51b815260206004820152601760248201527f416c6c2056616d706972657320617265206d696e74656400000000000000000060448201526064016109aa565b611f4081601354611d2291906130b6565b1115611d965760405162461bcd60e51b815260206004820152602960248201527f4d696e74696e6720776f756c642065786365656420746865206d61782070756260448201527f696320737570706c79000000000000000000000000000000000000000000000060648201526084016109aa565b600a811115611e0d5760405162461bcd60e51b815260206004820152602e60248201527f596f752063616e206d696e7420757020746f2031302056616d7069726573207060448201527f6572207472616e73616374696f6e00000000000000000000000000000000000060648201526084016109aa565b34611e208267011c37937e0800006130e2565b1115611e6e5760405162461bcd60e51b815260206004820152601560248201527f496e73756666696369656e74204554482073656e74000000000000000000000060448201526064016109aa565b60005b818110156118115760138054906000611e898361317f565b9190505550611e9b33610e8660085490565b80611ea58161317f565b915050611e71565b611f40611ebd61032060586130b6565b611ec791906130b6565b81565b6060600d8054610a7c90613144565b600a546001600160a01b03163314611f215760405162461bcd60e51b8152602060048201819052602482015260008051602061323383398151915260448201526064016109aa565b6001600160a01b038116611f9d5760405162461bcd60e51b815260206004820152602660248201527f4f776e61626c653a206e6577206f776e657220697320746865207a65726f206160448201527f646472657373000000000000000000000000000000000000000000000000000060648201526084016109aa565b61109a81612440565b60118054611fb390613144565b80601f0160208091040260200160405190810160405280929190818152602001828054611fdf90613144565b801561202c5780601f106120015761010080835404028352916020019161202c565b820191906000526020600020905b81548152906001019060200180831161200f57829003601f168201915b505050505081565b60006001600160e01b031982167f80ac58cd00000000000000000000000000000000000000000000000000000000148061209757506001600160e01b031982167f5b5e139f00000000000000000000000000000000000000000000000000000000145b80610a0257507f01ffc9a7000000000000000000000000000000000000000000000000000000006001600160e01b0319831614610a02565b6000818152600460205260409020805473ffffffffffffffffffffffffffffffffffffffff19166001600160a01b0384169081179091558190612111826111b0565b6001600160a01b03167f8c5be1e5ebec7d5bd14f71427d1e84f3dd0314c0f7b2291e5b200ac8c7c3b92560405160405180910390a45050565b61181182826040518060200160405280600081525061264f565b6000818152600260205260408120546001600160a01b03166121dd5760405162461bcd60e51b815260206004820152602c60248201527f4552433732313a206f70657261746f7220717565727920666f72206e6f6e657860448201526b34b9ba32b73a103a37b5b2b760a11b60648201526084016109aa565b60006121e8836111b0565b9050806001600160a01b0316846001600160a01b031614806122235750836001600160a01b031661221884610aff565b6001600160a01b0316145b8061225357506001600160a01b0380821660009081526005602090815260408083209388168352929052205460ff165b949350505050565b826001600160a01b031661226e826111b0565b6001600160a01b0316146122ea5760405162461bcd60e51b815260206004820152602960248201527f4552433732313a207472616e73666572206f6620746f6b656e2074686174206960448201527f73206e6f74206f776e000000000000000000000000000000000000000000000060648201526084016109aa565b6001600160a01b0382166123655760405162461bcd60e51b8152602060048201526024808201527f4552433732313a207472616e7366657220746f20746865207a65726f2061646460448201527f726573730000000000000000000000000000000000000000000000000000000060648201526084016109aa565b6123708383836126cd565b61237b6000826120cf565b6001600160a01b03831660009081526003602052604081208054600192906123a4908490613101565b90915550506001600160a01b03821660009081526003602052604081208054600192906123d29084906130b6565b9091555050600081815260026020526040808220805473ffffffffffffffffffffffffffffffffffffffff19166001600160a01b0386811691821790925591518493918716917fddf252ad1be2c89b69c2b068fc378daa952ba7f163c4a11628f55a4df523b3ef91a4505050565b600a80546001600160a01b0383811673ffffffffffffffffffffffffffffffffffffffff19831681179093556040519116919082907f8be0079c531659141344cd1fd0a4f28419497f9722a3daafe3b4186f6b6457e090600090a35050565b6124aa84848461225b565b6124b684848484612785565b611ab95760405162461bcd60e51b815260206004820152603260248201527f4552433732313a207472616e7366657220746f206e6f6e20455243373231526560448201527131b2b4bb32b91034b6b83632b6b2b73a32b960711b60648201526084016109aa565b60608161255d57505060408051808201909152600181527f3000000000000000000000000000000000000000000000000000000000000000602082015290565b8160005b811561258757806125718161317f565b91506125809050600a836130ce565b9150612561565b60008167ffffffffffffffff8111156125a2576125a2613206565b6040519080825280601f01601f1916602001820160405280156125cc576020820181803683370190505b5090505b8415612253576125e1600183613101565b91506125ee600a8661319a565b6125f99060306130b6565b60f81b81838151811061260e5761260e6131f0565b60200101907effffffffffffffffffffffffffffffffffffffffffffffffffffffffffffff1916908160001a905350612648600a866130ce565b94506125d0565b61265983836128dd565b6126666000848484612785565b6109bf5760405162461bcd60e51b815260206004820152603260248201527f4552433732313a207472616e7366657220746f206e6f6e20455243373231526560448201527131b2b4bb32b91034b6b83632b6b2b73a32b960711b60648201526084016109aa565b6001600160a01b0383166127285761272381600880546000838152600960205260408120829055600182018355919091527ff3f7a9fe364faab93b216da50a3214154f22a0a2b415b23a84c8169e8b636ee30155565b61274b565b816001600160a01b0316836001600160a01b03161461274b5761274b8382612a38565b6001600160a01b038216612762576109bf81612ad5565b826001600160a01b0316826001600160a01b0316146109bf576109bf8282612b84565b60006001600160a01b0384163b156128d257604051630a85bd0160e11b81526001600160a01b0385169063150b7a02906127c9903390899088908890600401613067565b602060405180830381600087803b1580156127e357600080fd5b505af1925050508015612813575060408051601f3d908101601f1916820190925261281091810190612ee2565b60015b6128b8573d808015612841576040519150601f19603f3d011682016040523d82523d6000602084013e612846565b606091505b5080516128b05760405162461bcd60e51b815260206004820152603260248201527f4552433732313a207472616e7366657220746f206e6f6e20455243373231526560448201527131b2b4bb32b91034b6b83632b6b2b73a32b960711b60648201526084016109aa565b805181602001fd5b6001600160e01b031916630a85bd0160e11b149050612253565b506001949350505050565b6001600160a01b0382166129335760405162461bcd60e51b815260206004820181905260248201527f4552433732313a206d696e7420746f20746865207a65726f206164647265737360448201526064016109aa565b6000818152600260205260409020546001600160a01b0316156129985760405162461bcd60e51b815260206004820152601c60248201527f4552433732313a20746f6b656e20616c7265616479206d696e7465640000000060448201526064016109aa565b6129a4600083836126cd565b6001600160a01b03821660009081526003602052604081208054600192906129cd9084906130b6565b9091555050600081815260026020526040808220805473ffffffffffffffffffffffffffffffffffffffff19166001600160a01b03861690811790915590518392907fddf252ad1be2c89b69c2b068fc378daa952ba7f163c4a11628f55a4df523b3ef908290a45050565b60006001612a458461123b565b612a4f9190613101565b600083815260076020526040902054909150808214612aa2576001600160a01b03841660009081526006602090815260408083208584528252808320548484528184208190558352600790915290208190555b5060009182526007602090815260408084208490556001600160a01b039094168352600681528383209183525290812055565b600854600090612ae790600190613101565b60008381526009602052604081205460088054939450909284908110612b0f57612b0f6131f0565b906000526020600020015490508060088381548110612b3057612b306131f0565b6000918252602080832090910192909255828152600990915260408082208490558582528120556008805480612b6857612b686131da565b6001900381819060005260206000200160009055905550505050565b6000612b8f8361123b565b6001600160a01b039093166000908152600660209081526040808320868452825280832085905593825260079052919091209190915550565b828054612bd490613144565b90600052602060002090601f016020900481019282612bf65760008555612c3c565b82601f10612c0f5782800160ff19823516178555612c3c565b82800160010185558215612c3c579182015b82811115612c3c578235825591602001919060010190612c21565b50612c48929150612c4c565b5090565b5b80821115612c485760008155600101612c4d565b80356001600160a01b0381168114612c7857600080fd5b919050565b600060208284031215612c8f57600080fd5b612c9882612c61565b9392505050565b60008060408385031215612cb257600080fd5b612cbb83612c61565b9150612cc960208401612c61565b90509250929050565b600080600060608486031215612ce757600080fd5b612cf084612c61565b9250612cfe60208501612c61565b9150604084013590509250925092565b60008060008060808587031215612d2457600080fd5b612d2d85612c61565b9350612d3b60208601612c61565b925060408501359150606085013567ffffffffffffffff80821115612d5f57600080fd5b818701915087601f830112612d7357600080fd5b813581811115612d8557612d85613206565b604051601f8201601f19908116603f01168101908382118183101715612dad57612dad613206565b816040528281528a6020848701011115612dc657600080fd5b82602086016020830137600060208483010152809550505050505092959194509250565b60008060408385031215612dfd57600080fd5b612e0683612c61565b915060208301358015158114612e1b57600080fd5b809150509250929050565b60008060408385031215612e3957600080fd5b612e4283612c61565b946020939093013593505050565b60008060208385031215612e6357600080fd5b823567ffffffffffffffff80821115612e7b57600080fd5b818501915085601f830112612e8f57600080fd5b813581811115612e9e57600080fd5b8660208260051b8501011115612eb357600080fd5b60209290920196919550909350505050565b600060208284031215612ed757600080fd5b8135612c988161321c565b600060208284031215612ef457600080fd5b8151612c988161321c565b60008060208385031215612f1257600080fd5b823567ffffffffffffffff80821115612f2a57600080fd5b818501915085601f830112612f3e57600080fd5b813581811115612f4d57600080fd5b866020828501011115612eb357600080fd5b600060208284031215612f7157600080fd5b5035919050565b60008151808452612f90816020860160208601613118565b601f01601f19169290920160200192915050565b60008151612fb6818560208601613118565b9290920192915050565b600080845481600182811c915080831680612fdc57607f831692505b6020808410821415612ffc57634e487b7160e01b86526022600452602486fd5b81801561301057600181146130215761304e565b60ff1986168952848901965061304e565b60008b81526020902060005b868110156130465781548b82015290850190830161302d565b505084890196505b50505050505061305e8185612fa4565b95945050505050565b60006001600160a01b038087168352808616602084015250836040830152608060608301526130996080830184612f78565b9695505050505050565b602081526000612c986020830184612f78565b600082198211156130c9576130c96131ae565b500190565b6000826130dd576130dd6131c4565b500490565b60008160001904831182151516156130fc576130fc6131ae565b500290565b600082821015613113576131136131ae565b500390565b60005b8381101561313357818101518382015260200161311b565b83811115611ab95750506000910152565b600181811c9082168061315857607f821691505b6020821081141561317957634e487b7160e01b600052602260045260246000fd5b50919050565b6000600019821415613193576131936131ae565b5060010190565b6000826131a9576131a96131c4565b500690565b634e487b7160e01b600052601160045260246000fd5b634e487b7160e01b600052601260045260246000fd5b634e487b7160e01b600052603160045260246000fd5b634e487b7160e01b600052603260045260246000fd5b634e487b7160e01b600052604160045260246000fd5b6001600160e01b03198116811461109a57600080fdfe4f776e61626c653a2063616c6c6572206973206e6f7420746865206f776e6572a26469706673582212205a0b2c42c603503819f7abd38a021bb5882e41cce96efca087bbe7eb78c6524864736f6c63430008070033",
  "devdoc": {
    "kind": "dev",
    "methods": {
      "approve(address,uint256)": {
        "details": "See {IERC721-approve}."
      },
      "balanceOf(address)": {
        "details": "See {IERC721-balanceOf}."
      },
      "getApproved(uint256)": {
        "details": "See {IERC721-getApproved}."
      },
      "isApprovedForAll(address,address)": {
        "details": "See {IERC721-isApprovedForAll}."
      },
      "name()": {
        "details": "See {IERC721Metadata-name}."
      },
      "owner()": {
        "details": "Returns the address of the current owner."
      },
      "ownerOf(uint256)": {
        "details": "See {IERC721-ownerOf}."
      },
      "renounceOwnership()": {
        "details": "Leaves the contract without owner. It will not be possible to call `onlyOwner` functions anymore. Can only be called by the current owner. NOTE: Renouncing ownership will leave the contract without an owner, thereby removing any functionality that is only available to the owner."
      },
      "safeTransferFrom(address,address,uint256)": {
        "details": "See {IERC721-safeTransferFrom}."
      },
      "safeTransferFrom(address,address,uint256,bytes)": {
        "details": "See {IERC721-safeTransferFrom}."
      },
      "setApprovalForAll(address,bool)": {
        "details": "See {IERC721-setApprovalForAll}."
      },
      "supportsInterface(bytes4)": {
        "details": "See {IERC165-supportsInterface}."
      },
      "symbol()": {
        "details": "See {IERC721Metadata-symbol}."
      },
      "tokenByIndex(uint256)": {
        "details": "See {IERC721Enumerable-tokenByIndex}."
      },
      "tokenOfOwnerByIndex(address,uint256)": {
        "details": "See {IERC721Enumerable-tokenOfOwnerByIndex}."
      },
      "tokenURI(uint256)": {
        "details": "See {IERC721Metadata-tokenURI}."
      },
      "totalSupply()": {
        "details": "See {IERC721Enumerable-totalSupply}."
      },
      "transferFrom(address,address,uint256)": {
        "details": "See {IERC721-transferFrom}."
      },
      "transferOwnership(address)": {
        "details": "Transfers ownership of the contract to a new account (`newOwner`). Can only be called by the current owner."
      }
    },
    "version": 1
  },
  "userdoc": {
    "kind": "user",
    "methods": {},
    "version": 1
  },
  "storageLayout": {
    "storage": [
      {
        "astId": 129,
        "contract": "contracts/SneakyVampireSyndicate.sol:SneakyVampireSyndicate",
        "label": "_name",
        "offset": 0,
        "slot": "0",
        "type": "t_string_storage"
      },
      {
        "astId": 131,
        "contract": "contracts/SneakyVampireSyndicate.sol:SneakyVampireSyndicate",
        "label": "_symbol",
        "offset": 0,
        "slot": "1",
        "type": "t_string_storage"
      },
      {
        "astId": 135,
        "contract": "contracts/SneakyVampireSyndicate.sol:SneakyVampireSyndicate",
        "label": "_owners",
        "offset": 0,
        "slot": "2",
        "type": "t_mapping(t_uint256,t_address)"
      },
      {
        "astId": 139,
        "contract": "contracts/SneakyVampireSyndicate.sol:SneakyVampireSyndicate",
        "label": "_balances",
        "offset": 0,
        "slot": "3",
        "type": "t_mapping(t_address,t_uint256)"
      },
      {
        "astId": 143,
        "contract": "contracts/SneakyVampireSyndicate.sol:SneakyVampireSyndicate",
        "label": "_tokenApprovals",
        "offset": 0,
        "slot": "4",
        "type": "t_mapping(t_uint256,t_address)"
      },
      {
        "astId": 149,
        "contract": "contracts/SneakyVampireSyndicate.sol:SneakyVampireSyndicate",
        "label": "_operatorApprovals",
        "offset": 0,
        "slot": "5",
        "type": "t_mapping(t_address,t_mapping(t_address,t_bool))"
      },
      {
        "astId": 1068,
        "contract": "contracts/SneakyVampireSyndicate.sol:SneakyVampireSyndicate",
        "label": "_ownedTokens",
        "offset": 0,
        "slot": "6",
        "type": "t_mapping(t_address,t_mapping(t_uint256,t_uint256))"
      },
      {
        "astId": 1072,
        "contract": "contracts/SneakyVampireSyndicate.sol:SneakyVampireSyndicate",
        "label": "_ownedTokensIndex",
        "offset": 0,
        "slot": "7",
        "type": "t_mapping(t_uint256,t_uint256)"
      },
      {
        "astId": 1075,
        "contract": "contracts/SneakyVampireSyndicate.sol:SneakyVampireSyndicate",
        "label": "_allTokens",
        "offset": 0,
        "slot": "8",
        "type": "t_array(t_uint256)dyn_storage"
      },
      {
        "astId": 1079,
        "contract": "contracts/SneakyVampireSyndicate.sol:SneakyVampireSyndicate",
        "label": "_allTokensIndex",
        "offset": 0,
        "slot": "9",
        "type": "t_mapping(t_uint256,t_uint256)"
      },
      {
        "astId": 7,
        "contract": "contracts/SneakyVampireSyndicate.sol:SneakyVampireSyndicate",
        "label": "_owner",
        "offset": 0,
        "slot": "10",
        "type": "t_address"
      },
      {
        "astId": 2045,
        "contract": "contracts/SneakyVampireSyndicate.sol:SneakyVampireSyndicate",
        "label": "presalerList",
        "offset": 0,
        "slot": "11",
        "type": "t_mapping(t_address,t_bool)"
      },
      {
        "astId": 2049,
        "contract": "contracts/SneakyVampireSyndicate.sol:SneakyVampireSyndicate",
        "label": "presalerListPurchases",
        "offset": 0,
        "slot": "12",
        "type": "t_mapping(t_address,t_uint256)"
      },
      {
        "astId": 2051,
        "contract": "contracts/SneakyVampireSyndicate.sol:SneakyVampireSyndicate",
        "label": "_contractURI",
        "offset": 0,
        "slot": "13",
        "type": "t_string_storage"
      },
      {
        "astId": 2053,
        "contract": "contracts/SneakyVampireSyndicate.sol:SneakyVampireSyndicate",
        "label": "_tokenBaseURI",
        "offset": 0,
        "slot": "14",
        "type": "t_string_storage"
      },
      {
        "astId": 2055,
        "contract": "contracts/SneakyVampireSyndicate.sol:SneakyVampireSyndicate",
        "label": "_defaultBaseURI",
        "offset": 0,
        "slot": "15",
        "type": "t_string_storage"
      },
      {
        "astId": 2058,
        "contract": "contracts/SneakyVampireSyndicate.sol:SneakyVampireSyndicate",
        "label": "_artistAddress",
        "offset": 0,
        "slot": "16",
        "type": "t_address"
      },
      {
        "astId": 2060,
        "contract": "contracts/SneakyVampireSyndicate.sol:SneakyVampireSyndicate",
        "label": "proof",
        "offset": 0,
        "slot": "17",
        "type": "t_string_storage"
      },
      {
        "astId": 2062,
        "contract": "contracts/SneakyVampireSyndicate.sol:SneakyVampireSyndicate",
        "label": "giftedAmount",
        "offset": 0,
        "slot": "18",
        "type": "t_uint256"
      },
      {
        "astId": 2064,
        "contract": "contracts/SneakyVampireSyndicate.sol:SneakyVampireSyndicate",
        "label": "publicAmountMinted",
        "offset": 0,
        "slot": "19",
        "type": "t_uint256"
      },
      {
        "astId": 2066,
        "contract": "contracts/SneakyVampireSyndicate.sol:SneakyVampireSyndicate",
        "label": "privateAmountMinted",
        "offset": 0,
        "slot": "20",
        "type": "t_uint256"
      },
      {
        "astId": 2069,
        "contract": "contracts/SneakyVampireSyndicate.sol:SneakyVampireSyndicate",
        "label": "presalePurchaseLimit",
        "offset": 0,
        "slot": "21",
        "type": "t_uint256"
      },
      {
        "astId": 2071,
        "contract": "contracts/SneakyVampireSyndicate.sol:SneakyVampireSyndicate",
        "label": "presaleLive",
        "offset": 0,
        "slot": "22",
        "type": "t_bool"
      },
      {
        "astId": 2073,
        "contract": "contracts/SneakyVampireSyndicate.sol:SneakyVampireSyndicate",
        "label": "saleLive",
        "offset": 1,
        "slot": "22",
        "type": "t_bool"
      }
    ],
    "types": {
      "t_address": {
        "encoding": "inplace",
        "label": "address",
        "numberOfBytes": "20"
      },
      "t_array(t_uint256)dyn_storage": {
        "base": "t_uint256",
        "encoding": "dynamic_array",
        "label": "uint256[]",
        "numberOfBytes": "32"
      },
      "t_bool": {
        "encoding": "inplace",
        "label": "bool",
        "numberOfBytes": "1"
      },
      "t_mapping(t_address,t_bool)": {
        "encoding": "mapping",
        "key": "t_address",
        "label": "mapping(address => bool)",
        "numberOfBytes": "32",
        "value": "t_bool"
      },
      "t_mapping(t_address,t_mapping(t_address,t_bool))": {
        "encoding": "mapping",
        "key": "t_address",
        "label": "mapping(address => mapping(address => bool))",
        "numberOfBytes": "32",
        "value": "t_mapping(t_address,t_bool)"
      },
      "t_mapping(t_address,t_mapping(t_uint256,t_uint256))": {
        "encoding": "mapping",
        "key": "t_address",
        "label": "mapping(address => mapping(uint256 => uint256))",
        "numberOfBytes": "32",
        "value": "t_mapping(t_uint256,t_uint256)"
      },
      "t_mapping(t_address,t_uint256)": {
        "encoding": "mapping",
        "key": "t_address",
        "label": "mapping(address => uint256)",
        "numberOfBytes": "32",
        "value": "t_uint256"
      },
      "t_mapping(t_uint256,t_address)": {
        "encoding": "mapping",
        "key": "t_uint256",
        "label": "mapping(uint256 => address)",
        "numberOfBytes": "32",
        "value": "t_address"
      },
      "t_mapping(t_uint256,t_uint256)": {
        "encoding": "mapping",
        "key": "t_uint256",
        "label": "mapping(uint256 => uint256)",
        "numberOfBytes": "32",
        "value": "t_uint256"
      },
      "t_string_storage": {
        "encoding": "bytes",
        "label": "string",
        "numberOfBytes": "32"
      },
      "t_uint256": {
        "encoding": "inplace",
        "label": "uint256",
        "numberOfBytes": "32"
      }
    }
  }
}