{
  "address": "0x87c3215720fE3140f326A24450bD8db4d8536Daf",
  "abi": [
    {
      "inputs": [
        {
          "internalType": "string",
          "name": "defaultBaseURI_",
          "type": "string"
        }
      ],
      "stateMutability": "nonpayable",
      "type": "constructor"
    },
    {
      "anonymous": false,
      "inputs": [
        {
          "indexed": true,
          "internalType": "address",
          "name": "owner",
          "type": "address"
        },
        {
          "indexed": true,
          "internalType": "address",
          "name": "approved",
          "type": "address"
        },
        {
          "indexed": true,
          "internalType": "uint256",
          "name": "tokenId",
          "type": "uint256"
        }
      ],
      "name": "Approval",
      "type": "event"
    },
    {
      "anonymous": false,
      "inputs": [
        {
          "indexed": true,
          "internalType": "address",
          "name": "owner",
          "type": "address"
        },
        {
          "indexed": true,
          "internalType": "address",
          "name": "operator",
          "type": "address"
        },
        {
          "indexed": false,
          "internalType": "bool",
          "name": "approved",
          "type": "bool"
        }
      ],
      "name": "ApprovalForAll",
      "type": "event"
    },
    {
      "anonymous": false,
      "inputs": [
        {
          "indexed": true,
          "internalType": "address",
          "name": "previousOwner",
          "type": "address"
        },
        {
          "indexed": true,
          "internalType": "address",
          "name": "newOwner",
          "type": "address"
        }
      ],
      "name": "OwnershipTransferred",
      "type": "event"
    },
    {
      "anonymous": false,
      "inputs": [
        {
          "indexed": true,
          "internalType": "address",
          "name": "from",
          "type": "address"
        },
        {
          "indexed": true,
          "internalType": "address",
          "name": "to",
          "type": "address"
        },
        {
          "indexed": true,
          "internalType": "uint256",
          "name": "tokenId",
          "type": "uint256"
        }
      ],
      "name": "Transfer",
      "type": "event"
    },
    {
      "inputs": [],
      "name": "SVS_GIFT",
      "outputs": [
        {
          "internalType": "uint256",
          "name": "",
          "type": "uint256"
        }
      ],
      "stateMutability": "view",
      "type": "function"
    },
    {
      "inputs": [],
      "name": "SVS_MAX",
      "outputs": [
        {
          "internalType": "uint256",
          "name": "",
          "type": "uint256"
        }
      ],
      "stateMutability": "view",
      "type": "function"
    },
    {
      "inputs": [],
      "name": "SVS_PER_MINT",
      "outputs": [
        {
          "internalType": "uint256",
          "name": "",
          "type": "uint256"
        }
      ],
      "stateMutability": "view",
      "type": "function"
    },
    {
      "inputs": [],
      "name": "SVS_PRICE",
      "outputs": [
        {
          "internalType": "uint256",
          "name": "",
          "type": "uint256"
        }
      ],
      "stateMutability": "view",
      "type": "function"
    },
    {
      "inputs": [],
      "name": "SVS_PRIVATE",
      "outputs": [
        {
          "internalType": "uint256",
          "name": "",
          "type": "uint256"
        }
      ],
      "stateMutability": "view",
      "type": "function"
    },
    {
      "inputs": [],
      "name": "SVS_PUBLIC",
      "outputs": [
        {
          "internalType": "uint256",
          "name": "",
          "type": "uint256"
        }
      ],
      "stateMutability": "view",
      "type": "function"
    },
    {
      "inputs": [],
      "name": "SVS_PUBLIC_PER_SALER",
      "outputs": [
        {
          "internalType": "uint256",
          "name": "",
          "type": "uint256"
        }
      ],
      "stateMutability": "view",
      "type": "function"
    },
    {
      "inputs": [
        {
          "internalType": "address[]",
          "name": "entries",
          "type": "address[]"
        },
        {
          "internalType": "uint256[]",
          "name": "maxAmounts",
          "type": "uint256[]"
        }
      ],
      "name": "addToPresaleList",
      "outputs": [],
      "stateMutability": "nonpayable",
      "type": "function"
    },
    {
      "inputs": [
        {
          "internalType": "address",
          "name": "to",
          "type": "address"
        },
        {
          "internalType": "uint256",
          "name": "tokenId",
          "type": "uint256"
        }
      ],
      "name": "approve",
      "outputs": [],
      "stateMutability": "nonpayable",
      "type": "function"
    },
    {
      "inputs": [
        {
          "internalType": "address",
          "name": "owner",
          "type": "address"
        }
      ],
      "name": "balanceOf",
      "outputs": [
        {
          "internalType": "uint256",
          "name": "",
          "type": "uint256"
        }
      ],
      "stateMutability": "view",
      "type": "function"
    },
    {
      "inputs": [
        {
          "internalType": "uint256",
          "name": "tokenQuantity",
          "type": "uint256"
        }
      ],
      "name": "buy",
      "outputs": [],
      "stateMutability": "payable",
      "type": "function"
    },
    {
      "inputs": [],
      "name": "contractURI",
      "outputs": [
        {
          "internalType": "string",
          "name": "",
          "type": "string"
        }
      ],
      "stateMutability": "view",
      "type": "function"
    },
    {
      "inputs": [
        {
          "internalType": "uint256",
          "name": "tokenId",
          "type": "uint256"
        }
      ],
      "name": "getApproved",
      "outputs": [
        {
          "internalType": "address",
          "name": "",
          "type": "address"
        }
      ],
      "stateMutability": "view",
      "type": "function"
    },
    {
      "inputs": [
        {
          "internalType": "address[]",
          "name": "receivers",
          "type": "address[]"
        }
      ],
      "name": "gift",
      "outputs": [],
      "stateMutability": "nonpayable",
      "type": "function"
    },
    {
      "inputs": [],
      "name": "giftedAmount",
      "outputs": [
        {
          "internalType": "uint256",
          "name": "",
          "type": "uint256"
        }
      ],
      "stateMutability": "view",
      "type": "function"
    },
    {
      "inputs": [
        {
          "internalType": "address",
          "name": "owner",
          "type": "address"
        },
        {
          "internalType": "address",
          "name": "operator",
          "type": "address"
        }
      ],
      "name": "isApprovedForAll",
      "outputs": [
        {
          "internalType": "bool",
          "name": "",
          "type": "bool"
        }
      ],
      "stateMutability": "view",
      "type": "function"
    },
    {
      "inputs": [],
      "name": "isPresaleActive",
      "outputs": [
        {
          "internalType": "bool",
          "name": "",
          "type": "bool"
        }
      ],
      "stateMutability": "view",
      "type": "function"
    },
    {
      "inputs": [
        {
          "internalType": "address",
          "name": "addr",
          "type": "address"
        }
      ],
      "name": "isPresaler",
      "outputs": [
        {
          "internalType": "bool",
          "name": "",
          "type": "bool"
        }
      ],
      "stateMutability": "view",
      "type": "function"
    },
    {
      "inputs": [],
      "name": "isSaleActive",
      "outputs": [
        {
          "internalType": "bool",
          "name": "",
          "type": "bool"
        }
      ],
      "stateMutability": "view",
      "type": "function"
    },
    {
      "inputs": [],
      "name": "name",
      "outputs": [
        {
          "internalType": "string",
          "name": "",
          "type": "string"
        }
      ],
      "stateMutability": "view",
      "type": "function"
    },
    {
      "inputs": [],
      "name": "owner",
      "outputs": [
        {
          "internalType": "address",
          "name": "",
          "type": "address"
        }
      ],
      "stateMutability": "view",
      "type": "function"
    },
    {
      "inputs": [
        {
          "internalType": "uint256",
          "name": "tokenId",
          "type": "uint256"
        }
      ],
      "name": "ownerOf",
      "outputs": [
        {
          "internalType": "address",
          "name": "",
          "type": "address"
        }
      ],
      "stateMutability": "view",
      "type": "function"
    },
    {
      "inputs": [
        {
          "internalType": "uint256",
          "name": "tokenQuantity",
          "type": "uint256"
        }
      ],
      "name": "presaleBuy",
      "outputs": [],
      "stateMutability": "payable",
      "type": "function"
    },
    {
      "inputs": [],
      "name": "presaleLive",
      "outputs": [
        {
          "internalType": "bool",
          "name": "",
          "type": "bool"
        }
      ],
      "stateMutability": "view",
      "type": "function"
    },
    {
      "inputs": [
        {
          "internalType": "address",
          "name": "addr",
          "type": "address"
        }
      ],
      "name": "presalePurchasedCount",
      "outputs": [
        {
          "internalType": "uint256",
          "name": "",
          "type": "uint256"
        }
      ],
      "stateMutability": "view",
      "type": "function"
    },
    {
      "inputs": [
        {
          "internalType": "address",
          "name": "",
          "type": "address"
        }
      ],
      "name": "presalerList",
      "outputs": [
        {
          "internalType": "uint256",
          "name": "",
          "type": "uint256"
        }
      ],
      "stateMutability": "view",
      "type": "function"
    },
    {
      "inputs": [
        {
          "internalType": "address",
          "name": "",
          "type": "address"
        }
      ],
      "name": "presalerListPurchases",
      "outputs": [
        {
          "internalType": "uint256",
          "name": "",
          "type": "uint256"
        }
      ],
      "stateMutability": "view",
      "type": "function"
    },
    {
      "inputs": [],
      "name": "privateAmountMinted",
      "outputs": [
        {
          "internalType": "uint256",
          "name": "",
          "type": "uint256"
        }
      ],
      "stateMutability": "view",
      "type": "function"
    },
    {
      "inputs": [],
      "name": "proof",
      "outputs": [
        {
          "internalType": "string",
          "name": "",
          "type": "string"
        }
      ],
      "stateMutability": "view",
      "type": "function"
    },
    {
      "inputs": [],
      "name": "publicAmountMinted",
      "outputs": [
        {
          "internalType": "uint256",
          "name": "",
          "type": "uint256"
        }
      ],
      "stateMutability": "view",
      "type": "function"
    },
    {
      "inputs": [
        {
          "internalType": "address[]",
          "name": "entries",
          "type": "address[]"
        }
      ],
      "name": "removeFromPresaleList",
      "outputs": [],
      "stateMutability": "nonpayable",
      "type": "function"
    },
    {
      "inputs": [],
      "name": "renounceOwnership",
      "outputs": [],
      "stateMutability": "nonpayable",
      "type": "function"
    },
    {
      "inputs": [
        {
          "internalType": "address",
          "name": "from",
          "type": "address"
        },
        {
          "internalType": "address",
          "name": "to",
          "type": "address"
        },
        {
          "internalType": "uint256",
          "name": "tokenId",
          "type": "uint256"
        }
      ],
      "name": "safeTransferFrom",
      "outputs": [],
      "stateMutability": "nonpayable",
      "type": "function"
    },
    {
      "inputs": [
        {
          "internalType": "address",
          "name": "from",
          "type": "address"
        },
        {
          "internalType": "address",
          "name": "to",
          "type": "address"
        },
        {
          "internalType": "uint256",
          "name": "tokenId",
          "type": "uint256"
        },
        {
          "internalType": "bytes",
          "name": "_data",
          "type": "bytes"
        }
      ],
      "name": "safeTransferFrom",
      "outputs": [],
      "stateMutability": "nonpayable",
      "type": "function"
    },
    {
      "inputs": [],
      "name": "saleLive",
      "outputs": [
        {
          "internalType": "bool",
          "name": "",
          "type": "bool"
        }
      ],
      "stateMutability": "view",
      "type": "function"
    },
    {
      "inputs": [
        {
          "internalType": "address",
          "name": "",
          "type": "address"
        }
      ],
      "name": "salerListPurchases",
      "outputs": [
        {
          "internalType": "uint256",
          "name": "",
          "type": "uint256"
        }
      ],
      "stateMutability": "view",
      "type": "function"
    },
    {
      "inputs": [
        {
          "internalType": "address",
          "name": "operator",
          "type": "address"
        },
        {
          "internalType": "bool",
          "name": "approved",
          "type": "bool"
        }
      ],
      "name": "setApprovalForAll",
      "outputs": [],
      "stateMutability": "nonpayable",
      "type": "function"
    },
    {
      "inputs": [
        {
          "internalType": "string",
          "name": "URI",
          "type": "string"
        }
      ],
      "name": "setBaseURI",
      "outputs": [],
      "stateMutability": "nonpayable",
      "type": "function"
    },
    {
      "inputs": [
        {
          "internalType": "string",
          "name": "URI",
          "type": "string"
        }
      ],
      "name": "setContractURI",
      "outputs": [],
      "stateMutability": "nonpayable",
      "type": "function"
    },
    {
      "inputs": [
        {
          "internalType": "string",
          "name": "URI",
          "type": "string"
        }
      ],
      "name": "setDefaultBaseURI",
      "outputs": [],
      "stateMutability": "nonpayable",
      "type": "function"
    },
    {
      "inputs": [
        {
          "internalType": "string",
          "name": "hash",
          "type": "string"
        }
      ],
      "name": "setProvenanceHash",
      "outputs": [],
      "stateMutability": "nonpayable",
      "type": "function"
    },
    {
      "inputs": [
        {
          "internalType": "bytes4",
          "name": "interfaceId",
          "type": "bytes4"
        }
      ],
      "name": "supportsInterface",
      "outputs": [
        {
          "internalType": "bool",
          "name": "",
          "type": "bool"
        }
      ],
      "stateMutability": "view",
      "type": "function"
    },
    {
      "inputs": [],
      "name": "symbol",
      "outputs": [
        {
          "internalType": "string",
          "name": "",
          "type": "string"
        }
      ],
      "stateMutability": "view",
      "type": "function"
    },
    {
      "inputs": [],
      "name": "togglePresaleStatus",
      "outputs": [],
      "stateMutability": "nonpayable",
      "type": "function"
    },
    {
      "inputs": [],
      "name": "toggleSaleStatus",
      "outputs": [],
      "stateMutability": "nonpayable",
      "type": "function"
    },
    {
      "inputs": [
        {
          "internalType": "uint256",
          "name": "index",
          "type": "uint256"
        }
      ],
      "name": "tokenByIndex",
      "outputs": [
        {
          "internalType": "uint256",
          "name": "",
          "type": "uint256"
        }
      ],
      "stateMutability": "view",
      "type": "function"
    },
    {
      "inputs": [
        {
          "internalType": "address",
          "name": "owner",
          "type": "address"
        },
        {
          "internalType": "uint256",
          "name": "index",
          "type": "uint256"
        }
      ],
      "name": "tokenOfOwnerByIndex",
      "outputs": [
        {
          "internalType": "uint256",
          "name": "",
          "type": "uint256"
        }
      ],
      "stateMutability": "view",
      "type": "function"
    },
    {
      "inputs": [
        {
          "internalType": "uint256",
          "name": "tokenId",
          "type": "uint256"
        }
      ],
      "name": "tokenURI",
      "outputs": [
        {
          "internalType": "string",
          "name": "",
          "type": "string"
        }
      ],
      "stateMutability": "view",
      "type": "function"
    },
    {
      "inputs": [],
      "name": "totalSupply",
      "outputs": [
        {
          "internalType": "uint256",
          "name": "",
          "type": "uint256"
        }
      ],
      "stateMutability": "view",
      "type": "function"
    },
    {
      "inputs": [
        {
          "internalType": "address",
          "name": "from",
          "type": "address"
        },
        {
          "internalType": "address",
          "name": "to",
          "type": "address"
        },
        {
          "internalType": "uint256",
          "name": "tokenId",
          "type": "uint256"
        }
      ],
      "name": "transferFrom",
      "outputs": [],
      "stateMutability": "nonpayable",
      "type": "function"
    },
    {
      "inputs": [
        {
          "internalType": "address",
          "name": "newOwner",
          "type": "address"
        }
      ],
      "name": "transferOwnership",
      "outputs": [],
      "stateMutability": "nonpayable",
      "type": "function"
    },
    {
      "inputs": [],
      "name": "withdraw",
      "outputs": [],
      "stateMutability": "nonpayable",
      "type": "function"
    }
  ],
  "transactionHash": "0xb12be8d3f178bc5fe4dce87628a7ea106766c28520b9a4aadaa572a883afc325",
  "args": [
    ""
  ],
  "solcInputHash": "300df8b8dcbd3aac85a29599715d5120",
  "bytecode": "0x6080604052601180546001600160a01b03191673ea68212b0450a929b14726b90550933bc12ff8131790553480156200003757600080fd5b5060405162003718380380620037188339810160408190526200005a9162000206565b604080518082018252601881527f536e65616b792056616d706972652053796e646963617465000000000000000060208083019182528351808501909452600384526253565360e81b908401528151919291620000ba9160009162000160565b508051620000d090600190602084019062000160565b505050620000ed620000e76200010a60201b60201c565b6200010e565b80516200010290601090602084019062000160565b505062000335565b3390565b600a80546001600160a01b038381166001600160a01b0319831681179093556040519116919082907f8be0079c531659141344cd1fd0a4f28419497f9722a3daafe3b4186f6b6457e090600090a35050565b8280546200016e90620002e2565b90600052602060002090601f016020900481019282620001925760008555620001dd565b82601f10620001ad57805160ff1916838001178555620001dd565b82800160010185558215620001dd579182015b82811115620001dd578251825591602001919060010190620001c0565b50620001eb929150620001ef565b5090565b5b80821115620001eb5760008155600101620001f0565b600060208083850312156200021a57600080fd5b82516001600160401b03808211156200023257600080fd5b818501915085601f8301126200024757600080fd5b8151818111156200025c576200025c6200031f565b604051601f8201601f19908116603f011681019083821181831017156200028757620002876200031f565b816040528281528886848701011115620002a057600080fd5b600093505b82841015620002c45784840186015181850187015292850192620002a5565b82841115620002d65760008684830101525b98975050505050505050565b600181811c90821680620002f757607f821691505b602082108114156200031957634e487b7160e01b600052602260045260246000fd5b50919050565b634e487b7160e01b600052604160045260246000fd5b6133d380620003456000396000f3fe60806040526004361061033f5760003560e01c8063715018a6116101b0578063a22cb465116100ec578063dbf314cc11610095578063e985e9c51161006f578063e985e9c514610906578063f2fde38b1461094f578063fac2e3c11461096f578063faf924cf1461098457600080fd5b8063dbf314cc146108bd578063e081b781146108d2578063e8a3d485146108f157600080fd5b8063b88d4fde116100c6578063b88d4fde1461086a578063c87b56dd1461088a578063d96a094a146108aa57600080fd5b8063a22cb46514610814578063a29714da14610834578063b179e0601461084a57600080fd5b80638da5cb5b1161015957806395d89b411161013357806395d89b411461076d5780639bf80316146107825780639cf2e8d6146107af5780639e273b2f146107dc57600080fd5b80638da5cb5b14610719578063938e3d7b14610737578063940f1ada1461075757600080fd5b80637ed32dad1161018a5780637ed32dad146106d6578063815f7bbd146106ec57806383a9e049146106ff57600080fd5b8063715018a614610697578063730f8c65146106ac5780637bffb4ce146106c157600080fd5b806323b872dd1161027f578063564566a8116102285780635e391090116102025780635e3910901461061f57806360d938dc1461063f5780636352211e1461065757806370a082311461067757600080fd5b8063564566a8146105b657806359a12ad5146105d35780635ce7af1f146105e957600080fd5b806342842e0e1161025957806342842e0e146105565780634f6ccce71461057657806355f804b31461059657600080fd5b806323b872dd146105015780632f745c59146105215780633ccfd60b1461054157600080fd5b8063081812fc116102ec57806310969523116102c65780631096952314610496578063163e1e61146104b657806318160ddd146104d65780631b57190e146104eb57600080fd5b8063081812fc14610422578063083335981461045a578063095ea7b31461047657600080fd5b8063049c5c491161031d578063049c5c49146103be57806305af5732146103d357806306fdde031461040057600080fd5b806301e669721461034457806301f159201461036657806301ffc9a71461038e575b600080fd5b34801561035057600080fd5b5061036461035f366004613038565b610999565b005b34801561037257600080fd5b5061037b600581565b6040519081526020015b60405180910390f35b34801561039a57600080fd5b506103ae6103a9366004612ffe565b6109f7565b6040519015158152602001610385565b3480156103ca57600080fd5b50610364610a3b565b3480156103df57600080fd5b5061037b6103ee366004612d7d565b600d6020526000908152604090205481565b34801561040c57600080fd5b50610415610aa0565b60405161038591906131ee565b34801561042e57600080fd5b5061044261043d3660046130aa565b610b32565b6040516001600160a01b039091168152602001610385565b34801561046657600080fd5b5061037b67011c37937e08000081565b34801561048257600080fd5b50610364610491366004612f26565b610bc7565b3480156104a257600080fd5b506103646104b1366004613038565b610cf4565b3480156104c257600080fd5b506103646104d1366004612f50565b610d48565b3480156104e257600080fd5b5060085461037b565b3480156104f757600080fd5b5061037b60135481565b34801561050d57600080fd5b5061036461051c366004612dd2565b610edb565b34801561052d57600080fd5b5061037b61053c366004612f26565b610f62565b34801561054d57600080fd5b5061036461100a565b34801561056257600080fd5b50610364610571366004612dd2565b6110d0565b34801561058257600080fd5b5061037b6105913660046130aa565b6110eb565b3480156105a257600080fd5b506103646105b1366004613038565b61118f565b3480156105c257600080fd5b50601654610100900460ff166103ae565b3480156105df57600080fd5b5061037b60155481565b3480156105f557600080fd5b5061037b610604366004612d7d565b6001600160a01b03166000908152600c602052604090205490565b34801561062b57600080fd5b5061036461063a366004612f92565b6111e3565b34801561064b57600080fd5b5060165460ff166103ae565b34801561066357600080fd5b506104426106723660046130aa565b611347565b34801561068357600080fd5b5061037b610692366004612d7d565b6113d2565b3480156106a357600080fd5b5061036461146c565b3480156106b857600080fd5b5061037b600381565b3480156106cd57600080fd5b506103646114c0565b3480156106e257600080fd5b5061037b611f4081565b6103646106fa3660046130aa565b61151c565b34801561070b57600080fd5b506016546103ae9060ff1681565b34801561072557600080fd5b50600a546001600160a01b0316610442565b34801561074357600080fd5b50610364610752366004613038565b611838565b34801561076357600080fd5b5061037b60145481565b34801561077957600080fd5b5061041561188c565b34801561078e57600080fd5b5061037b61079d366004612d7d565b600c6020526000908152604090205481565b3480156107bb57600080fd5b5061037b6107ca366004612d7d565b600b6020526000908152604090205481565b3480156107e857600080fd5b506103ae6107f7366004612d7d565b6001600160a01b03166000908152600b6020526040902054151590565b34801561082057600080fd5b5061036461082f366004612eea565b61189b565b34801561084057600080fd5b5061037b61032081565b34801561085657600080fd5b50610364610865366004612f50565b611960565b34801561087657600080fd5b50610364610885366004612e0e565b611a4d565b34801561089657600080fd5b506104156108a53660046130aa565b611adb565b6103646108b83660046130aa565b611c19565b3480156108c957600080fd5b5061037b611f61565b3480156108de57600080fd5b506016546103ae90610100900460ff1681565b3480156108fd57600080fd5b50610415611f7e565b34801561091257600080fd5b506103ae610921366004612d9f565b6001600160a01b03918216600090815260056020908152604080832093909416825291909152205460ff1690565b34801561095b57600080fd5b5061036461096a366004612d7d565b611f8d565b34801561097b57600080fd5b5061037b605881565b34801561099057600080fd5b5061041561205a565b600a546001600160a01b031633146109e65760405162461bcd60e51b8152602060048201819052602482015260008051602061337e83398151915260448201526064015b60405180910390fd5b6109f260108383612c7c565b505050565b60006001600160e01b031982167f780e9d63000000000000000000000000000000000000000000000000000000001480610a355750610a35826120e8565b92915050565b600a546001600160a01b03163314610a835760405162461bcd60e51b8152602060048201819052602482015260008051602061337e83398151915260448201526064016109dd565b6016805461ff001981166101009182900460ff1615909102179055565b606060008054610aaf9061328f565b80601f0160208091040260200160405190810160405280929190818152602001828054610adb9061328f565b8015610b285780601f10610afd57610100808354040283529160200191610b28565b820191906000526020600020905b815481529060010190602001808311610b0b57829003601f168201915b5050505050905090565b6000818152600260205260408120546001600160a01b0316610bab5760405162461bcd60e51b815260206004820152602c60248201527f4552433732313a20617070726f76656420717565727920666f72206e6f6e657860448201526b34b9ba32b73a103a37b5b2b760a11b60648201526084016109dd565b506000908152600460205260409020546001600160a01b031690565b6000610bd282611347565b9050806001600160a01b0316836001600160a01b03161415610c5c5760405162461bcd60e51b815260206004820152602160248201527f4552433732313a20617070726f76616c20746f2063757272656e74206f776e6560448201527f720000000000000000000000000000000000000000000000000000000000000060648201526084016109dd565b336001600160a01b0382161480610c785750610c788133610921565b610cea5760405162461bcd60e51b815260206004820152603860248201527f4552433732313a20617070726f76652063616c6c6572206973206e6f74206f7760448201527f6e6572206e6f7220617070726f76656420666f7220616c6c000000000000000060648201526084016109dd565b6109f28383612183565b600a546001600160a01b03163314610d3c5760405162461bcd60e51b8152602060048201819052602482015260008051602061337e83398151915260448201526064016109dd565b6109f260128383612c7c565b600a546001600160a01b03163314610d905760405162461bcd60e51b8152602060048201819052602482015260008051602061337e83398151915260448201526064016109dd565b610320610da0611f406058613201565b610daa9190613201565b81610db460085490565b610dbe9190613201565b1115610e0c5760405162461bcd60e51b815260206004820152600860248201527f4d41585f4d494e5400000000000000000000000000000000000000000000000060448201526064016109dd565b601354605890610e1d908390613201565b1115610e6b5760405162461bcd60e51b815260206004820152600b60248201527f47494654535f454d50545900000000000000000000000000000000000000000060448201526064016109dd565b60005b818110156109f25760138054906000610e86836132ca565b9190505550610ec9838383818110610ea057610ea061333b565b9050602002016020810190610eb59190612d7d565b6008545b610ec4906001613201565b6121fe565b80610ed3816132ca565b915050610e6e565b610ee53382612218565b610f575760405162461bcd60e51b815260206004820152603160248201527f4552433732313a207472616e736665722063616c6c6572206973206e6f74206f60448201527f776e6572206e6f7220617070726f76656400000000000000000000000000000060648201526084016109dd565b6109f283838361230f565b6000610f6d836113d2565b8210610fe15760405162461bcd60e51b815260206004820152602b60248201527f455243373231456e756d657261626c653a206f776e657220696e646578206f7560448201527f74206f6620626f756e647300000000000000000000000000000000000000000060648201526084016109dd565b506001600160a01b03919091166000908152600660209081526040808320938352929052205490565b600a546001600160a01b031633146110525760405162461bcd60e51b8152602060048201819052602482015260008051602061337e83398151915260448201526064016109dd565b6011546001600160a01b03166108fc600561106e47600261322d565b6110789190613219565b6040518115909202916000818181858888f193505050501580156110a0573d6000803e3d6000fd5b5060405133904780156108fc02916000818181858888f193505050501580156110cd573d6000803e3d6000fd5b50565b6109f283838360405180602001604052806000815250611a4d565b60006110f660085490565b821061116a5760405162461bcd60e51b815260206004820152602c60248201527f455243373231456e756d657261626c653a20676c6f62616c20696e646578206f60448201527f7574206f6620626f756e6473000000000000000000000000000000000000000060648201526084016109dd565b6008828154811061117d5761117d61333b565b90600052602060002001549050919050565b600a546001600160a01b031633146111d75760405162461bcd60e51b8152602060048201819052602482015260008051602061337e83398151915260448201526064016109dd565b6109f2600f8383612c7c565b600a546001600160a01b0316331461122b5760405162461bcd60e51b8152602060048201819052602482015260008051602061337e83398151915260448201526064016109dd565b82811461127a5760405162461bcd60e51b815260206004820152600e60248201527f444946464552454e545f53495a4500000000000000000000000000000000000060448201526064016109dd565b60005b838110156113405760008585838181106112995761129961333b565b90506020020160208101906112ae9190612d7d565b90506001600160a01b0381166112f55760405162461bcd60e51b815260206004820152600c60248201526b4e554c4c5f4144445245535360a01b60448201526064016109dd565b8383838181106113075761130761333b565b6001600160a01b039093166000908152600b60209081526040909120930291909101359091555080611338816132ca565b91505061127d565b5050505050565b6000818152600260205260408120546001600160a01b031680610a355760405162461bcd60e51b815260206004820152602960248201527f4552433732313a206f776e657220717565727920666f72206e6f6e657869737460448201527f656e7420746f6b656e000000000000000000000000000000000000000000000060648201526084016109dd565b60006001600160a01b0382166114505760405162461bcd60e51b815260206004820152602a60248201527f4552433732313a2062616c616e636520717565727920666f7220746865207a6560448201527f726f20616464726573730000000000000000000000000000000000000000000060648201526084016109dd565b506001600160a01b031660009081526003602052604090205490565b600a546001600160a01b031633146114b45760405162461bcd60e51b8152602060048201819052602482015260008051602061337e83398151915260448201526064016109dd565b6114be60006124f4565b565b600a546001600160a01b031633146115085760405162461bcd60e51b8152602060048201819052602482015260008051602061337e83398151915260448201526064016109dd565b6016805460ff19811660ff90911615179055565b601654610100900460ff16158015611536575060165460ff165b6115825760405162461bcd60e51b815260206004820152601560248201527f5468652070726573616c6520697320636c6f736564000000000000000000000060448201526064016109dd565b336000908152600b60205260409020546116045760405162461bcd60e51b815260206004820152602560248201527f596f7520617265206e6f74207175616c696669656420666f722074686520707260448201527f6573616c6500000000000000000000000000000000000000000000000000000060648201526084016109dd565b610320611614611f406058613201565b61161e9190613201565b6008541061166e5760405162461bcd60e51b815260206004820152601760248201527f416c6c2056616d706972657320617265206d696e74656400000000000000000060448201526064016109dd565b6103208160155461167f9190613201565b11156116f35760405162461bcd60e51b815260206004820152602b60248201527f4d696e74696e6720776f756c6420657863656564207468652070726573616c6560448201527f20616c6c6f636174696f6e00000000000000000000000000000000000000000060648201526084016109dd565b336000908152600b6020908152604080832054600c9092529091205461171a908390613201565b11156117745760405162461bcd60e51b8152602060048201526024808201527f596f752063616e206e6f74206d696e742065786365656473206d6178696d756d6044820152630813919560e21b60648201526084016109dd565b346117878267011c37937e08000061322d565b11156117d55760405162461bcd60e51b815260206004820152601560248201527f496e73756666696369656e74204554482073656e74000000000000000000000060448201526064016109dd565b60005b8181101561183457601580549060006117f0836132ca565b9091555050336000908152600c60205260408120805491611810836132ca565b919050555061182233610eb960085490565b8061182c816132ca565b9150506117d8565b5050565b600a546001600160a01b031633146118805760405162461bcd60e51b8152602060048201819052602482015260008051602061337e83398151915260448201526064016109dd565b6109f2600e8383612c7c565b606060018054610aaf9061328f565b6001600160a01b0382163314156118f45760405162461bcd60e51b815260206004820152601960248201527f4552433732313a20617070726f766520746f2063616c6c65720000000000000060448201526064016109dd565b3360008181526005602090815260408083206001600160a01b03871680855290835292819020805460ff191686151590811790915590519081529192917f17307eab39ab6107e8899845ad3d59bd9653f200f220920489ca2b5937696c31910160405180910390a35050565b600a546001600160a01b031633146119a85760405162461bcd60e51b8152602060048201819052602482015260008051602061337e83398151915260448201526064016109dd565b60005b818110156109f25760008383838181106119c7576119c761333b565b90506020020160208101906119dc9190612d7d565b90506001600160a01b038116611a235760405162461bcd60e51b815260206004820152600c60248201526b4e554c4c5f4144445245535360a01b60448201526064016109dd565b6001600160a01b03166000908152600b602052604081205580611a45816132ca565b9150506119ab565b611a573383612218565b611ac95760405162461bcd60e51b815260206004820152603160248201527f4552433732313a207472616e736665722063616c6c6572206973206e6f74206f60448201527f776e6572206e6f7220617070726f76656400000000000000000000000000000060648201526084016109dd565b611ad584848484612553565b50505050565b6000818152600260205260409020546060906001600160a01b0316611b425760405162461bcd60e51b815260206004820152601f60248201527f43616e6e6f74207175657279206e6f6e2d6578697374656e7420746f6b656e0060448201526064016109dd565b6000600f8054611b519061328f565b905011611be85760108054611b659061328f565b80601f0160208091040260200160405190810160405280929190818152602001828054611b919061328f565b8015611bde5780601f10611bb357610100808354040283529160200191611bde565b820191906000526020600020905b815481529060010190602001808311611bc157829003601f168201915b5050505050610a35565b600f611bf3836125d1565b604051602001611c0492919061310b565b60405160208183030381529060405292915050565b601654610100900460ff16611c705760405162461bcd60e51b815260206004820152601060248201527f53616c65206973206e6f74206c6976650000000000000000000000000000000060448201526064016109dd565b60165460ff1615611cc35760405162461bcd60e51b815260206004820152601660248201527f4f6e6c792070726573616c6572732063616e206275790000000000000000000060448201526064016109dd565b610320611cd3611f406058613201565b611cdd9190613201565b60085410611d2d5760405162461bcd60e51b815260206004820152601760248201527f416c6c2056616d706972657320617265206d696e74656400000000000000000060448201526064016109dd565b611f4081601454611d3e9190613201565b1115611db25760405162461bcd60e51b815260206004820152602960248201527f4d696e74696e6720776f756c642065786365656420746865206d61782070756260448201527f696320737570706c79000000000000000000000000000000000000000000000060648201526084016109dd565b6003811115611e295760405162461bcd60e51b815260206004820152602e60248201527f596f752063616e206d696e7420757020746f2031302056616d7069726573207060448201527f6572207472616e73616374696f6e00000000000000000000000000000000000060648201526084016109dd565b336000908152600d6020526040902054600590611e47908390613201565b1115611ea15760405162461bcd60e51b8152602060048201526024808201527f596f752063616e206e6f74206d696e742065786365656473206d6178696d756d6044820152630813919560e21b60648201526084016109dd565b34611eb48267011c37937e08000061322d565b1115611f025760405162461bcd60e51b815260206004820152601560248201527f496e73756666696369656e74204554482073656e74000000000000000000000060448201526064016109dd565b60005b818110156118345760148054906000611f1d836132ca565b9091555050336000908152600d60205260408120805491611f3d836132ca565b9190505550611f4f33610eb960085490565b80611f59816132ca565b915050611f05565b610320611f71611f406058613201565b611f7b9190613201565b81565b6060600e8054610aaf9061328f565b600a546001600160a01b03163314611fd55760405162461bcd60e51b8152602060048201819052602482015260008051602061337e83398151915260448201526064016109dd565b6001600160a01b0381166120515760405162461bcd60e51b815260206004820152602660248201527f4f776e61626c653a206e6577206f776e657220697320746865207a65726f206160448201527f646472657373000000000000000000000000000000000000000000000000000060648201526084016109dd565b6110cd816124f4565b601280546120679061328f565b80601f01602080910402602001604051908101604052809291908181526020018280546120939061328f565b80156120e05780601f106120b5576101008083540402835291602001916120e0565b820191906000526020600020905b8154815290600101906020018083116120c357829003601f168201915b505050505081565b60006001600160e01b031982167f80ac58cd00000000000000000000000000000000000000000000000000000000148061214b57506001600160e01b031982167f5b5e139f00000000000000000000000000000000000000000000000000000000145b80610a3557507f01ffc9a7000000000000000000000000000000000000000000000000000000006001600160e01b0319831614610a35565b6000818152600460205260409020805473ffffffffffffffffffffffffffffffffffffffff19166001600160a01b03841690811790915581906121c582611347565b6001600160a01b03167f8c5be1e5ebec7d5bd14f71427d1e84f3dd0314c0f7b2291e5b200ac8c7c3b92560405160405180910390a45050565b611834828260405180602001604052806000815250612703565b6000818152600260205260408120546001600160a01b03166122915760405162461bcd60e51b815260206004820152602c60248201527f4552433732313a206f70657261746f7220717565727920666f72206e6f6e657860448201526b34b9ba32b73a103a37b5b2b760a11b60648201526084016109dd565b600061229c83611347565b9050806001600160a01b0316846001600160a01b031614806122d75750836001600160a01b03166122cc84610b32565b6001600160a01b0316145b8061230757506001600160a01b0380821660009081526005602090815260408083209388168352929052205460ff165b949350505050565b826001600160a01b031661232282611347565b6001600160a01b03161461239e5760405162461bcd60e51b815260206004820152602960248201527f4552433732313a207472616e73666572206f6620746f6b656e2074686174206960448201527f73206e6f74206f776e000000000000000000000000000000000000000000000060648201526084016109dd565b6001600160a01b0382166124195760405162461bcd60e51b8152602060048201526024808201527f4552433732313a207472616e7366657220746f20746865207a65726f2061646460448201527f726573730000000000000000000000000000000000000000000000000000000060648201526084016109dd565b612424838383612781565b61242f600082612183565b6001600160a01b038316600090815260036020526040812080546001929061245890849061324c565b90915550506001600160a01b0382166000908152600360205260408120805460019290612486908490613201565b9091555050600081815260026020526040808220805473ffffffffffffffffffffffffffffffffffffffff19166001600160a01b0386811691821790925591518493918716917fddf252ad1be2c89b69c2b068fc378daa952ba7f163c4a11628f55a4df523b3ef91a4505050565b600a80546001600160a01b0383811673ffffffffffffffffffffffffffffffffffffffff19831681179093556040519116919082907f8be0079c531659141344cd1fd0a4f28419497f9722a3daafe3b4186f6b6457e090600090a35050565b61255e84848461230f565b61256a84848484612839565b611ad55760405162461bcd60e51b815260206004820152603260248201527f4552433732313a207472616e7366657220746f206e6f6e20455243373231526560448201527131b2b4bb32b91034b6b83632b6b2b73a32b960711b60648201526084016109dd565b60608161261157505060408051808201909152600181527f3000000000000000000000000000000000000000000000000000000000000000602082015290565b8160005b811561263b5780612625816132ca565b91506126349050600a83613219565b9150612615565b60008167ffffffffffffffff81111561265657612656613351565b6040519080825280601f01601f191660200182016040528015612680576020820181803683370190505b5090505b84156123075761269560018361324c565b91506126a2600a866132e5565b6126ad906030613201565b60f81b8183815181106126c2576126c261333b565b60200101907effffffffffffffffffffffffffffffffffffffffffffffffffffffffffffff1916908160001a9053506126fc600a86613219565b9450612684565b61270d8383612991565b61271a6000848484612839565b6109f25760405162461bcd60e51b815260206004820152603260248201527f4552433732313a207472616e7366657220746f206e6f6e20455243373231526560448201527131b2b4bb32b91034b6b83632b6b2b73a32b960711b60648201526084016109dd565b6001600160a01b0383166127dc576127d781600880546000838152600960205260408120829055600182018355919091527ff3f7a9fe364faab93b216da50a3214154f22a0a2b415b23a84c8169e8b636ee30155565b6127ff565b816001600160a01b0316836001600160a01b0316146127ff576127ff8382612aec565b6001600160a01b038216612816576109f281612b89565b826001600160a01b0316826001600160a01b0316146109f2576109f28282612c38565b60006001600160a01b0384163b1561298657604051630a85bd0160e11b81526001600160a01b0385169063150b7a029061287d9033908990889088906004016131b2565b602060405180830381600087803b15801561289757600080fd5b505af19250505080156128c7575060408051601f3d908101601f191682019092526128c49181019061301b565b60015b61296c573d8080156128f5576040519150601f19603f3d011682016040523d82523d6000602084013e6128fa565b606091505b5080516129645760405162461bcd60e51b815260206004820152603260248201527f4552433732313a207472616e7366657220746f206e6f6e20455243373231526560448201527131b2b4bb32b91034b6b83632b6b2b73a32b960711b60648201526084016109dd565b805181602001fd5b6001600160e01b031916630a85bd0160e11b149050612307565b506001949350505050565b6001600160a01b0382166129e75760405162461bcd60e51b815260206004820181905260248201527f4552433732313a206d696e7420746f20746865207a65726f206164647265737360448201526064016109dd565b6000818152600260205260409020546001600160a01b031615612a4c5760405162461bcd60e51b815260206004820152601c60248201527f4552433732313a20746f6b656e20616c7265616479206d696e7465640000000060448201526064016109dd565b612a5860008383612781565b6001600160a01b0382166000908152600360205260408120805460019290612a81908490613201565b9091555050600081815260026020526040808220805473ffffffffffffffffffffffffffffffffffffffff19166001600160a01b03861690811790915590518392907fddf252ad1be2c89b69c2b068fc378daa952ba7f163c4a11628f55a4df523b3ef908290a45050565b60006001612af9846113d2565b612b03919061324c565b600083815260076020526040902054909150808214612b56576001600160a01b03841660009081526006602090815260408083208584528252808320548484528184208190558352600790915290208190555b5060009182526007602090815260408084208490556001600160a01b039094168352600681528383209183525290812055565b600854600090612b9b9060019061324c565b60008381526009602052604081205460088054939450909284908110612bc357612bc361333b565b906000526020600020015490508060088381548110612be457612be461333b565b6000918252602080832090910192909255828152600990915260408082208490558582528120556008805480612c1c57612c1c613325565b6001900381819060005260206000200160009055905550505050565b6000612c43836113d2565b6001600160a01b039093166000908152600660209081526040808320868452825280832085905593825260079052919091209190915550565b828054612c889061328f565b90600052602060002090601f016020900481019282612caa5760008555612cf0565b82601f10612cc35782800160ff19823516178555612cf0565b82800160010185558215612cf0579182015b82811115612cf0578235825591602001919060010190612cd5565b50612cfc929150612d00565b5090565b5b80821115612cfc5760008155600101612d01565b80356001600160a01b0381168114612d2c57600080fd5b919050565b60008083601f840112612d4357600080fd5b50813567ffffffffffffffff811115612d5b57600080fd5b6020830191508360208260051b8501011115612d7657600080fd5b9250929050565b600060208284031215612d8f57600080fd5b612d9882612d15565b9392505050565b60008060408385031215612db257600080fd5b612dbb83612d15565b9150612dc960208401612d15565b90509250929050565b600080600060608486031215612de757600080fd5b612df084612d15565b9250612dfe60208501612d15565b9150604084013590509250925092565b60008060008060808587031215612e2457600080fd5b612e2d85612d15565b9350612e3b60208601612d15565b925060408501359150606085013567ffffffffffffffff80821115612e5f57600080fd5b818701915087601f830112612e7357600080fd5b813581811115612e8557612e85613351565b604051601f8201601f19908116603f01168101908382118183101715612ead57612ead613351565b816040528281528a6020848701011115612ec657600080fd5b82602086016020830137600060208483010152809550505050505092959194509250565b60008060408385031215612efd57600080fd5b612f0683612d15565b915060208301358015158114612f1b57600080fd5b809150509250929050565b60008060408385031215612f3957600080fd5b612f4283612d15565b946020939093013593505050565b60008060208385031215612f6357600080fd5b823567ffffffffffffffff811115612f7a57600080fd5b612f8685828601612d31565b90969095509350505050565b60008060008060408587031215612fa857600080fd5b843567ffffffffffffffff80821115612fc057600080fd5b612fcc88838901612d31565b90965094506020870135915080821115612fe557600080fd5b50612ff287828801612d31565b95989497509550505050565b60006020828403121561301057600080fd5b8135612d9881613367565b60006020828403121561302d57600080fd5b8151612d9881613367565b6000806020838503121561304b57600080fd5b823567ffffffffffffffff8082111561306357600080fd5b818501915085601f83011261307757600080fd5b81358181111561308657600080fd5b86602082850101111561309857600080fd5b60209290920196919550909350505050565b6000602082840312156130bc57600080fd5b5035919050565b600081518084526130db816020860160208601613263565b601f01601f19169290920160200192915050565b60008151613101818560208601613263565b9290920192915050565b600080845481600182811c91508083168061312757607f831692505b602080841082141561314757634e487b7160e01b86526022600452602486fd5b81801561315b576001811461316c57613199565b60ff19861689528489019650613199565b60008b81526020902060005b868110156131915781548b820152908501908301613178565b505084890196505b5050505050506131a981856130ef565b95945050505050565b60006001600160a01b038087168352808616602084015250836040830152608060608301526131e460808301846130c3565b9695505050505050565b602081526000612d9860208301846130c3565b60008219821115613214576132146132f9565b500190565b6000826132285761322861330f565b500490565b6000816000190483118215151615613247576132476132f9565b500290565b60008282101561325e5761325e6132f9565b500390565b60005b8381101561327e578181015183820152602001613266565b83811115611ad55750506000910152565b600181811c908216806132a357607f821691505b602082108114156132c457634e487b7160e01b600052602260045260246000fd5b50919050565b60006000198214156132de576132de6132f9565b5060010190565b6000826132f4576132f461330f565b500690565b634e487b7160e01b600052601160045260246000fd5b634e487b7160e01b600052601260045260246000fd5b634e487b7160e01b600052603160045260246000fd5b634e487b7160e01b600052603260045260246000fd5b634e487b7160e01b600052604160045260246000fd5b6001600160e01b0319811681146110cd57600080fdfe4f776e61626c653a2063616c6c6572206973206e6f7420746865206f776e6572a26469706673582212208d3b9969d3e7b48adb99b08e502633e14225e75e2e60a0350ef2024ccbbd22fc64736f6c63430008070033",
  "devdoc": {
    "kind": "dev",
    "methods": {
      "approve(address,uint256)": {
        "details": "See {IERC721-approve}."
      },
      "balanceOf(address)": {
        "details": "See {IERC721-balanceOf}."
      },
      "getApproved(uint256)": {
        "details": "See {IERC721-getApproved}."
      },
      "isApprovedForAll(address,address)": {
        "details": "See {IERC721-isApprovedForAll}."
      },
      "name()": {
        "details": "See {IERC721Metadata-name}."
      },
      "owner()": {
        "details": "Returns the address of the current owner."
      },
      "ownerOf(uint256)": {
        "details": "See {IERC721-ownerOf}."
      },
      "renounceOwnership()": {
        "details": "Leaves the contract without owner. It will not be possible to call `onlyOwner` functions anymore. Can only be called by the current owner. NOTE: Renouncing ownership will leave the contract without an owner, thereby removing any functionality that is only available to the owner."
      },
      "safeTransferFrom(address,address,uint256)": {
        "details": "See {IERC721-safeTransferFrom}."
      },
      "safeTransferFrom(address,address,uint256,bytes)": {
        "details": "See {IERC721-safeTransferFrom}."
      },
      "setApprovalForAll(address,bool)": {
        "details": "See {IERC721-setApprovalForAll}."
      },
      "supportsInterface(bytes4)": {
        "details": "See {IERC165-supportsInterface}."
      },
      "symbol()": {
        "details": "See {IERC721Metadata-symbol}."
      },
      "tokenByIndex(uint256)": {
        "details": "See {IERC721Enumerable-tokenByIndex}."
      },
      "tokenOfOwnerByIndex(address,uint256)": {
        "details": "See {IERC721Enumerable-tokenOfOwnerByIndex}."
      },
      "tokenURI(uint256)": {
        "details": "See {IERC721Metadata-tokenURI}."
      },
      "totalSupply()": {
        "details": "See {IERC721Enumerable-totalSupply}."
      },
      "transferFrom(address,address,uint256)": {
        "details": "See {IERC721-transferFrom}."
      },
      "transferOwnership(address)": {
        "details": "Transfers ownership of the contract to a new account (`newOwner`). Can only be called by the current owner."
      }
    },
    "version": 1
  },
  "userdoc": {
    "kind": "user",
    "methods": {},
    "version": 1
  },
  "storageLayout": {
    "storage": [
      {
        "astId": 129,
        "contract": "contracts/SneakyVampireSyndicate.sol:SneakyVampireSyndicate",
        "label": "_name",
        "offset": 0,
        "slot": "0",
        "type": "t_string_storage"
      },
      {
        "astId": 131,
        "contract": "contracts/SneakyVampireSyndicate.sol:SneakyVampireSyndicate",
        "label": "_symbol",
        "offset": 0,
        "slot": "1",
        "type": "t_string_storage"
      },
      {
        "astId": 135,
        "contract": "contracts/SneakyVampireSyndicate.sol:SneakyVampireSyndicate",
        "label": "_owners",
        "offset": 0,
        "slot": "2",
        "type": "t_mapping(t_uint256,t_address)"
      },
      {
        "astId": 139,
        "contract": "contracts/SneakyVampireSyndicate.sol:SneakyVampireSyndicate",
        "label": "_balances",
        "offset": 0,
        "slot": "3",
        "type": "t_mapping(t_address,t_uint256)"
      },
      {
        "astId": 143,
        "contract": "contracts/SneakyVampireSyndicate.sol:SneakyVampireSyndicate",
        "label": "_tokenApprovals",
        "offset": 0,
        "slot": "4",
        "type": "t_mapping(t_uint256,t_address)"
      },
      {
        "astId": 149,
        "contract": "contracts/SneakyVampireSyndicate.sol:SneakyVampireSyndicate",
        "label": "_operatorApprovals",
        "offset": 0,
        "slot": "5",
        "type": "t_mapping(t_address,t_mapping(t_address,t_bool))"
      },
      {
        "astId": 1068,
        "contract": "contracts/SneakyVampireSyndicate.sol:SneakyVampireSyndicate",
        "label": "_ownedTokens",
        "offset": 0,
        "slot": "6",
        "type": "t_mapping(t_address,t_mapping(t_uint256,t_uint256))"
      },
      {
        "astId": 1072,
        "contract": "contracts/SneakyVampireSyndicate.sol:SneakyVampireSyndicate",
        "label": "_ownedTokensIndex",
        "offset": 0,
        "slot": "7",
        "type": "t_mapping(t_uint256,t_uint256)"
      },
      {
        "astId": 1075,
        "contract": "contracts/SneakyVampireSyndicate.sol:SneakyVampireSyndicate",
        "label": "_allTokens",
        "offset": 0,
        "slot": "8",
        "type": "t_array(t_uint256)dyn_storage"
      },
      {
        "astId": 1079,
        "contract": "contracts/SneakyVampireSyndicate.sol:SneakyVampireSyndicate",
        "label": "_allTokensIndex",
        "offset": 0,
        "slot": "9",
        "type": "t_mapping(t_uint256,t_uint256)"
      },
      {
        "astId": 7,
        "contract": "contracts/SneakyVampireSyndicate.sol:SneakyVampireSyndicate",
        "label": "_owner",
        "offset": 0,
        "slot": "10",
        "type": "t_address"
      },
      {
        "astId": 2048,
        "contract": "contracts/SneakyVampireSyndicate.sol:SneakyVampireSyndicate",
        "label": "presalerList",
        "offset": 0,
        "slot": "11",
        "type": "t_mapping(t_address,t_uint256)"
      },
      {
        "astId": 2052,
        "contract": "contracts/SneakyVampireSyndicate.sol:SneakyVampireSyndicate",
        "label": "presalerListPurchases",
        "offset": 0,
        "slot": "12",
        "type": "t_mapping(t_address,t_uint256)"
      },
      {
        "astId": 2056,
        "contract": "contracts/SneakyVampireSyndicate.sol:SneakyVampireSyndicate",
        "label": "salerListPurchases",
        "offset": 0,
        "slot": "13",
        "type": "t_mapping(t_address,t_uint256)"
      },
      {
        "astId": 2058,
        "contract": "contracts/SneakyVampireSyndicate.sol:SneakyVampireSyndicate",
        "label": "_contractURI",
        "offset": 0,
        "slot": "14",
        "type": "t_string_storage"
      },
      {
        "astId": 2060,
        "contract": "contracts/SneakyVampireSyndicate.sol:SneakyVampireSyndicate",
        "label": "_tokenBaseURI",
        "offset": 0,
        "slot": "15",
        "type": "t_string_storage"
      },
      {
        "astId": 2062,
        "contract": "contracts/SneakyVampireSyndicate.sol:SneakyVampireSyndicate",
        "label": "_defaultBaseURI",
        "offset": 0,
        "slot": "16",
        "type": "t_string_storage"
      },
      {
        "astId": 2065,
        "contract": "contracts/SneakyVampireSyndicate.sol:SneakyVampireSyndicate",
        "label": "_artistAddress",
        "offset": 0,
        "slot": "17",
        "type": "t_address"
      },
      {
        "astId": 2067,
        "contract": "contracts/SneakyVampireSyndicate.sol:SneakyVampireSyndicate",
        "label": "proof",
        "offset": 0,
        "slot": "18",
        "type": "t_string_storage"
      },
      {
        "astId": 2069,
        "contract": "contracts/SneakyVampireSyndicate.sol:SneakyVampireSyndicate",
        "label": "giftedAmount",
        "offset": 0,
        "slot": "19",
        "type": "t_uint256"
      },
      {
        "astId": 2071,
        "contract": "contracts/SneakyVampireSyndicate.sol:SneakyVampireSyndicate",
        "label": "publicAmountMinted",
        "offset": 0,
        "slot": "20",
        "type": "t_uint256"
      },
      {
        "astId": 2073,
        "contract": "contracts/SneakyVampireSyndicate.sol:SneakyVampireSyndicate",
        "label": "privateAmountMinted",
        "offset": 0,
        "slot": "21",
        "type": "t_uint256"
      },
      {
        "astId": 2075,
        "contract": "contracts/SneakyVampireSyndicate.sol:SneakyVampireSyndicate",
        "label": "presaleLive",
        "offset": 0,
        "slot": "22",
        "type": "t_bool"
      },
      {
        "astId": 2077,
        "contract": "contracts/SneakyVampireSyndicate.sol:SneakyVampireSyndicate",
        "label": "saleLive",
        "offset": 1,
        "slot": "22",
        "type": "t_bool"
      }
    ],
    "types": {
      "t_address": {
        "encoding": "inplace",
        "label": "address",
        "numberOfBytes": "20"
      },
      "t_array(t_uint256)dyn_storage": {
        "base": "t_uint256",
        "encoding": "dynamic_array",
        "label": "uint256[]",
        "numberOfBytes": "32"
      },
      "t_bool": {
        "encoding": "inplace",
        "label": "bool",
        "numberOfBytes": "1"
      },
      "t_mapping(t_address,t_bool)": {
        "encoding": "mapping",
        "key": "t_address",
        "label": "mapping(address => bool)",
        "numberOfBytes": "32",
        "value": "t_bool"
      },
      "t_mapping(t_address,t_mapping(t_address,t_bool))": {
        "encoding": "mapping",
        "key": "t_address",
        "label": "mapping(address => mapping(address => bool))",
        "numberOfBytes": "32",
        "value": "t_mapping(t_address,t_bool)"
      },
      "t_mapping(t_address,t_mapping(t_uint256,t_uint256))": {
        "encoding": "mapping",
        "key": "t_address",
        "label": "mapping(address => mapping(uint256 => uint256))",
        "numberOfBytes": "32",
        "value": "t_mapping(t_uint256,t_uint256)"
      },
      "t_mapping(t_address,t_uint256)": {
        "encoding": "mapping",
        "key": "t_address",
        "label": "mapping(address => uint256)",
        "numberOfBytes": "32",
        "value": "t_uint256"
      },
      "t_mapping(t_uint256,t_address)": {
        "encoding": "mapping",
        "key": "t_uint256",
        "label": "mapping(uint256 => address)",
        "numberOfBytes": "32",
        "value": "t_address"
      },
      "t_mapping(t_uint256,t_uint256)": {
        "encoding": "mapping",
        "key": "t_uint256",
        "label": "mapping(uint256 => uint256)",
        "numberOfBytes": "32",
        "value": "t_uint256"
      },
      "t_string_storage": {
        "encoding": "bytes",
        "label": "string",
        "numberOfBytes": "32"
      },
      "t_uint256": {
        "encoding": "inplace",
        "label": "uint256",
        "numberOfBytes": "32"
      }
    }
  }
}